Archive member included to satisfy reference by file (symbol)

C:\msys64\opt\arduino-1.8.13\portable\sketchbook\arduino\F427ZIT6_SerLed\build\core\core.a(startup_stm32yyxx.S.o)
                              (Reset_Handler)
C:\msys64\opt\arduino-1.8.13\portable\sketchbook\arduino\F427ZIT6_SerLed\build\core\core.a(wiring_digital.c.o)
                              C:\msys64\opt\arduino-1.8.13\portable\sketchbook\arduino\F427ZIT6_SerLed\build\sketch\F427ZIT6_SerLed.ino.cpp.o (pinMode)
C:\msys64\opt\arduino-1.8.13\portable\sketchbook\arduino\F427ZIT6_SerLed\build\core\core.a(wiring_time.c.o)
                              C:\msys64\opt\arduino-1.8.13\portable\sketchbook\arduino\F427ZIT6_SerLed\build\sketch\F427ZIT6_SerLed.ino.cpp.o (delay)
C:\msys64\opt\arduino-1.8.13\portable\sketchbook\arduino\F427ZIT6_SerLed\build\core\core.a(HardwareSerial.cpp.o)
                              C:\msys64\opt\arduino-1.8.13\portable\sketchbook\arduino\F427ZIT6_SerLed\build\sketch\F427ZIT6_SerLed.ino.cpp.o (HardwareSerial::begin(unsigned long, unsigned char))
C:\msys64\opt\arduino-1.8.13\portable\sketchbook\arduino\F427ZIT6_SerLed\build\core\core.a(HardwareTimer.cpp.o)
                              C:\msys64\opt\arduino-1.8.13\portable\sketchbook\arduino\F427ZIT6_SerLed\build\libraries\SrcWrapper\stm32\analog.cpp.o (HardwareTimer::resume())
C:\msys64\opt\arduino-1.8.13\portable\sketchbook\arduino\F427ZIT6_SerLed\build\core\core.a(Print.cpp.o)
                              C:\msys64\opt\arduino-1.8.13\portable\sketchbook\arduino\F427ZIT6_SerLed\build\core\core.a(HardwareSerial.cpp.o) (Print::write(unsigned char const*, unsigned int))
C:\msys64\opt\arduino-1.8.13\portable\sketchbook\arduino\F427ZIT6_SerLed\build\core\core.a(Stream.cpp.o)
                              C:\msys64\opt\arduino-1.8.13\portable\sketchbook\arduino\F427ZIT6_SerLed\build\core\core.a(HardwareSerial.cpp.o) (Stream::readBytes(char*, unsigned int))
C:\msys64\opt\arduino-1.8.13\portable\sketchbook\arduino\F427ZIT6_SerLed\build\core\core.a(WString.cpp.o)
                              C:\msys64\opt\arduino-1.8.13\portable\sketchbook\arduino\F427ZIT6_SerLed\build\core\core.a(Stream.cpp.o) (String::String(char const*))
C:\msys64\opt\arduino-1.8.13\portable\sketchbook\arduino\F427ZIT6_SerLed\build\core\core.a(abi.cpp.o)
                              C:\msys64\opt\arduino-1.8.13\portable\sketchbook\arduino\F427ZIT6_SerLed\build\core\core.a(Print.cpp.o) (__cxa_pure_virtual)
C:\msys64\opt\arduino-1.8.13\portable\sketchbook\arduino\F427ZIT6_SerLed\build\core\core.a(main.cpp.o)
                              c:/msys64/opt/arduino-1.8.13/portable/packages/stm32/tools/xpack-arm-none-eabi-gcc/9.2.1-1.1/bin/../lib/gcc/arm-none-eabi/9.2.1/../../../../arm-none-eabi/lib/thumb/v7e-m+fp/hard/crt0.o (main)
C:\msys64\opt\arduino-1.8.13\portable\sketchbook\arduino\F427ZIT6_SerLed\build\core\core.a(new.cpp.o)
                              C:\msys64\opt\arduino-1.8.13\portable\sketchbook\arduino\F427ZIT6_SerLed\build\libraries\SrcWrapper\stm32\analog.cpp.o (operator new(unsigned int))
C:\msys64\opt\arduino-1.8.13\portable\sketchbook\arduino\F427ZIT6_SerLed\build\core\core.a(dtostrf.c.o)
                              C:\msys64\opt\arduino-1.8.13\portable\sketchbook\arduino\F427ZIT6_SerLed\build\core\core.a(WString.cpp.o) (dtostrf)
C:\msys64\opt\arduino-1.8.13\portable\sketchbook\arduino\F427ZIT6_SerLed\build\core\core.a(board.c.o)
                              C:\msys64\opt\arduino-1.8.13\portable\sketchbook\arduino\F427ZIT6_SerLed\build\core\core.a(main.cpp.o) (init)
C:\msys64\opt\arduino-1.8.13\portable\sketchbook\arduino\F427ZIT6_SerLed\build\core\core.a(hooks.c.o)
                              C:\msys64\opt\arduino-1.8.13\portable\sketchbook\arduino\F427ZIT6_SerLed\build\core\core.a(wiring_time.c.o) (yield)
C:\msys64\opt\arduino-1.8.13\portable\sketchbook\arduino\F427ZIT6_SerLed\build\core\core.a(itoa.c.o)
                              C:\msys64\opt\arduino-1.8.13\portable\sketchbook\arduino\F427ZIT6_SerLed\build\core\core.a(WString.cpp.o) (ltoa)
C:\msys64\opt\arduino-1.8.13\portable\sketchbook\arduino\F427ZIT6_SerLed\build\core\core.a(wiring_analog.c.o)
                              C:\msys64\opt\arduino-1.8.13\portable\sketchbook\arduino\F427ZIT6_SerLed\build\core\core.a(wiring_digital.c.o) (g_anOutputPinConfigured)
C:\msys64\opt\arduino-1.8.13\portable\sketchbook\arduino\F427ZIT6_SerLed\build\core\core.a(WSerial.cpp.o)
                              C:\msys64\opt\arduino-1.8.13\portable\sketchbook\arduino\F427ZIT6_SerLed\build\core\core.a(main.cpp.o) (serialEventRun())
C:\msys64\opt\arduino-1.8.13\portable\sketchbook\arduino\F427ZIT6_SerLed\build\core\core.a(pins_arduino.c.o)
                              C:\msys64\opt\arduino-1.8.13\portable\sketchbook\arduino\F427ZIT6_SerLed\build\core\core.a(wiring_analog.c.o) (analogInputToPinName)
c:/msys64/opt/arduino-1.8.13/portable/packages/stm32/tools/xpack-arm-none-eabi-gcc/9.2.1-1.1/bin/../lib/gcc/arm-none-eabi/9.2.1/../../../../arm-none-eabi/lib/thumb/v7e-m+fp/hard\libc_nano.a(lib_a-atof.o)
                              C:\msys64\opt\arduino-1.8.13\portable\sketchbook\arduino\F427ZIT6_SerLed\build\core\core.a(WString.cpp.o) (atof)
c:/msys64/opt/arduino-1.8.13/portable/packages/stm32/tools/xpack-arm-none-eabi-gcc/9.2.1-1.1/bin/../lib/gcc/arm-none-eabi/9.2.1/../../../../arm-none-eabi/lib/thumb/v7e-m+fp/hard\libc_nano.a(lib_a-atol.o)
                              C:\msys64\opt\arduino-1.8.13\portable\sketchbook\arduino\F427ZIT6_SerLed\build\core\core.a(WString.cpp.o) (atol)
c:/msys64/opt/arduino-1.8.13/portable/packages/stm32/tools/xpack-arm-none-eabi-gcc/9.2.1-1.1/bin/../lib/gcc/arm-none-eabi/9.2.1/../../../../arm-none-eabi/lib/thumb/v7e-m+fp/hard\libc_nano.a(lib_a-exit.o)
                              c:/msys64/opt/arduino-1.8.13/portable/packages/stm32/tools/xpack-arm-none-eabi-gcc/9.2.1-1.1/bin/../lib/gcc/arm-none-eabi/9.2.1/../../../../arm-none-eabi/lib/thumb/v7e-m+fp/hard/crt0.o (exit)
c:/msys64/opt/arduino-1.8.13/portable/packages/stm32/tools/xpack-arm-none-eabi-gcc/9.2.1-1.1/bin/../lib/gcc/arm-none-eabi/9.2.1/../../../../arm-none-eabi/lib/thumb/v7e-m+fp/hard\libc_nano.a(lib_a-impure.o)
                              c:/msys64/opt/arduino-1.8.13/portable/packages/stm32/tools/xpack-arm-none-eabi-gcc/9.2.1-1.1/bin/../lib/gcc/arm-none-eabi/9.2.1/../../../../arm-none-eabi/lib/thumb/v7e-m+fp/hard\libc_nano.a(lib_a-exit.o) (_global_impure_ptr)
c:/msys64/opt/arduino-1.8.13/portable/packages/stm32/tools/xpack-arm-none-eabi-gcc/9.2.1-1.1/bin/../lib/gcc/arm-none-eabi/9.2.1/../../../../arm-none-eabi/lib/thumb/v7e-m+fp/hard\libc_nano.a(lib_a-init.o)
                              c:/msys64/opt/arduino-1.8.13/portable/packages/stm32/tools/xpack-arm-none-eabi-gcc/9.2.1-1.1/bin/../lib/gcc/arm-none-eabi/9.2.1/../../../../arm-none-eabi/lib/thumb/v7e-m+fp/hard/crt0.o (__libc_init_array)
c:/msys64/opt/arduino-1.8.13/portable/packages/stm32/tools/xpack-arm-none-eabi-gcc/9.2.1-1.1/bin/../lib/gcc/arm-none-eabi/9.2.1/../../../../arm-none-eabi/lib/thumb/v7e-m+fp/hard\libc_nano.a(lib_a-isspace.o)
                              C:\msys64\opt\arduino-1.8.13\portable\sketchbook\arduino\F427ZIT6_SerLed\build\core\core.a(WString.cpp.o) (isspace)
c:/msys64/opt/arduino-1.8.13/portable/packages/stm32/tools/xpack-arm-none-eabi-gcc/9.2.1-1.1/bin/../lib/gcc/arm-none-eabi/9.2.1/../../../../arm-none-eabi/lib/thumb/v7e-m+fp/hard\libc_nano.a(lib_a-malloc.o)
                              C:\msys64\opt\arduino-1.8.13\portable\sketchbook\arduino\F427ZIT6_SerLed\build\core\core.a(new.cpp.o) (malloc)
c:/msys64/opt/arduino-1.8.13/portable/packages/stm32/tools/xpack-arm-none-eabi-gcc/9.2.1-1.1/bin/../lib/gcc/arm-none-eabi/9.2.1/../../../../arm-none-eabi/lib/thumb/v7e-m+fp/hard\libc_nano.a(lib_a-memcpy-stub.o)
                              C:\msys64\opt\arduino-1.8.13\portable\sketchbook\arduino\F427ZIT6_SerLed\build\libraries\SrcWrapper\stm32\stm32_eeprom.c.o (memcpy)
c:/msys64/opt/arduino-1.8.13/portable/packages/stm32/tools/xpack-arm-none-eabi-gcc/9.2.1-1.1/bin/../lib/gcc/arm-none-eabi/9.2.1/../../../../arm-none-eabi/lib/thumb/v7e-m+fp/hard\libc_nano.a(lib_a-memmove.o)
                              C:\msys64\opt\arduino-1.8.13\portable\sketchbook\arduino\F427ZIT6_SerLed\build\core\core.a(WString.cpp.o) (memmove)
c:/msys64/opt/arduino-1.8.13/portable/packages/stm32/tools/xpack-arm-none-eabi-gcc/9.2.1-1.1/bin/../lib/gcc/arm-none-eabi/9.2.1/../../../../arm-none-eabi/lib/thumb/v7e-m+fp/hard\libc_nano.a(lib_a-memset.o)
                              c:/msys64/opt/arduino-1.8.13/portable/packages/stm32/tools/xpack-arm-none-eabi-gcc/9.2.1-1.1/bin/../lib/gcc/arm-none-eabi/9.2.1/../../../../arm-none-eabi/lib/thumb/v7e-m+fp/hard/crt0.o (memset)
c:/msys64/opt/arduino-1.8.13/portable/packages/stm32/tools/xpack-arm-none-eabi-gcc/9.2.1-1.1/bin/../lib/gcc/arm-none-eabi/9.2.1/../../../../arm-none-eabi/lib/thumb/v7e-m+fp/hard\libc_nano.a(lib_a-nano-freer.o)
                              c:/msys64/opt/arduino-1.8.13/portable/packages/stm32/tools/xpack-arm-none-eabi-gcc/9.2.1-1.1/bin/../lib/gcc/arm-none-eabi/9.2.1/../../../../arm-none-eabi/lib/thumb/v7e-m+fp/hard\libc_nano.a(lib_a-malloc.o) (_free_r)
c:/msys64/opt/arduino-1.8.13/portable/packages/stm32/tools/xpack-arm-none-eabi-gcc/9.2.1-1.1/bin/../lib/gcc/arm-none-eabi/9.2.1/../../../../arm-none-eabi/lib/thumb/v7e-m+fp/hard\libc_nano.a(lib_a-nano-mallocr.o)
                              c:/msys64/opt/arduino-1.8.13/portable/packages/stm32/tools/xpack-arm-none-eabi-gcc/9.2.1-1.1/bin/../lib/gcc/arm-none-eabi/9.2.1/../../../../arm-none-eabi/lib/thumb/v7e-m+fp/hard\libc_nano.a(lib_a-malloc.o) (_malloc_r)
c:/msys64/opt/arduino-1.8.13/portable/packages/stm32/tools/xpack-arm-none-eabi-gcc/9.2.1-1.1/bin/../lib/gcc/arm-none-eabi/9.2.1/../../../../arm-none-eabi/lib/thumb/v7e-m+fp/hard\libc_nano.a(lib_a-realloc.o)
                              C:\msys64\opt\arduino-1.8.13\portable\sketchbook\arduino\F427ZIT6_SerLed\build\core\core.a(WString.cpp.o) (realloc)
c:/msys64/opt/arduino-1.8.13/portable/packages/stm32/tools/xpack-arm-none-eabi-gcc/9.2.1-1.1/bin/../lib/gcc/arm-none-eabi/9.2.1/../../../../arm-none-eabi/lib/thumb/v7e-m+fp/hard\libc_nano.a(lib_a-reent.o)
                              C:\msys64\opt\arduino-1.8.13\portable\sketchbook\arduino\F427ZIT6_SerLed\build\libraries\SrcWrapper\syscalls.c.o (errno)
c:/msys64/opt/arduino-1.8.13/portable/packages/stm32/tools/xpack-arm-none-eabi-gcc/9.2.1-1.1/bin/../lib/gcc/arm-none-eabi/9.2.1/../../../../arm-none-eabi/lib/thumb/v7e-m+fp/hard\libc_nano.a(lib_a-sbrkr.o)
                              c:/msys64/opt/arduino-1.8.13/portable/packages/stm32/tools/xpack-arm-none-eabi-gcc/9.2.1-1.1/bin/../lib/gcc/arm-none-eabi/9.2.1/../../../../arm-none-eabi/lib/thumb/v7e-m+fp/hard\libc_nano.a(lib_a-nano-mallocr.o) (_sbrk_r)
c:/msys64/opt/arduino-1.8.13/portable/packages/stm32/tools/xpack-arm-none-eabi-gcc/9.2.1-1.1/bin/../lib/gcc/arm-none-eabi/9.2.1/../../../../arm-none-eabi/lib/thumb/v7e-m+fp/hard\libc_nano.a(lib_a-sprintf.o)
                              C:\msys64\opt\arduino-1.8.13\portable\sketchbook\arduino\F427ZIT6_SerLed\build\core\core.a(dtostrf.c.o) (sprintf)
c:/msys64/opt/arduino-1.8.13/portable/packages/stm32/tools/xpack-arm-none-eabi-gcc/9.2.1-1.1/bin/../lib/gcc/arm-none-eabi/9.2.1/../../../../arm-none-eabi/lib/thumb/v7e-m+fp/hard\libc_nano.a(lib_a-strcat.o)
                              C:\msys64\opt\arduino-1.8.13\portable\sketchbook\arduino\F427ZIT6_SerLed\build\core\core.a(dtostrf.c.o) (strcat)
c:/msys64/opt/arduino-1.8.13/portable/packages/stm32/tools/xpack-arm-none-eabi-gcc/9.2.1-1.1/bin/../lib/gcc/arm-none-eabi/9.2.1/../../../../arm-none-eabi/lib/thumb/v7e-m+fp/hard\libc_nano.a(lib_a-strchr.o)
                              C:\msys64\opt\arduino-1.8.13\portable\sketchbook\arduino\F427ZIT6_SerLed\build\core\core.a(WString.cpp.o) (strchr)
c:/msys64/opt/arduino-1.8.13/portable/packages/stm32/tools/xpack-arm-none-eabi-gcc/9.2.1-1.1/bin/../lib/gcc/arm-none-eabi/9.2.1/../../../../arm-none-eabi/lib/thumb/v7e-m+fp/hard\libc_nano.a(lib_a-strcmp.o)
                              C:\msys64\opt\arduino-1.8.13\portable\sketchbook\arduino\F427ZIT6_SerLed\build\core\core.a(WString.cpp.o) (strcmp)
c:/msys64/opt/arduino-1.8.13/portable/packages/stm32/tools/xpack-arm-none-eabi-gcc/9.2.1-1.1/bin/../lib/gcc/arm-none-eabi/9.2.1/../../../../arm-none-eabi/lib/thumb/v7e-m+fp/hard\libc_nano.a(lib_a-strcpy.o)
                              C:\msys64\opt\arduino-1.8.13\portable\sketchbook\arduino\F427ZIT6_SerLed\build\core\core.a(WString.cpp.o) (strcpy)
c:/msys64/opt/arduino-1.8.13/portable/packages/stm32/tools/xpack-arm-none-eabi-gcc/9.2.1-1.1/bin/../lib/gcc/arm-none-eabi/9.2.1/../../../../arm-none-eabi/lib/thumb/v7e-m+fp/hard\libc_nano.a(lib_a-strlen.o)
                              C:\msys64\opt\arduino-1.8.13\portable\sketchbook\arduino\F427ZIT6_SerLed\build\core\core.a(Print.cpp.o) (strlen)
c:/msys64/opt/arduino-1.8.13/portable/packages/stm32/tools/xpack-arm-none-eabi-gcc/9.2.1-1.1/bin/../lib/gcc/arm-none-eabi/9.2.1/../../../../arm-none-eabi/lib/thumb/v7e-m+fp/hard\libc_nano.a(lib_a-strncmp.o)
                              C:\msys64\opt\arduino-1.8.13\portable\sketchbook\arduino\F427ZIT6_SerLed\build\core\core.a(WString.cpp.o) (strncmp)
c:/msys64/opt/arduino-1.8.13/portable/packages/stm32/tools/xpack-arm-none-eabi-gcc/9.2.1-1.1/bin/../lib/gcc/arm-none-eabi/9.2.1/../../../../arm-none-eabi/lib/thumb/v7e-m+fp/hard\libc_nano.a(lib_a-strncpy.o)
                              C:\msys64\opt\arduino-1.8.13\portable\sketchbook\arduino\F427ZIT6_SerLed\build\core\core.a(WString.cpp.o) (strncpy)
c:/msys64/opt/arduino-1.8.13/portable/packages/stm32/tools/xpack-arm-none-eabi-gcc/9.2.1-1.1/bin/../lib/gcc/arm-none-eabi/9.2.1/../../../../arm-none-eabi/lib/thumb/v7e-m+fp/hard\libc_nano.a(lib_a-strrchr.o)
                              C:\msys64\opt\arduino-1.8.13\portable\sketchbook\arduino\F427ZIT6_SerLed\build\core\core.a(WString.cpp.o) (strrchr)
c:/msys64/opt/arduino-1.8.13/portable/packages/stm32/tools/xpack-arm-none-eabi-gcc/9.2.1-1.1/bin/../lib/gcc/arm-none-eabi/9.2.1/../../../../arm-none-eabi/lib/thumb/v7e-m+fp/hard\libc_nano.a(lib_a-strstr.o)
                              C:\msys64\opt\arduino-1.8.13\portable\sketchbook\arduino\F427ZIT6_SerLed\build\core\core.a(WString.cpp.o) (strstr)
c:/msys64/opt/arduino-1.8.13/portable/packages/stm32/tools/xpack-arm-none-eabi-gcc/9.2.1-1.1/bin/../lib/gcc/arm-none-eabi/9.2.1/../../../../arm-none-eabi/lib/thumb/v7e-m+fp/hard\libc_nano.a(lib_a-strtod.o)
                              c:/msys64/opt/arduino-1.8.13/portable/packages/stm32/tools/xpack-arm-none-eabi-gcc/9.2.1-1.1/bin/../lib/gcc/arm-none-eabi/9.2.1/../../../../arm-none-eabi/lib/thumb/v7e-m+fp/hard\libc_nano.a(lib_a-atof.o) (strtod)
c:/msys64/opt/arduino-1.8.13/portable/packages/stm32/tools/xpack-arm-none-eabi-gcc/9.2.1-1.1/bin/../lib/gcc/arm-none-eabi/9.2.1/../../../../arm-none-eabi/lib/thumb/v7e-m+fp/hard\libc_nano.a(lib_a-strtol.o)
                              c:/msys64/opt/arduino-1.8.13/portable/packages/stm32/tools/xpack-arm-none-eabi-gcc/9.2.1-1.1/bin/../lib/gcc/arm-none-eabi/9.2.1/../../../../arm-none-eabi/lib/thumb/v7e-m+fp/hard\libc_nano.a(lib_a-atol.o) (_strtol_r)
c:/msys64/opt/arduino-1.8.13/portable/packages/stm32/tools/xpack-arm-none-eabi-gcc/9.2.1-1.1/bin/../lib/gcc/arm-none-eabi/9.2.1/../../../../arm-none-eabi/lib/thumb/v7e-m+fp/hard\libc_nano.a(lib_a-tolower.o)
                              C:\msys64\opt\arduino-1.8.13\portable\sketchbook\arduino\F427ZIT6_SerLed\build\core\core.a(WString.cpp.o) (tolower)
c:/msys64/opt/arduino-1.8.13/portable/packages/stm32/tools/xpack-arm-none-eabi-gcc/9.2.1-1.1/bin/../lib/gcc/arm-none-eabi/9.2.1/../../../../arm-none-eabi/lib/thumb/v7e-m+fp/hard\libc_nano.a(lib_a-toupper.o)
                              C:\msys64\opt\arduino-1.8.13\portable\sketchbook\arduino\F427ZIT6_SerLed\build\core\core.a(WString.cpp.o) (toupper)
c:/msys64/opt/arduino-1.8.13/portable/packages/stm32/tools/xpack-arm-none-eabi-gcc/9.2.1-1.1/bin/../lib/gcc/arm-none-eabi/9.2.1/../../../../arm-none-eabi/lib/thumb/v7e-m+fp/hard\libc_nano.a(lib_a-vdprintf.o)
                              C:\msys64\opt\arduino-1.8.13\portable\sketchbook\arduino\F427ZIT6_SerLed\build\core\core.a(Print.cpp.o) (vdprintf)
c:/msys64/opt/arduino-1.8.13/portable/packages/stm32/tools/xpack-arm-none-eabi-gcc/9.2.1-1.1/bin/../lib/gcc/arm-none-eabi/9.2.1/../../../../arm-none-eabi/lib/thumb/v7e-m+fp/hard\libc_nano.a(lib_a-writer.o)
                              c:/msys64/opt/arduino-1.8.13/portable/packages/stm32/tools/xpack-arm-none-eabi-gcc/9.2.1-1.1/bin/../lib/gcc/arm-none-eabi/9.2.1/../../../../arm-none-eabi/lib/thumb/v7e-m+fp/hard\libc_nano.a(lib_a-vdprintf.o) (_write_r)
c:/msys64/opt/arduino-1.8.13/portable/packages/stm32/tools/xpack-arm-none-eabi-gcc/9.2.1-1.1/bin/../lib/gcc/arm-none-eabi/9.2.1/../../../../arm-none-eabi/lib/thumb/v7e-m+fp/hard\libc_nano.a(lib_a-ctype_.o)
                              c:/msys64/opt/arduino-1.8.13/portable/packages/stm32/tools/xpack-arm-none-eabi-gcc/9.2.1-1.1/bin/../lib/gcc/arm-none-eabi/9.2.1/../../../../arm-none-eabi/lib/thumb/v7e-m+fp/hard\libc_nano.a(lib_a-isspace.o) (_ctype_)
c:/msys64/opt/arduino-1.8.13/portable/packages/stm32/tools/xpack-arm-none-eabi-gcc/9.2.1-1.1/bin/../lib/gcc/arm-none-eabi/9.2.1/../../../../arm-none-eabi/lib/thumb/v7e-m+fp/hard\libc_nano.a(lib_a-findfp.o)
                              c:/msys64/opt/arduino-1.8.13/portable/packages/stm32/tools/xpack-arm-none-eabi-gcc/9.2.1-1.1/bin/../lib/gcc/arm-none-eabi/9.2.1/../../../../arm-none-eabi/lib/thumb/v7e-m+fp/hard\libc_nano.a(lib_a-vdprintf.o) (__sinit)
c:/msys64/opt/arduino-1.8.13/portable/packages/stm32/tools/xpack-arm-none-eabi-gcc/9.2.1-1.1/bin/../lib/gcc/arm-none-eabi/9.2.1/../../../../arm-none-eabi/lib/thumb/v7e-m+fp/hard\libc_nano.a(lib_a-fwalk.o)
                              c:/msys64/opt/arduino-1.8.13/portable/packages/stm32/tools/xpack-arm-none-eabi-gcc/9.2.1-1.1/bin/../lib/gcc/arm-none-eabi/9.2.1/../../../../arm-none-eabi/lib/thumb/v7e-m+fp/hard\libc_nano.a(lib_a-findfp.o) (_fwalk)
c:/msys64/opt/arduino-1.8.13/portable/packages/stm32/tools/xpack-arm-none-eabi-gcc/9.2.1-1.1/bin/../lib/gcc/arm-none-eabi/9.2.1/../../../../arm-none-eabi/lib/thumb/v7e-m+fp/hard\libc_nano.a(lib_a-gdtoa-gethex.o)
                              c:/msys64/opt/arduino-1.8.13/portable/packages/stm32/tools/xpack-arm-none-eabi-gcc/9.2.1-1.1/bin/../lib/gcc/arm-none-eabi/9.2.1/../../../../arm-none-eabi/lib/thumb/v7e-m+fp/hard\libc_nano.a(lib_a-strtod.o) (__gethex)
c:/msys64/opt/arduino-1.8.13/portable/packages/stm32/tools/xpack-arm-none-eabi-gcc/9.2.1-1.1/bin/../lib/gcc/arm-none-eabi/9.2.1/../../../../arm-none-eabi/lib/thumb/v7e-m+fp/hard\libc_nano.a(lib_a-gdtoa-hexnan.o)
                              c:/msys64/opt/arduino-1.8.13/portable/packages/stm32/tools/xpack-arm-none-eabi-gcc/9.2.1-1.1/bin/../lib/gcc/arm-none-eabi/9.2.1/../../../../arm-none-eabi/lib/thumb/v7e-m+fp/hard\libc_nano.a(lib_a-strtod.o) (__match)
c:/msys64/opt/arduino-1.8.13/portable/packages/stm32/tools/xpack-arm-none-eabi-gcc/9.2.1-1.1/bin/../lib/gcc/arm-none-eabi/9.2.1/../../../../arm-none-eabi/lib/thumb/v7e-m+fp/hard\libc_nano.a(lib_a-lnumeric.o)
                              c:/msys64/opt/arduino-1.8.13/portable/packages/stm32/tools/xpack-arm-none-eabi-gcc/9.2.1-1.1/bin/../lib/gcc/arm-none-eabi/9.2.1/../../../../arm-none-eabi/lib/thumb/v7e-m+fp/hard\libc_nano.a(lib_a-strtod.o) (_C_numeric_locale)
c:/msys64/opt/arduino-1.8.13/portable/packages/stm32/tools/xpack-arm-none-eabi-gcc/9.2.1-1.1/bin/../lib/gcc/arm-none-eabi/9.2.1/../../../../arm-none-eabi/lib/thumb/v7e-m+fp/hard\libc_nano.a(lib_a-locale.o)
                              c:/msys64/opt/arduino-1.8.13/portable/packages/stm32/tools/xpack-arm-none-eabi-gcc/9.2.1-1.1/bin/../lib/gcc/arm-none-eabi/9.2.1/../../../../arm-none-eabi/lib/thumb/v7e-m+fp/hard\libc_nano.a(lib_a-strtod.o) (__global_locale)
c:/msys64/opt/arduino-1.8.13/portable/packages/stm32/tools/xpack-arm-none-eabi-gcc/9.2.1-1.1/bin/../lib/gcc/arm-none-eabi/9.2.1/../../../../arm-none-eabi/lib/thumb/v7e-m+fp/hard\libc_nano.a(lib_a-lock.o)
                              c:/msys64/opt/arduino-1.8.13/portable/packages/stm32/tools/xpack-arm-none-eabi-gcc/9.2.1-1.1/bin/../lib/gcc/arm-none-eabi/9.2.1/../../../../arm-none-eabi/lib/thumb/v7e-m+fp/hard\libc_nano.a(lib_a-findfp.o) (__retarget_lock_init_recursive)
c:/msys64/opt/arduino-1.8.13/portable/packages/stm32/tools/xpack-arm-none-eabi-gcc/9.2.1-1.1/bin/../lib/gcc/arm-none-eabi/9.2.1/../../../../arm-none-eabi/lib/thumb/v7e-m+fp/hard\libc_nano.a(lib_a-mbtowc_r.o)
                              c:/msys64/opt/arduino-1.8.13/portable/packages/stm32/tools/xpack-arm-none-eabi-gcc/9.2.1-1.1/bin/../lib/gcc/arm-none-eabi/9.2.1/../../../../arm-none-eabi/lib/thumb/v7e-m+fp/hard\libc_nano.a(lib_a-locale.o) (__ascii_mbtowc)
c:/msys64/opt/arduino-1.8.13/portable/packages/stm32/tools/xpack-arm-none-eabi-gcc/9.2.1-1.1/bin/../lib/gcc/arm-none-eabi/9.2.1/../../../../arm-none-eabi/lib/thumb/v7e-m+fp/hard\libc_nano.a(lib_a-mlock.o)
                              c:/msys64/opt/arduino-1.8.13/portable/packages/stm32/tools/xpack-arm-none-eabi-gcc/9.2.1-1.1/bin/../lib/gcc/arm-none-eabi/9.2.1/../../../../arm-none-eabi/lib/thumb/v7e-m+fp/hard\libc_nano.a(lib_a-nano-freer.o) (__malloc_lock)
c:/msys64/opt/arduino-1.8.13/portable/packages/stm32/tools/xpack-arm-none-eabi-gcc/9.2.1-1.1/bin/../lib/gcc/arm-none-eabi/9.2.1/../../../../arm-none-eabi/lib/thumb/v7e-m+fp/hard\libc_nano.a(lib_a-mprec.o)
                              c:/msys64/opt/arduino-1.8.13/portable/packages/stm32/tools/xpack-arm-none-eabi-gcc/9.2.1-1.1/bin/../lib/gcc/arm-none-eabi/9.2.1/../../../../arm-none-eabi/lib/thumb/v7e-m+fp/hard\libc_nano.a(lib_a-strtod.o) (_Balloc)
c:/msys64/opt/arduino-1.8.13/portable/packages/stm32/tools/xpack-arm-none-eabi-gcc/9.2.1-1.1/bin/../lib/gcc/arm-none-eabi/9.2.1/../../../../arm-none-eabi/lib/thumb/v7e-m+fp/hard\libc_nano.a(lib_a-nano-callocr.o)
                              c:/msys64/opt/arduino-1.8.13/portable/packages/stm32/tools/xpack-arm-none-eabi-gcc/9.2.1-1.1/bin/../lib/gcc/arm-none-eabi/9.2.1/../../../../arm-none-eabi/lib/thumb/v7e-m+fp/hard\libc_nano.a(lib_a-mprec.o) (_calloc_r)
c:/msys64/opt/arduino-1.8.13/portable/packages/stm32/tools/xpack-arm-none-eabi-gcc/9.2.1-1.1/bin/../lib/gcc/arm-none-eabi/9.2.1/../../../../arm-none-eabi/lib/thumb/v7e-m+fp/hard\libc_nano.a(lib_a-nano-reallocr.o)
                              c:/msys64/opt/arduino-1.8.13/portable/packages/stm32/tools/xpack-arm-none-eabi-gcc/9.2.1-1.1/bin/../lib/gcc/arm-none-eabi/9.2.1/../../../../arm-none-eabi/lib/thumb/v7e-m+fp/hard\libc_nano.a(lib_a-realloc.o) (_realloc_r)
c:/msys64/opt/arduino-1.8.13/portable/packages/stm32/tools/xpack-arm-none-eabi-gcc/9.2.1-1.1/bin/../lib/gcc/arm-none-eabi/9.2.1/../../../../arm-none-eabi/lib/thumb/v7e-m+fp/hard\libc_nano.a(lib_a-nano-svfprintf.o)
                              c:/msys64/opt/arduino-1.8.13/portable/packages/stm32/tools/xpack-arm-none-eabi-gcc/9.2.1-1.1/bin/../lib/gcc/arm-none-eabi/9.2.1/../../../../arm-none-eabi/lib/thumb/v7e-m+fp/hard\libc_nano.a(lib_a-sprintf.o) (_svfprintf_r)
c:/msys64/opt/arduino-1.8.13/portable/packages/stm32/tools/xpack-arm-none-eabi-gcc/9.2.1-1.1/bin/../lib/gcc/arm-none-eabi/9.2.1/../../../../arm-none-eabi/lib/thumb/v7e-m+fp/hard\libc_nano.a(lib_a-nano-vfprintf_i.o)
                              c:/msys64/opt/arduino-1.8.13/portable/packages/stm32/tools/xpack-arm-none-eabi-gcc/9.2.1-1.1/bin/../lib/gcc/arm-none-eabi/9.2.1/../../../../arm-none-eabi/lib/thumb/v7e-m+fp/hard\libc_nano.a(lib_a-nano-svfprintf.o) (_printf_i)
c:/msys64/opt/arduino-1.8.13/portable/packages/stm32/tools/xpack-arm-none-eabi-gcc/9.2.1-1.1/bin/../lib/gcc/arm-none-eabi/9.2.1/../../../../arm-none-eabi/lib/thumb/v7e-m+fp/hard\libc_nano.a(lib_a-s_nan.o)
                              c:/msys64/opt/arduino-1.8.13/portable/packages/stm32/tools/xpack-arm-none-eabi-gcc/9.2.1-1.1/bin/../lib/gcc/arm-none-eabi/9.2.1/../../../../arm-none-eabi/lib/thumb/v7e-m+fp/hard\libc_nano.a(lib_a-strtod.o) (nan)
c:/msys64/opt/arduino-1.8.13/portable/packages/stm32/tools/xpack-arm-none-eabi-gcc/9.2.1-1.1/bin/../lib/gcc/arm-none-eabi/9.2.1/../../../../arm-none-eabi/lib/thumb/v7e-m+fp/hard\libc_nano.a(lib_a-sf_nan.o)
                              c:/msys64/opt/arduino-1.8.13/portable/packages/stm32/tools/xpack-arm-none-eabi-gcc/9.2.1-1.1/bin/../lib/gcc/arm-none-eabi/9.2.1/../../../../arm-none-eabi/lib/thumb/v7e-m+fp/hard\libc_nano.a(lib_a-strtod.o) (nanf)
c:/msys64/opt/arduino-1.8.13/portable/packages/stm32/tools/xpack-arm-none-eabi-gcc/9.2.1-1.1/bin/../lib/gcc/arm-none-eabi/9.2.1/../../../../arm-none-eabi/lib/thumb/v7e-m+fp/hard\libc_nano.a(lib_a-stdio.o)
                              c:/msys64/opt/arduino-1.8.13/portable/packages/stm32/tools/xpack-arm-none-eabi-gcc/9.2.1-1.1/bin/../lib/gcc/arm-none-eabi/9.2.1/../../../../arm-none-eabi/lib/thumb/v7e-m+fp/hard\libc_nano.a(lib_a-findfp.o) (__sread)
c:/msys64/opt/arduino-1.8.13/portable/packages/stm32/tools/xpack-arm-none-eabi-gcc/9.2.1-1.1/bin/../lib/gcc/arm-none-eabi/9.2.1/../../../../arm-none-eabi/lib/thumb/v7e-m+fp/hard\libc_nano.a(lib_a-vasnprintf.o)
                              c:/msys64/opt/arduino-1.8.13/portable/packages/stm32/tools/xpack-arm-none-eabi-gcc/9.2.1-1.1/bin/../lib/gcc/arm-none-eabi/9.2.1/../../../../arm-none-eabi/lib/thumb/v7e-m+fp/hard\libc_nano.a(lib_a-vdprintf.o) (_vasnprintf_r)
c:/msys64/opt/arduino-1.8.13/portable/packages/stm32/tools/xpack-arm-none-eabi-gcc/9.2.1-1.1/bin/../lib/gcc/arm-none-eabi/9.2.1/../../../../arm-none-eabi/lib/thumb/v7e-m+fp/hard\libc_nano.a(lib_a-wctomb_r.o)
                              c:/msys64/opt/arduino-1.8.13/portable/packages/stm32/tools/xpack-arm-none-eabi-gcc/9.2.1-1.1/bin/../lib/gcc/arm-none-eabi/9.2.1/../../../../arm-none-eabi/lib/thumb/v7e-m+fp/hard\libc_nano.a(lib_a-locale.o) (__ascii_wctomb)
c:/msys64/opt/arduino-1.8.13/portable/packages/stm32/tools/xpack-arm-none-eabi-gcc/9.2.1-1.1/bin/../lib/gcc/arm-none-eabi/9.2.1/../../../../arm-none-eabi/lib/thumb/v7e-m+fp/hard\libc_nano.a(lib_a-closer.o)
                              c:/msys64/opt/arduino-1.8.13/portable/packages/stm32/tools/xpack-arm-none-eabi-gcc/9.2.1-1.1/bin/../lib/gcc/arm-none-eabi/9.2.1/../../../../arm-none-eabi/lib/thumb/v7e-m+fp/hard\libc_nano.a(lib_a-stdio.o) (_close_r)
c:/msys64/opt/arduino-1.8.13/portable/packages/stm32/tools/xpack-arm-none-eabi-gcc/9.2.1-1.1/bin/../lib/gcc/arm-none-eabi/9.2.1/../../../../arm-none-eabi/lib/thumb/v7e-m+fp/hard\libc_nano.a(lib_a-fflush.o)
                              c:/msys64/opt/arduino-1.8.13/portable/packages/stm32/tools/xpack-arm-none-eabi-gcc/9.2.1-1.1/bin/../lib/gcc/arm-none-eabi/9.2.1/../../../../arm-none-eabi/lib/thumb/v7e-m+fp/hard\libc_nano.a(lib_a-findfp.o) (_fflush_r)
c:/msys64/opt/arduino-1.8.13/portable/packages/stm32/tools/xpack-arm-none-eabi-gcc/9.2.1-1.1/bin/../lib/gcc/arm-none-eabi/9.2.1/../../../../arm-none-eabi/lib/thumb/v7e-m+fp/hard\libc_nano.a(lib_a-lseekr.o)
                              c:/msys64/opt/arduino-1.8.13/portable/packages/stm32/tools/xpack-arm-none-eabi-gcc/9.2.1-1.1/bin/../lib/gcc/arm-none-eabi/9.2.1/../../../../arm-none-eabi/lib/thumb/v7e-m+fp/hard\libc_nano.a(lib_a-stdio.o) (_lseek_r)
c:/msys64/opt/arduino-1.8.13/portable/packages/stm32/tools/xpack-arm-none-eabi-gcc/9.2.1-1.1/bin/../lib/gcc/arm-none-eabi/9.2.1/../../../../arm-none-eabi/lib/thumb/v7e-m+fp/hard\libc_nano.a(lib_a-memchr.o)
                              c:/msys64/opt/arduino-1.8.13/portable/packages/stm32/tools/xpack-arm-none-eabi-gcc/9.2.1-1.1/bin/../lib/gcc/arm-none-eabi/9.2.1/../../../../arm-none-eabi/lib/thumb/v7e-m+fp/hard\libc_nano.a(lib_a-nano-svfprintf.o) (memchr)
c:/msys64/opt/arduino-1.8.13/portable/packages/stm32/tools/xpack-arm-none-eabi-gcc/9.2.1-1.1/bin/../lib/gcc/arm-none-eabi/9.2.1/../../../../arm-none-eabi/lib/thumb/v7e-m+fp/hard\libc_nano.a(lib_a-nano-msizer.o)
                              c:/msys64/opt/arduino-1.8.13/portable/packages/stm32/tools/xpack-arm-none-eabi-gcc/9.2.1-1.1/bin/../lib/gcc/arm-none-eabi/9.2.1/../../../../arm-none-eabi/lib/thumb/v7e-m+fp/hard\libc_nano.a(lib_a-nano-reallocr.o) (_malloc_usable_size_r)
c:/msys64/opt/arduino-1.8.13/portable/packages/stm32/tools/xpack-arm-none-eabi-gcc/9.2.1-1.1/bin/../lib/gcc/arm-none-eabi/9.2.1/../../../../arm-none-eabi/lib/thumb/v7e-m+fp/hard\libc_nano.a(lib_a-readr.o)
                              c:/msys64/opt/arduino-1.8.13/portable/packages/stm32/tools/xpack-arm-none-eabi-gcc/9.2.1-1.1/bin/../lib/gcc/arm-none-eabi/9.2.1/../../../../arm-none-eabi/lib/thumb/v7e-m+fp/hard\libc_nano.a(lib_a-stdio.o) (_read_r)
c:/msys64/opt/arduino-1.8.13/portable/packages/stm32/tools/xpack-arm-none-eabi-gcc/9.2.1-1.1/bin/../lib/gcc/arm-none-eabi/9.2.1/thumb/v7e-m+fp/hard\libgcc.a(_arm_muldf3.o)
                              C:\msys64\opt\arduino-1.8.13\portable\sketchbook\arduino\F427ZIT6_SerLed\build\core\core.a(HardwareTimer.cpp.o) (__aeabi_dmul)
c:/msys64/opt/arduino-1.8.13/portable/packages/stm32/tools/xpack-arm-none-eabi-gcc/9.2.1-1.1/bin/../lib/gcc/arm-none-eabi/9.2.1/thumb/v7e-m+fp/hard\libgcc.a(_arm_addsubdf3.o)
                              C:\msys64\opt\arduino-1.8.13\portable\sketchbook\arduino\F427ZIT6_SerLed\build\core\core.a(Print.cpp.o) (__aeabi_dsub)
c:/msys64/opt/arduino-1.8.13/portable/packages/stm32/tools/xpack-arm-none-eabi-gcc/9.2.1-1.1/bin/../lib/gcc/arm-none-eabi/9.2.1/thumb/v7e-m+fp/hard\libgcc.a(_arm_muldivdf3.o)
                              C:\msys64\opt\arduino-1.8.13\portable\sketchbook\arduino\F427ZIT6_SerLed\build\core\core.a(HardwareTimer.cpp.o) (__aeabi_ddiv)
c:/msys64/opt/arduino-1.8.13/portable/packages/stm32/tools/xpack-arm-none-eabi-gcc/9.2.1-1.1/bin/../lib/gcc/arm-none-eabi/9.2.1/thumb/v7e-m+fp/hard\libgcc.a(_arm_cmpdf2.o)
                              c:/msys64/opt/arduino-1.8.13/portable/packages/stm32/tools/xpack-arm-none-eabi-gcc/9.2.1-1.1/bin/../lib/gcc/arm-none-eabi/9.2.1/../../../../arm-none-eabi/lib/thumb/v7e-m+fp/hard\libc_nano.a(lib_a-strtod.o) (__aeabi_dcmpeq)
c:/msys64/opt/arduino-1.8.13/portable/packages/stm32/tools/xpack-arm-none-eabi-gcc/9.2.1-1.1/bin/../lib/gcc/arm-none-eabi/9.2.1/thumb/v7e-m+fp/hard\libgcc.a(_arm_unorddf2.o)
                              C:\msys64\opt\arduino-1.8.13\portable\sketchbook\arduino\F427ZIT6_SerLed\build\core\core.a(Print.cpp.o) (__aeabi_dcmpun)
c:/msys64/opt/arduino-1.8.13/portable/packages/stm32/tools/xpack-arm-none-eabi-gcc/9.2.1-1.1/bin/../lib/gcc/arm-none-eabi/9.2.1/thumb/v7e-m+fp/hard\libgcc.a(_arm_fixdfsi.o)
                              C:\msys64\opt\arduino-1.8.13\portable\sketchbook\arduino\F427ZIT6_SerLed\build\core\core.a(Print.cpp.o) (__aeabi_d2iz)
c:/msys64/opt/arduino-1.8.13/portable/packages/stm32/tools/xpack-arm-none-eabi-gcc/9.2.1-1.1/bin/../lib/gcc/arm-none-eabi/9.2.1/thumb/v7e-m+fp/hard\libgcc.a(_arm_fixunsdfsi.o)
                              C:\msys64\opt\arduino-1.8.13\portable\sketchbook\arduino\F427ZIT6_SerLed\build\core\core.a(HardwareTimer.cpp.o) (__aeabi_d2uiz)
c:/msys64/opt/arduino-1.8.13/portable/packages/stm32/tools/xpack-arm-none-eabi-gcc/9.2.1-1.1/bin/../lib/gcc/arm-none-eabi/9.2.1/thumb/v7e-m+fp/hard\libgcc.a(_arm_truncdfsf2.o)
                              C:\msys64\opt\arduino-1.8.13\portable\sketchbook\arduino\F427ZIT6_SerLed\build\core\core.a(Stream.cpp.o) (__aeabi_d2f)
c:/msys64/opt/arduino-1.8.13/portable/packages/stm32/tools/xpack-arm-none-eabi-gcc/9.2.1-1.1/bin/../lib/gcc/arm-none-eabi/9.2.1/thumb/v7e-m+fp/hard\libgcc.a(_aeabi_ldivmod.o)
                              C:\msys64\opt\arduino-1.8.13\portable\sketchbook\arduino\F427ZIT6_SerLed\build\libraries\SrcWrapper\HAL\stm32yyxx_hal_rcc.c.o (__aeabi_ldivmod)
c:/msys64/opt/arduino-1.8.13/portable/packages/stm32/tools/xpack-arm-none-eabi-gcc/9.2.1-1.1/bin/../lib/gcc/arm-none-eabi/9.2.1/thumb/v7e-m+fp/hard\libgcc.a(_aeabi_uldivmod.o)
                              C:\msys64\opt\arduino-1.8.13\portable\sketchbook\arduino\F427ZIT6_SerLed\build\libraries\SrcWrapper\HAL\stm32yyxx_hal_rcc.c.o (__aeabi_uldivmod)
c:/msys64/opt/arduino-1.8.13/portable/packages/stm32/tools/xpack-arm-none-eabi-gcc/9.2.1-1.1/bin/../lib/gcc/arm-none-eabi/9.2.1/thumb/v7e-m+fp/hard\libgcc.a(_fixdfdi.o)
                              c:/msys64/opt/arduino-1.8.13/portable/packages/stm32/tools/xpack-arm-none-eabi-gcc/9.2.1-1.1/bin/../lib/gcc/arm-none-eabi/9.2.1/../../../../arm-none-eabi/lib/thumb/v7e-m+fp/hard\libc_nano.a(lib_a-strtod.o) (__aeabi_d2lz)
c:/msys64/opt/arduino-1.8.13/portable/packages/stm32/tools/xpack-arm-none-eabi-gcc/9.2.1-1.1/bin/../lib/gcc/arm-none-eabi/9.2.1/thumb/v7e-m+fp/hard\libgcc.a(_fixunsdfdi.o)
                              c:/msys64/opt/arduino-1.8.13/portable/packages/stm32/tools/xpack-arm-none-eabi-gcc/9.2.1-1.1/bin/../lib/gcc/arm-none-eabi/9.2.1/thumb/v7e-m+fp/hard\libgcc.a(_fixdfdi.o) (__aeabi_d2ulz)
c:/msys64/opt/arduino-1.8.13/portable/packages/stm32/tools/xpack-arm-none-eabi-gcc/9.2.1-1.1/bin/../lib/gcc/arm-none-eabi/9.2.1/thumb/v7e-m+fp/hard\libgcc.a(_udivmoddi4.o)
                              c:/msys64/opt/arduino-1.8.13/portable/packages/stm32/tools/xpack-arm-none-eabi-gcc/9.2.1-1.1/bin/../lib/gcc/arm-none-eabi/9.2.1/thumb/v7e-m+fp/hard\libgcc.a(_aeabi_ldivmod.o) (__udivmoddi4)
c:/msys64/opt/arduino-1.8.13/portable/packages/stm32/tools/xpack-arm-none-eabi-gcc/9.2.1-1.1/bin/../lib/gcc/arm-none-eabi/9.2.1/thumb/v7e-m+fp/hard\libgcc.a(_dvmd_tls.o)
                              c:/msys64/opt/arduino-1.8.13/portable/packages/stm32/tools/xpack-arm-none-eabi-gcc/9.2.1-1.1/bin/../lib/gcc/arm-none-eabi/9.2.1/thumb/v7e-m+fp/hard\libgcc.a(_aeabi_ldivmod.o) (__aeabi_ldiv0)
c:/msys64/opt/arduino-1.8.13/portable/packages/stm32/tools/xpack-arm-none-eabi-gcc/9.2.1-1.1/bin/../lib/gcc/arm-none-eabi/9.2.1/../../../../arm-none-eabi/lib/thumb/v7e-m+fp/hard\libstdc++_nano.a(functional.o)
                              C:\msys64\opt\arduino-1.8.13\portable\sketchbook\arduino\F427ZIT6_SerLed\build\core\core.a(HardwareTimer.cpp.o) (std::__throw_bad_function_call())
c:/msys64/opt/arduino-1.8.13/portable/packages/stm32/tools/xpack-arm-none-eabi-gcc/9.2.1-1.1/bin/../lib/gcc/arm-none-eabi/9.2.1/../../../../arm-none-eabi/lib/thumb/v7e-m+fp/hard\libstdc++_nano.a(eh_exception.o)
                              c:/msys64/opt/arduino-1.8.13/portable/packages/stm32/tools/xpack-arm-none-eabi-gcc/9.2.1-1.1/bin/../lib/gcc/arm-none-eabi/9.2.1/../../../../arm-none-eabi/lib/thumb/v7e-m+fp/hard\libstdc++_nano.a(functional.o) (std::exception::~exception())
c:/msys64/opt/arduino-1.8.13/portable/packages/stm32/tools/xpack-arm-none-eabi-gcc/9.2.1-1.1/bin/../lib/gcc/arm-none-eabi/9.2.1/../../../../arm-none-eabi/lib/thumb/v7e-m+fp/hard\libstdc++_nano.a(si_class_type_info.o)
                              c:/msys64/opt/arduino-1.8.13/portable/packages/stm32/tools/xpack-arm-none-eabi-gcc/9.2.1-1.1/bin/../lib/gcc/arm-none-eabi/9.2.1/../../../../arm-none-eabi/lib/thumb/v7e-m+fp/hard\libstdc++_nano.a(functional.o) (vtable for __cxxabiv1::__si_class_type_info)
c:/msys64/opt/arduino-1.8.13/portable/packages/stm32/tools/xpack-arm-none-eabi-gcc/9.2.1-1.1/bin/../lib/gcc/arm-none-eabi/9.2.1/../../../../arm-none-eabi/lib/thumb/v7e-m+fp/hard\libstdc++_nano.a(tinfo.o)
                              c:/msys64/opt/arduino-1.8.13/portable/packages/stm32/tools/xpack-arm-none-eabi-gcc/9.2.1-1.1/bin/../lib/gcc/arm-none-eabi/9.2.1/../../../../arm-none-eabi/lib/thumb/v7e-m+fp/hard\libstdc++_nano.a(si_class_type_info.o) (std::type_info::__is_pointer_p() const)
c:/msys64/opt/arduino-1.8.13/portable/packages/stm32/tools/xpack-arm-none-eabi-gcc/9.2.1-1.1/bin/../lib/gcc/arm-none-eabi/9.2.1/../../../../arm-none-eabi/lib/thumb/v7e-m+fp/hard\libstdc++_nano.a(class_type_info.o)
                              c:/msys64/opt/arduino-1.8.13/portable/packages/stm32/tools/xpack-arm-none-eabi-gcc/9.2.1-1.1/bin/../lib/gcc/arm-none-eabi/9.2.1/../../../../arm-none-eabi/lib/thumb/v7e-m+fp/hard\libstdc++_nano.a(si_class_type_info.o) (__cxxabiv1::__class_type_info::__do_upcast(__cxxabiv1::__class_type_info const*, void**) const)
c:/msys64/opt/arduino-1.8.13/portable/packages/stm32/tools/xpack-arm-none-eabi-gcc/9.2.1-1.1/bin/../lib/gcc/arm-none-eabi/9.2.1/../../../../arm-none-eabi/lib/thumb/v7e-m+fp/hard\libc_nano.a(lib_a-abort.o)
                              c:/msys64/opt/arduino-1.8.13/portable/packages/stm32/tools/xpack-arm-none-eabi-gcc/9.2.1-1.1/bin/../lib/gcc/arm-none-eabi/9.2.1/../../../../arm-none-eabi/lib/thumb/v7e-m+fp/hard\libstdc++_nano.a(functional.o) (abort)
c:/msys64/opt/arduino-1.8.13/portable/packages/stm32/tools/xpack-arm-none-eabi-gcc/9.2.1-1.1/bin/../lib/gcc/arm-none-eabi/9.2.1/../../../../arm-none-eabi/lib/thumb/v7e-m+fp/hard\libc_nano.a(lib_a-signal.o)
                              c:/msys64/opt/arduino-1.8.13/portable/packages/stm32/tools/xpack-arm-none-eabi-gcc/9.2.1-1.1/bin/../lib/gcc/arm-none-eabi/9.2.1/../../../../arm-none-eabi/lib/thumb/v7e-m+fp/hard\libc_nano.a(lib_a-abort.o) (raise)
c:/msys64/opt/arduino-1.8.13/portable/packages/stm32/tools/xpack-arm-none-eabi-gcc/9.2.1-1.1/bin/../lib/gcc/arm-none-eabi/9.2.1/../../../../arm-none-eabi/lib/thumb/v7e-m+fp/hard\libc_nano.a(lib_a-signalr.o)
                              c:/msys64/opt/arduino-1.8.13/portable/packages/stm32/tools/xpack-arm-none-eabi-gcc/9.2.1-1.1/bin/../lib/gcc/arm-none-eabi/9.2.1/../../../../arm-none-eabi/lib/thumb/v7e-m+fp/hard\libc_nano.a(lib_a-signal.o) (_kill_r)

Allocating common symbols
Common symbol       size              file

__lock___atexit_recursive_mutex
                    0x1               c:/msys64/opt/arduino-1.8.13/portable/packages/stm32/tools/xpack-arm-none-eabi-gcc/9.2.1-1.1/bin/../lib/gcc/arm-none-eabi/9.2.1/../../../../arm-none-eabi/lib/thumb/v7e-m+fp/hard\libc_nano.a(lib_a-lock.o)
__lock___arc4random_mutex
                    0x1               c:/msys64/opt/arduino-1.8.13/portable/packages/stm32/tools/xpack-arm-none-eabi-gcc/9.2.1-1.1/bin/../lib/gcc/arm-none-eabi/9.2.1/../../../../arm-none-eabi/lib/thumb/v7e-m+fp/hard\libc_nano.a(lib_a-lock.o)
errno               0x4               c:/msys64/opt/arduino-1.8.13/portable/packages/stm32/tools/xpack-arm-none-eabi-gcc/9.2.1-1.1/bin/../lib/gcc/arm-none-eabi/9.2.1/../../../../arm-none-eabi/lib/thumb/v7e-m+fp/hard\libc_nano.a(lib_a-reent.o)
uwTick              0x4               C:\msys64\opt\arduino-1.8.13\portable\sketchbook\arduino\F427ZIT6_SerLed\build\libraries\SrcWrapper\HAL\stm32yyxx_hal.c.o
pFlash              0x20              C:\msys64\opt\arduino-1.8.13\portable\sketchbook\arduino\F427ZIT6_SerLed\build\libraries\SrcWrapper\HAL\stm32yyxx_hal_flash.c.o
__lock___env_recursive_mutex
                    0x1               c:/msys64/opt/arduino-1.8.13/portable/packages/stm32/tools/xpack-arm-none-eabi-gcc/9.2.1-1.1/bin/../lib/gcc/arm-none-eabi/9.2.1/../../../../arm-none-eabi/lib/thumb/v7e-m+fp/hard\libc_nano.a(lib_a-lock.o)
__lock___sinit_recursive_mutex
                    0x1               c:/msys64/opt/arduino-1.8.13/portable/packages/stm32/tools/xpack-arm-none-eabi-gcc/9.2.1-1.1/bin/../lib/gcc/arm-none-eabi/9.2.1/../../../../arm-none-eabi/lib/thumb/v7e-m+fp/hard\libc_nano.a(lib_a-lock.o)
__lock___malloc_recursive_mutex
                    0x1               c:/msys64/opt/arduino-1.8.13/portable/packages/stm32/tools/xpack-arm-none-eabi-gcc/9.2.1-1.1/bin/../lib/gcc/arm-none-eabi/9.2.1/../../../../arm-none-eabi/lib/thumb/v7e-m+fp/hard\libc_nano.a(lib_a-lock.o)
__lock___at_quick_exit_mutex
                    0x1               c:/msys64/opt/arduino-1.8.13/portable/packages/stm32/tools/xpack-arm-none-eabi-gcc/9.2.1-1.1/bin/../lib/gcc/arm-none-eabi/9.2.1/../../../../arm-none-eabi/lib/thumb/v7e-m+fp/hard\libc_nano.a(lib_a-lock.o)
__lock___dd_hash_mutex
                    0x1               c:/msys64/opt/arduino-1.8.13/portable/packages/stm32/tools/xpack-arm-none-eabi-gcc/9.2.1-1.1/bin/../lib/gcc/arm-none-eabi/9.2.1/../../../../arm-none-eabi/lib/thumb/v7e-m+fp/hard\libc_nano.a(lib_a-lock.o)
__lock___tz_mutex   0x1               c:/msys64/opt/arduino-1.8.13/portable/packages/stm32/tools/xpack-arm-none-eabi-gcc/9.2.1-1.1/bin/../lib/gcc/arm-none-eabi/9.2.1/../../../../arm-none-eabi/lib/thumb/v7e-m+fp/hard\libc_nano.a(lib_a-lock.o)
__lock___sfp_recursive_mutex
                    0x1               c:/msys64/opt/arduino-1.8.13/portable/packages/stm32/tools/xpack-arm-none-eabi-gcc/9.2.1-1.1/bin/../lib/gcc/arm-none-eabi/9.2.1/../../../../arm-none-eabi/lib/thumb/v7e-m+fp/hard\libc_nano.a(lib_a-lock.o)

Discarded input sections

 .text          0x00000000        0x0 c:/msys64/opt/arduino-1.8.13/portable/packages/stm32/tools/xpack-arm-none-eabi-gcc/9.2.1-1.1/bin/../lib/gcc/arm-none-eabi/9.2.1/thumb/v7e-m+fp/hard/crti.o
 .data          0x00000000        0x0 c:/msys64/opt/arduino-1.8.13/portable/packages/stm32/tools/xpack-arm-none-eabi-gcc/9.2.1-1.1/bin/../lib/gcc/arm-none-eabi/9.2.1/thumb/v7e-m+fp/hard/crti.o
 .bss           0x00000000        0x0 c:/msys64/opt/arduino-1.8.13/portable/packages/stm32/tools/xpack-arm-none-eabi-gcc/9.2.1-1.1/bin/../lib/gcc/arm-none-eabi/9.2.1/thumb/v7e-m+fp/hard/crti.o
 .text          0x00000000        0x0 c:/msys64/opt/arduino-1.8.13/portable/packages/stm32/tools/xpack-arm-none-eabi-gcc/9.2.1-1.1/bin/../lib/gcc/arm-none-eabi/9.2.1/thumb/v7e-m+fp/hard/crtbegin.o
 .data          0x00000000        0x0 c:/msys64/opt/arduino-1.8.13/portable/packages/stm32/tools/xpack-arm-none-eabi-gcc/9.2.1-1.1/bin/../lib/gcc/arm-none-eabi/9.2.1/thumb/v7e-m+fp/hard/crtbegin.o
 .bss           0x00000000        0x0 c:/msys64/opt/arduino-1.8.13/portable/packages/stm32/tools/xpack-arm-none-eabi-gcc/9.2.1-1.1/bin/../lib/gcc/arm-none-eabi/9.2.1/thumb/v7e-m+fp/hard/crtbegin.o
 .data.__dso_handle
                0x00000000        0x4 c:/msys64/opt/arduino-1.8.13/portable/packages/stm32/tools/xpack-arm-none-eabi-gcc/9.2.1-1.1/bin/../lib/gcc/arm-none-eabi/9.2.1/thumb/v7e-m+fp/hard/crtbegin.o
 .text          0x00000000       0x74 c:/msys64/opt/arduino-1.8.13/portable/packages/stm32/tools/xpack-arm-none-eabi-gcc/9.2.1-1.1/bin/../lib/gcc/arm-none-eabi/9.2.1/../../../../arm-none-eabi/lib/thumb/v7e-m+fp/hard/crt0.o
 .data          0x00000000        0x0 c:/msys64/opt/arduino-1.8.13/portable/packages/stm32/tools/xpack-arm-none-eabi-gcc/9.2.1-1.1/bin/../lib/gcc/arm-none-eabi/9.2.1/../../../../arm-none-eabi/lib/thumb/v7e-m+fp/hard/crt0.o
 .bss           0x00000000        0x0 c:/msys64/opt/arduino-1.8.13/portable/packages/stm32/tools/xpack-arm-none-eabi-gcc/9.2.1-1.1/bin/../lib/gcc/arm-none-eabi/9.2.1/../../../../arm-none-eabi/lib/thumb/v7e-m+fp/hard/crt0.o
 .ARM.extab     0x00000000        0x0 c:/msys64/opt/arduino-1.8.13/portable/packages/stm32/tools/xpack-arm-none-eabi-gcc/9.2.1-1.1/bin/../lib/gcc/arm-none-eabi/9.2.1/../../../../arm-none-eabi/lib/thumb/v7e-m+fp/hard/crt0.o
 .ARM.exidx     0x00000000        0x8 c:/msys64/opt/arduino-1.8.13/portable/packages/stm32/tools/xpack-arm-none-eabi-gcc/9.2.1-1.1/bin/../lib/gcc/arm-none-eabi/9.2.1/../../../../arm-none-eabi/lib/thumb/v7e-m+fp/hard/crt0.o
 .ARM.attributes
                0x00000000       0x1c c:/msys64/opt/arduino-1.8.13/portable/packages/stm32/tools/xpack-arm-none-eabi-gcc/9.2.1-1.1/bin/../lib/gcc/arm-none-eabi/9.2.1/../../../../arm-none-eabi/lib/thumb/v7e-m+fp/hard/crt0.o
 .text          0x00000000        0x0 C:\msys64\opt\arduino-1.8.13\portable\sketchbook\arduino\F427ZIT6_SerLed\build\sketch\F427ZIT6_SerLed.ino.cpp.o
 .data          0x00000000        0x0 C:\msys64\opt\arduino-1.8.13\portable\sketchbook\arduino\F427ZIT6_SerLed\build\sketch\F427ZIT6_SerLed.ino.cpp.o
 .bss           0x00000000        0x0 C:\msys64\opt\arduino-1.8.13\portable\sketchbook\arduino\F427ZIT6_SerLed\build\sketch\F427ZIT6_SerLed.ino.cpp.o
Memory Configuration

Name             Origin             Length             Attributes
FLASH            0x08000000         0x00200000         xr
RAM              0x20000000         0x00030000         xrw
CCMRAM           0x10000000         0x00010000         rw
MEMORY_ARRAY     0x10000000         0x00000144         rw
*default*        0x00000000         0xffffffff

Linker script and memory map

LOAD c:/msys64/opt/arduino-1.8.13/portable/packages/stm32/tools/xpack-arm-none-eabi-gcc/9.2.1-1.1/bin/../lib/gcc/arm-none-eabi/9.2.1/thumb/v7e-m+fp/hard/crti.o
LOAD c:/msys64/opt/arduino-1.8.13/portable/packages/stm32/tools/xpack-arm-none-eabi-gcc/9.2.1-1.1/bin/../lib/gcc/arm-none-eabi/9.2.1/thumb/v7e-m+fp/hard/crtbegin.o
LOAD c:/msys64/opt/arduino-1.8.13/portable/packages/stm32/tools/xpack-arm-none-eabi-gcc/9.2.1-1.1/bin/../lib/gcc/arm-none-eabi/9.2.1/../../../../arm-none-eabi/lib/thumb/v7e-m+fp/hard/crt0.o
                0x00000000                LD_FLASH_OFFSET = 0x0
                0x00200000                LD_MAX_SIZE = 0x200000
                0x00040000                LD_MAX_DATA_SIZE = 0x40000
LOAD C:\msys64\opt\arduino-1.8.13\portable\packages\STM32\tools\CMSIS\5.5.1/CMSIS/DSP/Lib/GCC/\libarm_cortexM4l_math.a
START GROUP
LOAD C:\msys64\opt\arduino-1.8.13\portable\sketchbook\arduino\F427ZIT6_SerLed\build\sketch\F427ZIT6_SerLed.ino.cpp.o
LOAD C:\msys64\opt\arduino-1.8.13\portable\sketchbook\arduino\F427ZIT6_SerLed\build\sketch\SrcWrapper.cpp.o
LOAD C:\msys64\opt\arduino-1.8.13\portable\sketchbook\arduino\F427ZIT6_SerLed\build\libraries\SrcWrapper\syscalls.c.o
LOAD C:\msys64\opt\arduino-1.8.13\portable\sketchbook\arduino\F427ZIT6_SerLed\build\libraries\SrcWrapper\HAL\stm32yyxx_hal.c.o
LOAD C:\msys64\opt\arduino-1.8.13\portable\sketchbook\arduino\F427ZIT6_SerLed\build\libraries\SrcWrapper\HAL\stm32yyxx_hal_adc.c.o
LOAD C:\msys64\opt\arduino-1.8.13\portable\sketchbook\arduino\F427ZIT6_SerLed\build\libraries\SrcWrapper\HAL\stm32yyxx_hal_adc_ex.c.o
LOAD C:\msys64\opt\arduino-1.8.13\portable\sketchbook\arduino\F427ZIT6_SerLed\build\libraries\SrcWrapper\HAL\stm32yyxx_hal_can.c.o
LOAD C:\msys64\opt\arduino-1.8.13\portable\sketchbook\arduino\F427ZIT6_SerLed\build\libraries\SrcWrapper\HAL\stm32yyxx_hal_cec.c.o
LOAD C:\msys64\opt\arduino-1.8.13\portable\sketchbook\arduino\F427ZIT6_SerLed\build\libraries\SrcWrapper\HAL\stm32yyxx_hal_comp.c.o
LOAD C:\msys64\opt\arduino-1.8.13\portable\sketchbook\arduino\F427ZIT6_SerLed\build\libraries\SrcWrapper\HAL\stm32yyxx_hal_comp_ex.c.o
LOAD C:\msys64\opt\arduino-1.8.13\portable\sketchbook\arduino\F427ZIT6_SerLed\build\libraries\SrcWrapper\HAL\stm32yyxx_hal_cordic.c.o
LOAD C:\msys64\opt\arduino-1.8.13\portable\sketchbook\arduino\F427ZIT6_SerLed\build\libraries\SrcWrapper\HAL\stm32yyxx_hal_cortex.c.o
LOAD C:\msys64\opt\arduino-1.8.13\portable\sketchbook\arduino\F427ZIT6_SerLed\build\libraries\SrcWrapper\HAL\stm32yyxx_hal_crc.c.o
LOAD C:\msys64\opt\arduino-1.8.13\portable\sketchbook\arduino\F427ZIT6_SerLed\build\libraries\SrcWrapper\HAL\stm32yyxx_hal_crc_ex.c.o
LOAD C:\msys64\opt\arduino-1.8.13\portable\sketchbook\arduino\F427ZIT6_SerLed\build\libraries\SrcWrapper\HAL\stm32yyxx_hal_cryp.c.o
LOAD C:\msys64\opt\arduino-1.8.13\portable\sketchbook\arduino\F427ZIT6_SerLed\build\libraries\SrcWrapper\HAL\stm32yyxx_hal_cryp_ex.c.o
LOAD C:\msys64\opt\arduino-1.8.13\portable\sketchbook\arduino\F427ZIT6_SerLed\build\libraries\SrcWrapper\HAL\stm32yyxx_hal_dac.c.o
LOAD C:\msys64\opt\arduino-1.8.13\portable\sketchbook\arduino\F427ZIT6_SerLed\build\libraries\SrcWrapper\HAL\stm32yyxx_hal_dac_ex.c.o
LOAD C:\msys64\opt\arduino-1.8.13\portable\sketchbook\arduino\F427ZIT6_SerLed\build\libraries\SrcWrapper\HAL\stm32yyxx_hal_dcmi.c.o
LOAD C:\msys64\opt\arduino-1.8.13\portable\sketchbook\arduino\F427ZIT6_SerLed\build\libraries\SrcWrapper\HAL\stm32yyxx_hal_dcmi_ex.c.o
LOAD C:\msys64\opt\arduino-1.8.13\portable\sketchbook\arduino\F427ZIT6_SerLed\build\libraries\SrcWrapper\HAL\stm32yyxx_hal_dfsdm.c.o
LOAD C:\msys64\opt\arduino-1.8.13\portable\sketchbook\arduino\F427ZIT6_SerLed\build\libraries\SrcWrapper\HAL\stm32yyxx_hal_dfsdm_ex.c.o
LOAD C:\msys64\opt\arduino-1.8.13\portable\sketchbook\arduino\F427ZIT6_SerLed\build\libraries\SrcWrapper\HAL\stm32yyxx_hal_dma.c.o
LOAD C:\msys64\opt\arduino-1.8.13\portable\sketchbook\arduino\F427ZIT6_SerLed\build\libraries\SrcWrapper\HAL\stm32yyxx_hal_dma2d.c.o
LOAD C:\msys64\opt\arduino-1.8.13\portable\sketchbook\arduino\F427ZIT6_SerLed\build\libraries\SrcWrapper\HAL\stm32yyxx_hal_dma_ex.c.o
LOAD C:\msys64\opt\arduino-1.8.13\portable\sketchbook\arduino\F427ZIT6_SerLed\build\libraries\SrcWrapper\HAL\stm32yyxx_hal_dsi.c.o
LOAD C:\msys64\opt\arduino-1.8.13\portable\sketchbook\arduino\F427ZIT6_SerLed\build\libraries\SrcWrapper\HAL\stm32yyxx_hal_dts.c.o
LOAD C:\msys64\opt\arduino-1.8.13\portable\sketchbook\arduino\F427ZIT6_SerLed\build\libraries\SrcWrapper\HAL\stm32yyxx_hal_eth.c.o
LOAD C:\msys64\opt\arduino-1.8.13\portable\sketchbook\arduino\F427ZIT6_SerLed\build\libraries\SrcWrapper\HAL\stm32yyxx_hal_eth_ex.c.o
LOAD C:\msys64\opt\arduino-1.8.13\portable\sketchbook\arduino\F427ZIT6_SerLed\build\libraries\SrcWrapper\HAL\stm32yyxx_hal_exti.c.o
LOAD C:\msys64\opt\arduino-1.8.13\portable\sketchbook\arduino\F427ZIT6_SerLed\build\libraries\SrcWrapper\HAL\stm32yyxx_hal_fdcan.c.o
LOAD C:\msys64\opt\arduino-1.8.13\portable\sketchbook\arduino\F427ZIT6_SerLed\build\libraries\SrcWrapper\HAL\stm32yyxx_hal_firewall.c.o
LOAD C:\msys64\opt\arduino-1.8.13\portable\sketchbook\arduino\F427ZIT6_SerLed\build\libraries\SrcWrapper\HAL\stm32yyxx_hal_flash.c.o
LOAD C:\msys64\opt\arduino-1.8.13\portable\sketchbook\arduino\F427ZIT6_SerLed\build\libraries\SrcWrapper\HAL\stm32yyxx_hal_flash_ex.c.o
LOAD C:\msys64\opt\arduino-1.8.13\portable\sketchbook\arduino\F427ZIT6_SerLed\build\libraries\SrcWrapper\HAL\stm32yyxx_hal_flash_ramfunc.c.o
LOAD C:\msys64\opt\arduino-1.8.13\portable\sketchbook\arduino\F427ZIT6_SerLed\build\libraries\SrcWrapper\HAL\stm32yyxx_hal_fmac.c.o
LOAD C:\msys64\opt\arduino-1.8.13\portable\sketchbook\arduino\F427ZIT6_SerLed\build\libraries\SrcWrapper\HAL\stm32yyxx_hal_fmpi2c.c.o
LOAD C:\msys64\opt\arduino-1.8.13\portable\sketchbook\arduino\F427ZIT6_SerLed\build\libraries\SrcWrapper\HAL\stm32yyxx_hal_fmpi2c_ex.c.o
LOAD C:\msys64\opt\arduino-1.8.13\portable\sketchbook\arduino\F427ZIT6_SerLed\build\libraries\SrcWrapper\HAL\stm32yyxx_hal_gfxmmu.c.o
LOAD C:\msys64\opt\arduino-1.8.13\portable\sketchbook\arduino\F427ZIT6_SerLed\build\libraries\SrcWrapper\HAL\stm32yyxx_hal_gpio.c.o
LOAD C:\msys64\opt\arduino-1.8.13\portable\sketchbook\arduino\F427ZIT6_SerLed\build\libraries\SrcWrapper\HAL\stm32yyxx_hal_gpio_ex.c.o
LOAD C:\msys64\opt\arduino-1.8.13\portable\sketchbook\arduino\F427ZIT6_SerLed\build\libraries\SrcWrapper\HAL\stm32yyxx_hal_hash.c.o
LOAD C:\msys64\opt\arduino-1.8.13\portable\sketchbook\arduino\F427ZIT6_SerLed\build\libraries\SrcWrapper\HAL\stm32yyxx_hal_hash_ex.c.o
LOAD C:\msys64\opt\arduino-1.8.13\portable\sketchbook\arduino\F427ZIT6_SerLed\build\libraries\SrcWrapper\HAL\stm32yyxx_hal_hcd.c.o
LOAD C:\msys64\opt\arduino-1.8.13\portable\sketchbook\arduino\F427ZIT6_SerLed\build\libraries\SrcWrapper\HAL\stm32yyxx_hal_hrtim.c.o
LOAD C:\msys64\opt\arduino-1.8.13\portable\sketchbook\arduino\F427ZIT6_SerLed\build\libraries\SrcWrapper\HAL\stm32yyxx_hal_hsem.c.o
LOAD C:\msys64\opt\arduino-1.8.13\portable\sketchbook\arduino\F427ZIT6_SerLed\build\libraries\SrcWrapper\HAL\stm32yyxx_hal_i2c.c.o
LOAD C:\msys64\opt\arduino-1.8.13\portable\sketchbook\arduino\F427ZIT6_SerLed\build\libraries\SrcWrapper\HAL\stm32yyxx_hal_i2c_ex.c.o
LOAD C:\msys64\opt\arduino-1.8.13\portable\sketchbook\arduino\F427ZIT6_SerLed\build\libraries\SrcWrapper\HAL\stm32yyxx_hal_i2s.c.o
LOAD C:\msys64\opt\arduino-1.8.13\portable\sketchbook\arduino\F427ZIT6_SerLed\build\libraries\SrcWrapper\HAL\stm32yyxx_hal_i2s_ex.c.o
LOAD C:\msys64\opt\arduino-1.8.13\portable\sketchbook\arduino\F427ZIT6_SerLed\build\libraries\SrcWrapper\HAL\stm32yyxx_hal_ipcc.c.o
LOAD C:\msys64\opt\arduino-1.8.13\portable\sketchbook\arduino\F427ZIT6_SerLed\build\libraries\SrcWrapper\HAL\stm32yyxx_hal_irda.c.o
LOAD C:\msys64\opt\arduino-1.8.13\portable\sketchbook\arduino\F427ZIT6_SerLed\build\libraries\SrcWrapper\HAL\stm32yyxx_hal_iwdg.c.o
LOAD C:\msys64\opt\arduino-1.8.13\portable\sketchbook\arduino\F427ZIT6_SerLed\build\libraries\SrcWrapper\HAL\stm32yyxx_hal_jpeg.c.o
LOAD C:\msys64\opt\arduino-1.8.13\portable\sketchbook\arduino\F427ZIT6_SerLed\build\libraries\SrcWrapper\HAL\stm32yyxx_hal_lcd.c.o
LOAD C:\msys64\opt\arduino-1.8.13\portable\sketchbook\arduino\F427ZIT6_SerLed\build\libraries\SrcWrapper\HAL\stm32yyxx_hal_lptim.c.o
LOAD C:\msys64\opt\arduino-1.8.13\portable\sketchbook\arduino\F427ZIT6_SerLed\build\libraries\SrcWrapper\HAL\stm32yyxx_hal_ltdc.c.o
LOAD C:\msys64\opt\arduino-1.8.13\portable\sketchbook\arduino\F427ZIT6_SerLed\build\libraries\SrcWrapper\HAL\stm32yyxx_hal_ltdc_ex.c.o
LOAD C:\msys64\opt\arduino-1.8.13\portable\sketchbook\arduino\F427ZIT6_SerLed\build\libraries\SrcWrapper\HAL\stm32yyxx_hal_mdios.c.o
LOAD C:\msys64\opt\arduino-1.8.13\portable\sketchbook\arduino\F427ZIT6_SerLed\build\libraries\SrcWrapper\HAL\stm32yyxx_hal_mdma.c.o
LOAD C:\msys64\opt\arduino-1.8.13\portable\sketchbook\arduino\F427ZIT6_SerLed\build\libraries\SrcWrapper\HAL\stm32yyxx_hal_mmc.c.o
LOAD C:\msys64\opt\arduino-1.8.13\portable\sketchbook\arduino\F427ZIT6_SerLed\build\libraries\SrcWrapper\HAL\stm32yyxx_hal_mmc_ex.c.o
LOAD C:\msys64\opt\arduino-1.8.13\portable\sketchbook\arduino\F427ZIT6_SerLed\build\libraries\SrcWrapper\HAL\stm32yyxx_hal_nand.c.o
LOAD C:\msys64\opt\arduino-1.8.13\portable\sketchbook\arduino\F427ZIT6_SerLed\build\libraries\SrcWrapper\HAL\stm32yyxx_hal_nor.c.o
LOAD C:\msys64\opt\arduino-1.8.13\portable\sketchbook\arduino\F427ZIT6_SerLed\build\libraries\SrcWrapper\HAL\stm32yyxx_hal_opamp.c.o
LOAD C:\msys64\opt\arduino-1.8.13\portable\sketchbook\arduino\F427ZIT6_SerLed\build\libraries\SrcWrapper\HAL\stm32yyxx_hal_opamp_ex.c.o
LOAD C:\msys64\opt\arduino-1.8.13\portable\sketchbook\arduino\F427ZIT6_SerLed\build\libraries\SrcWrapper\HAL\stm32yyxx_hal_ospi.c.o
LOAD C:\msys64\opt\arduino-1.8.13\portable\sketchbook\arduino\F427ZIT6_SerLed\build\libraries\SrcWrapper\HAL\stm32yyxx_hal_otfdec.c.o
LOAD C:\msys64\opt\arduino-1.8.13\portable\sketchbook\arduino\F427ZIT6_SerLed\build\libraries\SrcWrapper\HAL\stm32yyxx_hal_pccard.c.o
LOAD C:\msys64\opt\arduino-1.8.13\portable\sketchbook\arduino\F427ZIT6_SerLed\build\libraries\SrcWrapper\HAL\stm32yyxx_hal_pcd.c.o
LOAD C:\msys64\opt\arduino-1.8.13\portable\sketchbook\arduino\F427ZIT6_SerLed\build\libraries\SrcWrapper\HAL\stm32yyxx_hal_pcd_ex.c.o
LOAD C:\msys64\opt\arduino-1.8.13\portable\sketchbook\arduino\F427ZIT6_SerLed\build\libraries\SrcWrapper\HAL\stm32yyxx_hal_pka.c.o
LOAD C:\msys64\opt\arduino-1.8.13\portable\sketchbook\arduino\F427ZIT6_SerLed\build\libraries\SrcWrapper\HAL\stm32yyxx_hal_pssi.c.o
LOAD C:\msys64\opt\arduino-1.8.13\portable\sketchbook\arduino\F427ZIT6_SerLed\build\libraries\SrcWrapper\HAL\stm32yyxx_hal_pwr.c.o
LOAD C:\msys64\opt\arduino-1.8.13\portable\sketchbook\arduino\F427ZIT6_SerLed\build\libraries\SrcWrapper\HAL\stm32yyxx_hal_pwr_ex.c.o
LOAD C:\msys64\opt\arduino-1.8.13\portable\sketchbook\arduino\F427ZIT6_SerLed\build\libraries\SrcWrapper\HAL\stm32yyxx_hal_qspi.c.o
LOAD C:\msys64\opt\arduino-1.8.13\portable\sketchbook\arduino\F427ZIT6_SerLed\build\libraries\SrcWrapper\HAL\stm32yyxx_hal_ramecc.c.o
LOAD C:\msys64\opt\arduino-1.8.13\portable\sketchbook\arduino\F427ZIT6_SerLed\build\libraries\SrcWrapper\HAL\stm32yyxx_hal_rcc.c.o
LOAD C:\msys64\opt\arduino-1.8.13\portable\sketchbook\arduino\F427ZIT6_SerLed\build\libraries\SrcWrapper\HAL\stm32yyxx_hal_rcc_ex.c.o
LOAD C:\msys64\opt\arduino-1.8.13\portable\sketchbook\arduino\F427ZIT6_SerLed\build\libraries\SrcWrapper\HAL\stm32yyxx_hal_rng.c.o
LOAD C:\msys64\opt\arduino-1.8.13\portable\sketchbook\arduino\F427ZIT6_SerLed\build\libraries\SrcWrapper\HAL\stm32yyxx_hal_rng_ex.c.o
LOAD C:\msys64\opt\arduino-1.8.13\portable\sketchbook\arduino\F427ZIT6_SerLed\build\libraries\SrcWrapper\HAL\stm32yyxx_hal_rtc.c.o
LOAD C:\msys64\opt\arduino-1.8.13\portable\sketchbook\arduino\F427ZIT6_SerLed\build\libraries\SrcWrapper\HAL\stm32yyxx_hal_rtc_ex.c.o
LOAD C:\msys64\opt\arduino-1.8.13\portable\sketchbook\arduino\F427ZIT6_SerLed\build\libraries\SrcWrapper\HAL\stm32yyxx_hal_sai.c.o
LOAD C:\msys64\opt\arduino-1.8.13\portable\sketchbook\arduino\F427ZIT6_SerLed\build\libraries\SrcWrapper\HAL\stm32yyxx_hal_sai_ex.c.o
LOAD C:\msys64\opt\arduino-1.8.13\portable\sketchbook\arduino\F427ZIT6_SerLed\build\libraries\SrcWrapper\HAL\stm32yyxx_hal_sd.c.o
LOAD C:\msys64\opt\arduino-1.8.13\portable\sketchbook\arduino\F427ZIT6_SerLed\build\libraries\SrcWrapper\HAL\stm32yyxx_hal_sd_ex.c.o
LOAD C:\msys64\opt\arduino-1.8.13\portable\sketchbook\arduino\F427ZIT6_SerLed\build\libraries\SrcWrapper\HAL\stm32yyxx_hal_sdadc.c.o
LOAD C:\msys64\opt\arduino-1.8.13\portable\sketchbook\arduino\F427ZIT6_SerLed\build\libraries\SrcWrapper\HAL\stm32yyxx_hal_sdram.c.o
LOAD C:\msys64\opt\arduino-1.8.13\portable\sketchbook\arduino\F427ZIT6_SerLed\build\libraries\SrcWrapper\HAL\stm32yyxx_hal_smartcard.c.o
LOAD C:\msys64\opt\arduino-1.8.13\portable\sketchbook\arduino\F427ZIT6_SerLed\build\libraries\SrcWrapper\HAL\stm32yyxx_hal_smartcard_ex.c.o
LOAD C:\msys64\opt\arduino-1.8.13\portable\sketchbook\arduino\F427ZIT6_SerLed\build\libraries\SrcWrapper\HAL\stm32yyxx_hal_smbus.c.o
LOAD C:\msys64\opt\arduino-1.8.13\portable\sketchbook\arduino\F427ZIT6_SerLed\build\libraries\SrcWrapper\HAL\stm32yyxx_hal_spdifrx.c.o
LOAD C:\msys64\opt\arduino-1.8.13\portable\sketchbook\arduino\F427ZIT6_SerLed\build\libraries\SrcWrapper\HAL\stm32yyxx_hal_spi.c.o
LOAD C:\msys64\opt\arduino-1.8.13\portable\sketchbook\arduino\F427ZIT6_SerLed\build\libraries\SrcWrapper\HAL\stm32yyxx_hal_spi_ex.c.o
LOAD C:\msys64\opt\arduino-1.8.13\portable\sketchbook\arduino\F427ZIT6_SerLed\build\libraries\SrcWrapper\HAL\stm32yyxx_hal_sram.c.o
LOAD C:\msys64\opt\arduino-1.8.13\portable\sketchbook\arduino\F427ZIT6_SerLed\build\libraries\SrcWrapper\HAL\stm32yyxx_hal_swpmi.c.o
LOAD C:\msys64\opt\arduino-1.8.13\portable\sketchbook\arduino\F427ZIT6_SerLed\build\libraries\SrcWrapper\HAL\stm32yyxx_hal_tim.c.o
LOAD C:\msys64\opt\arduino-1.8.13\portable\sketchbook\arduino\F427ZIT6_SerLed\build\libraries\SrcWrapper\HAL\stm32yyxx_hal_tim_ex.c.o
LOAD C:\msys64\opt\arduino-1.8.13\portable\sketchbook\arduino\F427ZIT6_SerLed\build\libraries\SrcWrapper\HAL\stm32yyxx_hal_tsc.c.o
LOAD C:\msys64\opt\arduino-1.8.13\portable\sketchbook\arduino\F427ZIT6_SerLed\build\libraries\SrcWrapper\HAL\stm32yyxx_hal_uart.c.o
LOAD C:\msys64\opt\arduino-1.8.13\portable\sketchbook\arduino\F427ZIT6_SerLed\build\libraries\SrcWrapper\HAL\stm32yyxx_hal_uart_ex.c.o
LOAD C:\msys64\opt\arduino-1.8.13\portable\sketchbook\arduino\F427ZIT6_SerLed\build\libraries\SrcWrapper\HAL\stm32yyxx_hal_usart.c.o
LOAD C:\msys64\opt\arduino-1.8.13\portable\sketchbook\arduino\F427ZIT6_SerLed\build\libraries\SrcWrapper\HAL\stm32yyxx_hal_usart_ex.c.o
LOAD C:\msys64\opt\arduino-1.8.13\portable\sketchbook\arduino\F427ZIT6_SerLed\build\libraries\SrcWrapper\HAL\stm32yyxx_hal_wwdg.c.o
LOAD C:\msys64\opt\arduino-1.8.13\portable\sketchbook\arduino\F427ZIT6_SerLed\build\libraries\SrcWrapper\LL\stm32yyxx_ll_adc.c.o
LOAD C:\msys64\opt\arduino-1.8.13\portable\sketchbook\arduino\F427ZIT6_SerLed\build\libraries\SrcWrapper\LL\stm32yyxx_ll_bdma.c.o
LOAD C:\msys64\opt\arduino-1.8.13\portable\sketchbook\arduino\F427ZIT6_SerLed\build\libraries\SrcWrapper\LL\stm32yyxx_ll_comp.c.o
LOAD C:\msys64\opt\arduino-1.8.13\portable\sketchbook\arduino\F427ZIT6_SerLed\build\libraries\SrcWrapper\LL\stm32yyxx_ll_cordic.c.o
LOAD C:\msys64\opt\arduino-1.8.13\portable\sketchbook\arduino\F427ZIT6_SerLed\build\libraries\SrcWrapper\LL\stm32yyxx_ll_crc.c.o
LOAD C:\msys64\opt\arduino-1.8.13\portable\sketchbook\arduino\F427ZIT6_SerLed\build\libraries\SrcWrapper\LL\stm32yyxx_ll_crs.c.o
LOAD C:\msys64\opt\arduino-1.8.13\portable\sketchbook\arduino\F427ZIT6_SerLed\build\libraries\SrcWrapper\LL\stm32yyxx_ll_dac.c.o
LOAD C:\msys64\opt\arduino-1.8.13\portable\sketchbook\arduino\F427ZIT6_SerLed\build\libraries\SrcWrapper\LL\stm32yyxx_ll_delayblock.c.o
LOAD C:\msys64\opt\arduino-1.8.13\portable\sketchbook\arduino\F427ZIT6_SerLed\build\libraries\SrcWrapper\LL\stm32yyxx_ll_dma.c.o
LOAD C:\msys64\opt\arduino-1.8.13\portable\sketchbook\arduino\F427ZIT6_SerLed\build\libraries\SrcWrapper\LL\stm32yyxx_ll_dma2d.c.o
LOAD C:\msys64\opt\arduino-1.8.13\portable\sketchbook\arduino\F427ZIT6_SerLed\build\libraries\SrcWrapper\LL\stm32yyxx_ll_exti.c.o
LOAD C:\msys64\opt\arduino-1.8.13\portable\sketchbook\arduino\F427ZIT6_SerLed\build\libraries\SrcWrapper\LL\stm32yyxx_ll_fmac.c.o
LOAD C:\msys64\opt\arduino-1.8.13\portable\sketchbook\arduino\F427ZIT6_SerLed\build\libraries\SrcWrapper\LL\stm32yyxx_ll_fmc.c.o
LOAD C:\msys64\opt\arduino-1.8.13\portable\sketchbook\arduino\F427ZIT6_SerLed\build\libraries\SrcWrapper\LL\stm32yyxx_ll_fsmc.c.o
LOAD C:\msys64\opt\arduino-1.8.13\portable\sketchbook\arduino\F427ZIT6_SerLed\build\libraries\SrcWrapper\LL\stm32yyxx_ll_gpio.c.o
LOAD C:\msys64\opt\arduino-1.8.13\portable\sketchbook\arduino\F427ZIT6_SerLed\build\libraries\SrcWrapper\LL\stm32yyxx_ll_hrtim.c.o
LOAD C:\msys64\opt\arduino-1.8.13\portable\sketchbook\arduino\F427ZIT6_SerLed\build\libraries\SrcWrapper\LL\stm32yyxx_ll_i2c.c.o
LOAD C:\msys64\opt\arduino-1.8.13\portable\sketchbook\arduino\F427ZIT6_SerLed\build\libraries\SrcWrapper\LL\stm32yyxx_ll_lptim.c.o
LOAD C:\msys64\opt\arduino-1.8.13\portable\sketchbook\arduino\F427ZIT6_SerLed\build\libraries\SrcWrapper\LL\stm32yyxx_ll_lpuart.c.o
LOAD C:\msys64\opt\arduino-1.8.13\portable\sketchbook\arduino\F427ZIT6_SerLed\build\libraries\SrcWrapper\LL\stm32yyxx_ll_mdma.c.o
LOAD C:\msys64\opt\arduino-1.8.13\portable\sketchbook\arduino\F427ZIT6_SerLed\build\libraries\SrcWrapper\LL\stm32yyxx_ll_opamp.c.o
LOAD C:\msys64\opt\arduino-1.8.13\portable\sketchbook\arduino\F427ZIT6_SerLed\build\libraries\SrcWrapper\LL\stm32yyxx_ll_pka.c.o
LOAD C:\msys64\opt\arduino-1.8.13\portable\sketchbook\arduino\F427ZIT6_SerLed\build\libraries\SrcWrapper\LL\stm32yyxx_ll_pwr.c.o
LOAD C:\msys64\opt\arduino-1.8.13\portable\sketchbook\arduino\F427ZIT6_SerLed\build\libraries\SrcWrapper\LL\stm32yyxx_ll_rcc.c.o
LOAD C:\msys64\opt\arduino-1.8.13\portable\sketchbook\arduino\F427ZIT6_SerLed\build\libraries\SrcWrapper\LL\stm32yyxx_ll_rng.c.o
LOAD C:\msys64\opt\arduino-1.8.13\portable\sketchbook\arduino\F427ZIT6_SerLed\build\libraries\SrcWrapper\LL\stm32yyxx_ll_rtc.c.o
LOAD C:\msys64\opt\arduino-1.8.13\portable\sketchbook\arduino\F427ZIT6_SerLed\build\libraries\SrcWrapper\LL\stm32yyxx_ll_sdmmc.c.o
LOAD C:\msys64\opt\arduino-1.8.13\portable\sketchbook\arduino\F427ZIT6_SerLed\build\libraries\SrcWrapper\LL\stm32yyxx_ll_spi.c.o
LOAD C:\msys64\opt\arduino-1.8.13\portable\sketchbook\arduino\F427ZIT6_SerLed\build\libraries\SrcWrapper\LL\stm32yyxx_ll_swpmi.c.o
LOAD C:\msys64\opt\arduino-1.8.13\portable\sketchbook\arduino\F427ZIT6_SerLed\build\libraries\SrcWrapper\LL\stm32yyxx_ll_tim.c.o
LOAD C:\msys64\opt\arduino-1.8.13\portable\sketchbook\arduino\F427ZIT6_SerLed\build\libraries\SrcWrapper\LL\stm32yyxx_ll_ucpd.c.o
LOAD C:\msys64\opt\arduino-1.8.13\portable\sketchbook\arduino\F427ZIT6_SerLed\build\libraries\SrcWrapper\LL\stm32yyxx_ll_usart.c.o
LOAD C:\msys64\opt\arduino-1.8.13\portable\sketchbook\arduino\F427ZIT6_SerLed\build\libraries\SrcWrapper\LL\stm32yyxx_ll_usb.c.o
LOAD C:\msys64\opt\arduino-1.8.13\portable\sketchbook\arduino\F427ZIT6_SerLed\build\libraries\SrcWrapper\LL\stm32yyxx_ll_utils.c.o
LOAD C:\msys64\opt\arduino-1.8.13\portable\sketchbook\arduino\F427ZIT6_SerLed\build\libraries\SrcWrapper\stm32\PortNames.c.o
LOAD C:\msys64\opt\arduino-1.8.13\portable\sketchbook\arduino\F427ZIT6_SerLed\build\libraries\SrcWrapper\stm32\bootloader.c.o
LOAD C:\msys64\opt\arduino-1.8.13\portable\sketchbook\arduino\F427ZIT6_SerLed\build\libraries\SrcWrapper\stm32\clock.c.o
LOAD C:\msys64\opt\arduino-1.8.13\portable\sketchbook\arduino\F427ZIT6_SerLed\build\libraries\SrcWrapper\stm32\core_callback.c.o
LOAD C:\msys64\opt\arduino-1.8.13\portable\sketchbook\arduino\F427ZIT6_SerLed\build\libraries\SrcWrapper\stm32\dwt.c.o
LOAD C:\msys64\opt\arduino-1.8.13\portable\sketchbook\arduino\F427ZIT6_SerLed\build\libraries\SrcWrapper\stm32\hw_config.c.o
LOAD C:\msys64\opt\arduino-1.8.13\portable\sketchbook\arduino\F427ZIT6_SerLed\build\libraries\SrcWrapper\stm32\lock_resource.c.o
LOAD C:\msys64\opt\arduino-1.8.13\portable\sketchbook\arduino\F427ZIT6_SerLed\build\libraries\SrcWrapper\stm32\low_power.c.o
LOAD C:\msys64\opt\arduino-1.8.13\portable\sketchbook\arduino\F427ZIT6_SerLed\build\libraries\SrcWrapper\stm32\pinmap.c.o
LOAD C:\msys64\opt\arduino-1.8.13\portable\sketchbook\arduino\F427ZIT6_SerLed\build\libraries\SrcWrapper\stm32\rtc.c.o
LOAD C:\msys64\opt\arduino-1.8.13\portable\sketchbook\arduino\F427ZIT6_SerLed\build\libraries\SrcWrapper\stm32\stm32_def.c.o
LOAD C:\msys64\opt\arduino-1.8.13\portable\sketchbook\arduino\F427ZIT6_SerLed\build\libraries\SrcWrapper\stm32\stm32_eeprom.c.o
LOAD C:\msys64\opt\arduino-1.8.13\portable\sketchbook\arduino\F427ZIT6_SerLed\build\libraries\SrcWrapper\stm32\system_stm32yyxx.c.o
LOAD C:\msys64\opt\arduino-1.8.13\portable\sketchbook\arduino\F427ZIT6_SerLed\build\libraries\SrcWrapper\stm32\timer.c.o
LOAD C:\msys64\opt\arduino-1.8.13\portable\sketchbook\arduino\F427ZIT6_SerLed\build\libraries\SrcWrapper\stm32\uart.c.o
LOAD C:\msys64\opt\arduino-1.8.13\portable\sketchbook\arduino\F427ZIT6_SerLed\build\libraries\SrcWrapper\stm32\analog.cpp.o
LOAD C:\msys64\opt\arduino-1.8.13\portable\sketchbook\arduino\F427ZIT6_SerLed\build\libraries\SrcWrapper\stm32\interrupt.cpp.o
LOAD C:\msys64\opt\arduino-1.8.13\portable\sketchbook\arduino\F427ZIT6_SerLed\build\core\PeripheralPins.c.o
LOAD C:\msys64\opt\arduino-1.8.13\portable\sketchbook\arduino\F427ZIT6_SerLed\build\core\variant.cpp.o
LOAD C:\msys64\opt\arduino-1.8.13\portable\sketchbook\arduino\F427ZIT6_SerLed\build\core\core.a
LOAD c:/msys64/opt/arduino-1.8.13/portable/packages/stm32/tools/xpack-arm-none-eabi-gcc/9.2.1-1.1/bin/../lib/gcc/arm-none-eabi/9.2.1/../../../../arm-none-eabi/lib/thumb/v7e-m+fp/hard\libc_nano.a
END GROUP
LOAD c:/msys64/opt/arduino-1.8.13/portable/packages/stm32/tools/xpack-arm-none-eabi-gcc/9.2.1-1.1/bin/../lib/gcc/arm-none-eabi/9.2.1/../../../../arm-none-eabi/lib/thumb/v7e-m+fp/hard\libm.a
LOAD c:/msys64/opt/arduino-1.8.13/portable/packages/stm32/tools/xpack-arm-none-eabi-gcc/9.2.1-1.1/bin/../lib/gcc/arm-none-eabi/9.2.1/thumb/v7e-m+fp/hard\libgcc.a
LOAD c:/msys64/opt/arduino-1.8.13/portable/packages/stm32/tools/xpack-arm-none-eabi-gcc/9.2.1-1.1/bin/../lib/gcc/arm-none-eabi/9.2.1/../../../../arm-none-eabi/lib/thumb/v7e-m+fp/hard\libstdc++_nano.a
START GROUP
LOAD c:/msys64/opt/arduino-1.8.13/portable/packages/stm32/tools/xpack-arm-none-eabi-gcc/9.2.1-1.1/bin/../lib/gcc/arm-none-eabi/9.2.1/thumb/v7e-m+fp/hard\libgcc.a
LOAD c:/msys64/opt/arduino-1.8.13/portable/packages/stm32/tools/xpack-arm-none-eabi-gcc/9.2.1-1.1/bin/../lib/gcc/arm-none-eabi/9.2.1/../../../../arm-none-eabi/lib/thumb/v7e-m+fp/hard\libc_nano.a
END GROUP
START GROUP
LOAD c:/msys64/opt/arduino-1.8.13/portable/packages/stm32/tools/xpack-arm-none-eabi-gcc/9.2.1-1.1/bin/../lib/gcc/arm-none-eabi/9.2.1/thumb/v7e-m+fp/hard\libgcc.a
LOAD c:/msys64/opt/arduino-1.8.13/portable/packages/stm32/tools/xpack-arm-none-eabi-gcc/9.2.1-1.1/bin/../lib/gcc/arm-none-eabi/9.2.1/../../../../arm-none-eabi/lib/thumb/v7e-m+fp/hard\libc_nano.a
END GROUP
LOAD c:/msys64/opt/arduino-1.8.13/portable/packages/stm32/tools/xpack-arm-none-eabi-gcc/9.2.1-1.1/bin/../lib/gcc/arm-none-eabi/9.2.1/thumb/v7e-m+fp/hard/crtend.o
LOAD c:/msys64/opt/arduino-1.8.13/portable/packages/stm32/tools/xpack-arm-none-eabi-gcc/9.2.1-1.1/bin/../lib/gcc/arm-none-eabi/9.2.1/thumb/v7e-m+fp/hard/crtn.o
                0x20030000                _estack = 0x20030000
                0x00002000                _Min_Heap_Size = 0x2000
                0x00000400                _Min_Stack_Size = 0x400

.isr_vector     0x08000000      0x1ac
                0x08000000                . = ALIGN (0x4)
 *(.isr_vector)
 .isr_vector    0x08000000      0x1ac C:\msys64\opt\arduino-1.8.13\portable\sketchbook\arduino\F427ZIT6_SerLed\build\core\core.a(startup_stm32yyxx.S.o)
                0x08000000                g_pfnVectors
                0x080001ac                . = ALIGN (0x4)

.text           0x080001ac     0x2fc0
                0x080001ac                . = ALIGN (0x4)
 *(.text)
 .text          0x080001ac       0x10 c:/msys64/opt/arduino-1.8.13/portable/packages/stm32/tools/xpack-arm-none-eabi-gcc/9.2.1-1.1/bin/../lib/gcc/arm-none-eabi/9.2.1/../../../../arm-none-eabi/lib/thumb/v7e-m+fp/hard\libc_nano.a(lib_a-strlen.o)
                0x080001ac                strlen
 .text          0x080001bc       0x30 c:/msys64/opt/arduino-1.8.13/portable/packages/stm32/tools/xpack-arm-none-eabi-gcc/9.2.1-1.1/bin/../lib/gcc/arm-none-eabi/9.2.1/thumb/v7e-m+fp/hard\libgcc.a(_aeabi_uldivmod.o)
                0x080001bc                __aeabi_uldivmod
 .text          0x080001ec        0x4 c:/msys64/opt/arduino-1.8.13/portable/packages/stm32/tools/xpack-arm-none-eabi-gcc/9.2.1-1.1/bin/../lib/gcc/arm-none-eabi/9.2.1/thumb/v7e-m+fp/hard\libgcc.a(_dvmd_tls.o)
                0x080001ec                __aeabi_idiv0
                0x080001ec                __aeabi_ldiv0
 *(.text*)
 .text.__do_global_dtors_aux
                0x080001f0       0x24 c:/msys64/opt/arduino-1.8.13/portable/packages/stm32/tools/xpack-arm-none-eabi-gcc/9.2.1-1.1/bin/../lib/gcc/arm-none-eabi/9.2.1/thumb/v7e-m+fp/hard/crtbegin.o
 .text.frame_dummy
                0x08000214       0x1c c:/msys64/opt/arduino-1.8.13/portable/packages/stm32/tools/xpack-arm-none-eabi-gcc/9.2.1-1.1/bin/../lib/gcc/arm-none-eabi/9.2.1/thumb/v7e-m+fp/hard/crtbegin.o
 .text.setup    0x08000230       0x20 C:\msys64\opt\arduino-1.8.13\portable\sketchbook\arduino\F427ZIT6_SerLed\build\sketch\F427ZIT6_SerLed.ino.cpp.o
                0x08000230                setup
 .text.loop     0x08000250       0x44 C:\msys64\opt\arduino-1.8.13\portable\sketchbook\arduino\F427ZIT6_SerLed\build\sketch\F427ZIT6_SerLed.ino.cpp.o
                0x08000250                loop
 .text._sbrk    0x08000294       0x3c C:\msys64\opt\arduino-1.8.13\portable\sketchbook\arduino\F427ZIT6_SerLed\build\libraries\SrcWrapper\syscalls.c.o
                0x08000294                _sbrk
 .text._exit    0x080002d0        0x2 C:\msys64\opt\arduino-1.8.13\portable\sketchbook\arduino\F427ZIT6_SerLed\build\libraries\SrcWrapper\syscalls.c.o
                0x080002d0                _exit
 *fill*         0x080002d2        0x2 
 .text._kill    0x080002d4       0x10 C:\msys64\opt\arduino-1.8.13\portable\sketchbook\arduino\F427ZIT6_SerLed\build\libraries\SrcWrapper\syscalls.c.o
                0x080002d4                _kill
 .text._getpid  0x080002e4        0x4 C:\msys64\opt\arduino-1.8.13\portable\sketchbook\arduino\F427ZIT6_SerLed\build\libraries\SrcWrapper\syscalls.c.o
                0x080002e4                _getpid
 .text.HAL_MspInit
                0x080002e8        0x2 C:\msys64\opt\arduino-1.8.13\portable\sketchbook\arduino\F427ZIT6_SerLed\build\libraries\SrcWrapper\HAL\stm32yyxx_hal.c.o
                0x080002e8                HAL_MspInit
 *fill*         0x080002ea        0x2 
 .text.HAL_InitTick
                0x080002ec       0x48 C:\msys64\opt\arduino-1.8.13\portable\sketchbook\arduino\F427ZIT6_SerLed\build\libraries\SrcWrapper\HAL\stm32yyxx_hal.c.o
                0x080002ec                HAL_InitTick
 .text.HAL_Init
                0x08000334       0x34 C:\msys64\opt\arduino-1.8.13\portable\sketchbook\arduino\F427ZIT6_SerLed\build\libraries\SrcWrapper\HAL\stm32yyxx_hal.c.o
                0x08000334                HAL_Init
 .text.HAL_IncTick
                0x08000368       0x18 C:\msys64\opt\arduino-1.8.13\portable\sketchbook\arduino\F427ZIT6_SerLed\build\libraries\SrcWrapper\HAL\stm32yyxx_hal.c.o
                0x08000368                HAL_IncTick
 .text.HAL_GetTick
                0x08000380        0xc C:\msys64\opt\arduino-1.8.13\portable\sketchbook\arduino\F427ZIT6_SerLed\build\libraries\SrcWrapper\HAL\stm32yyxx_hal.c.o
                0x08000380                HAL_GetTick
 .text.HAL_NVIC_SetPriorityGrouping
                0x0800038c       0x24 C:\msys64\opt\arduino-1.8.13\portable\sketchbook\arduino\F427ZIT6_SerLed\build\libraries\SrcWrapper\HAL\stm32yyxx_hal_cortex.c.o
                0x0800038c                HAL_NVIC_SetPriorityGrouping
 .text.HAL_NVIC_SetPriority
                0x080003b0       0x64 C:\msys64\opt\arduino-1.8.13\portable\sketchbook\arduino\F427ZIT6_SerLed\build\libraries\SrcWrapper\HAL\stm32yyxx_hal_cortex.c.o
                0x080003b0                HAL_NVIC_SetPriority
 .text.HAL_NVIC_EnableIRQ
                0x08000414       0x1c C:\msys64\opt\arduino-1.8.13\portable\sketchbook\arduino\F427ZIT6_SerLed\build\libraries\SrcWrapper\HAL\stm32yyxx_hal_cortex.c.o
                0x08000414                HAL_NVIC_EnableIRQ
 .text.HAL_NVIC_DisableIRQ
                0x08000430       0x28 C:\msys64\opt\arduino-1.8.13\portable\sketchbook\arduino\F427ZIT6_SerLed\build\libraries\SrcWrapper\HAL\stm32yyxx_hal_cortex.c.o
                0x08000430                HAL_NVIC_DisableIRQ
 .text.HAL_SYSTICK_Config
                0x08000458       0x2c C:\msys64\opt\arduino-1.8.13\portable\sketchbook\arduino\F427ZIT6_SerLed\build\libraries\SrcWrapper\HAL\stm32yyxx_hal_cortex.c.o
                0x08000458                HAL_SYSTICK_Config
 .text.HAL_NVIC_ClearPendingIRQ
                0x08000484       0x20 C:\msys64\opt\arduino-1.8.13\portable\sketchbook\arduino\F427ZIT6_SerLed\build\libraries\SrcWrapper\HAL\stm32yyxx_hal_cortex.c.o
                0x08000484                HAL_NVIC_ClearPendingIRQ
 .text.HAL_SYSTICK_Callback
                0x080004a4        0x2 C:\msys64\opt\arduino-1.8.13\portable\sketchbook\arduino\F427ZIT6_SerLed\build\libraries\SrcWrapper\HAL\stm32yyxx_hal_cortex.c.o
                0x080004a4                HAL_SYSTICK_Callback
 .text.HAL_SYSTICK_IRQHandler
                0x080004a6        0x8 C:\msys64\opt\arduino-1.8.13\portable\sketchbook\arduino\F427ZIT6_SerLed\build\libraries\SrcWrapper\HAL\stm32yyxx_hal_cortex.c.o
                0x080004a6                HAL_SYSTICK_IRQHandler
 .text.HAL_DAC_DeInit
                0x080004ae       0x1c C:\msys64\opt\arduino-1.8.13\portable\sketchbook\arduino\F427ZIT6_SerLed\build\libraries\SrcWrapper\HAL\stm32yyxx_hal_dac.c.o
                0x080004ae                HAL_DAC_DeInit
 .text.HAL_DAC_Stop
                0x080004ca       0x18 C:\msys64\opt\arduino-1.8.13\portable\sketchbook\arduino\F427ZIT6_SerLed\build\libraries\SrcWrapper\HAL\stm32yyxx_hal_dac.c.o
                0x080004ca                HAL_DAC_Stop
 .text.HAL_DMA_Abort_IT
                0x080004e2       0x24 C:\msys64\opt\arduino-1.8.13\portable\sketchbook\arduino\F427ZIT6_SerLed\build\libraries\SrcWrapper\HAL\stm32yyxx_hal_dma.c.o
                0x080004e2                HAL_DMA_Abort_IT
 *fill*         0x08000506        0x2 
 .text.HAL_GPIO_EXTI_IRQHandler
                0x08000508       0x18 C:\msys64\opt\arduino-1.8.13\portable\sketchbook\arduino\F427ZIT6_SerLed\build\libraries\SrcWrapper\HAL\stm32yyxx_hal_gpio.c.o
                0x08000508                HAL_GPIO_EXTI_IRQHandler
 .text.HAL_PWREx_EnableOverDrive
                0x08000520       0x78 C:\msys64\opt\arduino-1.8.13\portable\sketchbook\arduino\F427ZIT6_SerLed\build\libraries\SrcWrapper\HAL\stm32yyxx_hal_pwr_ex.c.o
                0x08000520                HAL_PWREx_EnableOverDrive
 .text.HAL_RCC_OscConfig
                0x08000598      0x350 C:\msys64\opt\arduino-1.8.13\portable\sketchbook\arduino\F427ZIT6_SerLed\build\libraries\SrcWrapper\HAL\stm32yyxx_hal_rcc.c.o
                0x08000598                HAL_RCC_OscConfig
 .text.HAL_RCC_GetSysClockFreq
                0x080008e8       0x5c C:\msys64\opt\arduino-1.8.13\portable\sketchbook\arduino\F427ZIT6_SerLed\build\libraries\SrcWrapper\HAL\stm32yyxx_hal_rcc.c.o
                0x080008e8                HAL_RCC_GetSysClockFreq
 .text.HAL_RCC_ClockConfig
                0x08000944      0x138 C:\msys64\opt\arduino-1.8.13\portable\sketchbook\arduino\F427ZIT6_SerLed\build\libraries\SrcWrapper\HAL\stm32yyxx_hal_rcc.c.o
                0x08000944                HAL_RCC_ClockConfig
 .text.HAL_RCC_GetPCLK1Freq
                0x08000a7c       0x20 C:\msys64\opt\arduino-1.8.13\portable\sketchbook\arduino\F427ZIT6_SerLed\build\libraries\SrcWrapper\HAL\stm32yyxx_hal_rcc.c.o
                0x08000a7c                HAL_RCC_GetPCLK1Freq
 .text.HAL_RCC_GetPCLK2Freq
                0x08000a9c       0x20 C:\msys64\opt\arduino-1.8.13\portable\sketchbook\arduino\F427ZIT6_SerLed\build\libraries\SrcWrapper\HAL\stm32yyxx_hal_rcc.c.o
                0x08000a9c                HAL_RCC_GetPCLK2Freq
 .text.HAL_RTC_AlarmIRQHandler
                0x08000abc       0x54 C:\msys64\opt\arduino-1.8.13\portable\sketchbook\arduino\F427ZIT6_SerLed\build\libraries\SrcWrapper\HAL\stm32yyxx_hal_rtc.c.o
                0x08000abc                HAL_RTC_AlarmIRQHandler
 .text.HAL_RTCEx_AlarmBEventCallback
                0x08000b10        0x2 C:\msys64\opt\arduino-1.8.13\portable\sketchbook\arduino\F427ZIT6_SerLed\build\libraries\SrcWrapper\HAL\stm32yyxx_hal_rtc_ex.c.o
                0x08000b10                HAL_RTCEx_AlarmBEventCallback
 .text.HAL_TIM_PWM_PulseFinishedCallback
                0x08000b12        0x2 C:\msys64\opt\arduino-1.8.13\portable\sketchbook\arduino\F427ZIT6_SerLed\build\libraries\SrcWrapper\HAL\stm32yyxx_hal_tim.c.o
                0x08000b12                HAL_TIM_PWM_PulseFinishedCallback
 .text.HAL_TIM_TriggerCallback
                0x08000b14        0x2 C:\msys64\opt\arduino-1.8.13\portable\sketchbook\arduino\F427ZIT6_SerLed\build\libraries\SrcWrapper\HAL\stm32yyxx_hal_tim.c.o
                0x08000b14                HAL_TIM_TriggerCallback
 .text.HAL_TIM_IRQHandler
                0x08000b16      0x144 C:\msys64\opt\arduino-1.8.13\portable\sketchbook\arduino\F427ZIT6_SerLed\build\libraries\SrcWrapper\HAL\stm32yyxx_hal_tim.c.o
                0x08000b16                HAL_TIM_IRQHandler
 *fill*         0x08000c5a        0x2 
 .text.TIM_Base_SetConfig
                0x08000c5c       0xcc C:\msys64\opt\arduino-1.8.13\portable\sketchbook\arduino\F427ZIT6_SerLed\build\libraries\SrcWrapper\HAL\stm32yyxx_hal_tim.c.o
                0x08000c5c                TIM_Base_SetConfig
 .text.HAL_TIM_Base_Init
                0x08000d28       0x34 C:\msys64\opt\arduino-1.8.13\portable\sketchbook\arduino\F427ZIT6_SerLed\build\libraries\SrcWrapper\HAL\stm32yyxx_hal_tim.c.o
                0x08000d28                HAL_TIM_Base_Init
 .text.HAL_TIMEx_CommutCallback
                0x08000d5c        0x2 C:\msys64\opt\arduino-1.8.13\portable\sketchbook\arduino\F427ZIT6_SerLed\build\libraries\SrcWrapper\HAL\stm32yyxx_hal_tim_ex.c.o
                0x08000d5c                HAL_TIMEx_CommutCallback
 .text.HAL_TIMEx_BreakCallback
                0x08000d5e        0x2 C:\msys64\opt\arduino-1.8.13\portable\sketchbook\arduino\F427ZIT6_SerLed\build\libraries\SrcWrapper\HAL\stm32yyxx_hal_tim_ex.c.o
                0x08000d5e                HAL_TIMEx_BreakCallback
 .text.UART_EndRxTransfer
                0x08000d60       0x1a C:\msys64\opt\arduino-1.8.13\portable\sketchbook\arduino\F427ZIT6_SerLed\build\libraries\SrcWrapper\HAL\stm32yyxx_hal_uart.c.o
 *fill*         0x08000d7a        0x2 
 .text.UART_SetConfig
                0x08000d7c       0xdc C:\msys64\opt\arduino-1.8.13\portable\sketchbook\arduino\F427ZIT6_SerLed\build\libraries\SrcWrapper\HAL\stm32yyxx_hal_uart.c.o
 .text.HAL_UART_MspInit
                0x08000e58        0x2 C:\msys64\opt\arduino-1.8.13\portable\sketchbook\arduino\F427ZIT6_SerLed\build\libraries\SrcWrapper\HAL\stm32yyxx_hal_uart.c.o
                0x08000e58                HAL_UART_MspInit
 .text.HAL_UART_Init
                0x08000e5a       0x5c C:\msys64\opt\arduino-1.8.13\portable\sketchbook\arduino\F427ZIT6_SerLed\build\libraries\SrcWrapper\HAL\stm32yyxx_hal_uart.c.o
                0x08000e5a                HAL_UART_Init
 .text.HAL_HalfDuplex_Init
                0x08000eb6       0x64 C:\msys64\opt\arduino-1.8.13\portable\sketchbook\arduino\F427ZIT6_SerLed\build\libraries\SrcWrapper\HAL\stm32yyxx_hal_uart.c.o
                0x08000eb6                HAL_HalfDuplex_Init
 .text.HAL_UART_Transmit_IT
                0x08000f1a       0x3e C:\msys64\opt\arduino-1.8.13\portable\sketchbook\arduino\F427ZIT6_SerLed\build\libraries\SrcWrapper\HAL\stm32yyxx_hal_uart.c.o
                0x08000f1a                HAL_UART_Transmit_IT
 .text.HAL_UART_Receive_IT
                0x08000f58       0x4e C:\msys64\opt\arduino-1.8.13\portable\sketchbook\arduino\F427ZIT6_SerLed\build\libraries\SrcWrapper\HAL\stm32yyxx_hal_uart.c.o
                0x08000f58                HAL_UART_Receive_IT
 .text.UART_Receive_IT
                0x08000fa6       0x76 C:\msys64\opt\arduino-1.8.13\portable\sketchbook\arduino\F427ZIT6_SerLed\build\libraries\SrcWrapper\HAL\stm32yyxx_hal_uart.c.o
 .text.HAL_UART_IRQHandler
                0x0800101c      0x148 C:\msys64\opt\arduino-1.8.13\portable\sketchbook\arduino\F427ZIT6_SerLed\build\libraries\SrcWrapper\HAL\stm32yyxx_hal_uart.c.o
                0x0800101c                HAL_UART_IRQHandler
 .text.UART_DMAAbortOnError
                0x08001164       0x10 C:\msys64\opt\arduino-1.8.13\portable\sketchbook\arduino\F427ZIT6_SerLed\build\libraries\SrcWrapper\HAL\stm32yyxx_hal_uart.c.o
 .text.HAL_HalfDuplex_EnableTransmitter
                0x08001174       0x30 C:\msys64\opt\arduino-1.8.13\portable\sketchbook\arduino\F427ZIT6_SerLed\build\libraries\SrcWrapper\HAL\stm32yyxx_hal_uart.c.o
                0x08001174                HAL_HalfDuplex_EnableTransmitter
 .text.HAL_HalfDuplex_EnableReceiver
                0x080011a4       0x30 C:\msys64\opt\arduino-1.8.13\portable\sketchbook\arduino\F427ZIT6_SerLed\build\libraries\SrcWrapper\HAL\stm32yyxx_hal_uart.c.o
                0x080011a4                HAL_HalfDuplex_EnableReceiver
 .text.HAL_UART_GetState
                0x080011d4        0xc C:\msys64\opt\arduino-1.8.13\portable\sketchbook\arduino\F427ZIT6_SerLed\build\libraries\SrcWrapper\HAL\stm32yyxx_hal_uart.c.o
                0x080011d4                HAL_UART_GetState
 .text.set_GPIO_Port_Clock
                0x080011e0      0x170 C:\msys64\opt\arduino-1.8.13\portable\sketchbook\arduino\F427ZIT6_SerLed\build\libraries\SrcWrapper\stm32\PortNames.c.o
                0x080011e0                set_GPIO_Port_Clock
 .text.getCurrentMillis
                0x08001350        0x4 C:\msys64\opt\arduino-1.8.13\portable\sketchbook\arduino\F427ZIT6_SerLed\build\libraries\SrcWrapper\stm32\clock.c.o
                0x08001350                getCurrentMillis
 .text.noOsSystickHandler
                0x08001354        0x2 C:\msys64\opt\arduino-1.8.13\portable\sketchbook\arduino\F427ZIT6_SerLed\build\libraries\SrcWrapper\stm32\clock.c.o
                0x08001354                osSystickHandler
                0x08001354                noOsSystickHandler
 .text.SysTick_Handler
                0x08001356       0x10 C:\msys64\opt\arduino-1.8.13\portable\sketchbook\arduino\F427ZIT6_SerLed\build\libraries\SrcWrapper\stm32\clock.c.o
                0x08001356                SysTick_Handler
 *fill*         0x08001366        0x2 
 .text.dwt_init
                0x08001368       0x38 C:\msys64\opt\arduino-1.8.13\portable\sketchbook\arduino\F427ZIT6_SerLed\build\libraries\SrcWrapper\stm32\dwt.c.o
                0x08001368                dwt_init
 .text.hw_config_init
                0x080013a0       0x12 C:\msys64\opt\arduino-1.8.13\portable\sketchbook\arduino\F427ZIT6_SerLed\build\libraries\SrcWrapper\stm32\hw_config.c.o
                0x080013a0                hw_config_init
 .text.LL_GPIO_SetPinOutputType
                0x080013b2       0x24 C:\msys64\opt\arduino-1.8.13\portable\sketchbook\arduino\F427ZIT6_SerLed\build\libraries\SrcWrapper\stm32\pinmap.c.o
 .text.LL_GPIO_SetPinPull
                0x080013d6       0x2a C:\msys64\opt\arduino-1.8.13\portable\sketchbook\arduino\F427ZIT6_SerLed\build\libraries\SrcWrapper\stm32\pinmap.c.o
 .text.pin_in_pinmap
                0x08001400       0x1e C:\msys64\opt\arduino-1.8.13\portable\sketchbook\arduino\F427ZIT6_SerLed\build\libraries\SrcWrapper\stm32\pinmap.c.o
                0x08001400                pin_in_pinmap
 *fill*         0x0800141e        0x2 
 .text.pin_function
                0x08001420      0x130 C:\msys64\opt\arduino-1.8.13\portable\sketchbook\arduino\F427ZIT6_SerLed\build\libraries\SrcWrapper\stm32\pinmap.c.o
                0x08001420                pin_function
 .text.pinmap_pinout
                0x08001550       0x28 C:\msys64\opt\arduino-1.8.13\portable\sketchbook\arduino\F427ZIT6_SerLed\build\libraries\SrcWrapper\stm32\pinmap.c.o
                0x08001550                pinmap_pinout
 .text.pinmap_find_peripheral
                0x08001578       0x18 C:\msys64\opt\arduino-1.8.13\portable\sketchbook\arduino\F427ZIT6_SerLed\build\libraries\SrcWrapper\stm32\pinmap.c.o
                0x08001578                pinmap_find_peripheral
 .text.pinmap_peripheral
                0x08001590        0xc C:\msys64\opt\arduino-1.8.13\portable\sketchbook\arduino\F427ZIT6_SerLed\build\libraries\SrcWrapper\stm32\pinmap.c.o
                0x08001590                pinmap_peripheral
 .text.pinmap_find_pin
                0x0800159c       0x18 C:\msys64\opt\arduino-1.8.13\portable\sketchbook\arduino\F427ZIT6_SerLed\build\libraries\SrcWrapper\stm32\pinmap.c.o
                0x0800159c                pinmap_find_pin
 .text.pinmap_pin
                0x080015b4        0xc C:\msys64\opt\arduino-1.8.13\portable\sketchbook\arduino\F427ZIT6_SerLed\build\libraries\SrcWrapper\stm32\pinmap.c.o
                0x080015b4                pinmap_pin
 .text.pinmap_find_function
                0x080015c0       0x18 C:\msys64\opt\arduino-1.8.13\portable\sketchbook\arduino\F427ZIT6_SerLed\build\libraries\SrcWrapper\stm32\pinmap.c.o
                0x080015c0                pinmap_find_function
 .text.pinmap_function
                0x080015d8        0xa C:\msys64\opt\arduino-1.8.13\portable\sketchbook\arduino\F427ZIT6_SerLed\build\libraries\SrcWrapper\stm32\pinmap.c.o
                0x080015d8                pinmap_function
 .text.pinmap_merge_peripheral
                0x080015e2       0x12 C:\msys64\opt\arduino-1.8.13\portable\sketchbook\arduino\F427ZIT6_SerLed\build\libraries\SrcWrapper\stm32\pinmap.c.o
                0x080015e2                pinmap_merge_peripheral
 .text.HAL_RTC_AlarmAEventCallback
                0x080015f4       0x18 C:\msys64\opt\arduino-1.8.13\portable\sketchbook\arduino\F427ZIT6_SerLed\build\libraries\SrcWrapper\stm32\rtc.c.o
                0x080015f4                HAL_RTC_AlarmAEventCallback
 .text.RTC_Alarm_IRQHandler
                0x0800160c        0xc C:\msys64\opt\arduino-1.8.13\portable\sketchbook\arduino\F427ZIT6_SerLed\build\libraries\SrcWrapper\stm32\rtc.c.o
                0x0800160c                RTC_Alarm_IRQHandler
 .text._Error_Handler
                0x08001618        0x2 C:\msys64\opt\arduino-1.8.13\portable\sketchbook\arduino\F427ZIT6_SerLed\build\libraries\SrcWrapper\stm32\stm32_def.c.o
                0x08001618                _Error_Handler
 *fill*         0x0800161a        0x2 
 .text.SystemInit
                0x0800161c       0x4c C:\msys64\opt\arduino-1.8.13\portable\sketchbook\arduino\F427ZIT6_SerLed\build\libraries\SrcWrapper\stm32\system_stm32yyxx.c.o
                0x0800161c                SystemInit
 .text.get_timer_obj
                0x08001668        0x4 C:\msys64\opt\arduino-1.8.13\portable\sketchbook\arduino\F427ZIT6_SerLed\build\libraries\SrcWrapper\stm32\timer.c.o
                0x08001668                get_timer_obj
 .text.enableTimerClock
                0x0800166c      0x1f0 C:\msys64\opt\arduino-1.8.13\portable\sketchbook\arduino\F427ZIT6_SerLed\build\libraries\SrcWrapper\stm32\timer.c.o
                0x0800166c                enableTimerClock
 .text.disableTimerClock
                0x0800185c      0x124 C:\msys64\opt\arduino-1.8.13\portable\sketchbook\arduino\F427ZIT6_SerLed\build\libraries\SrcWrapper\stm32\timer.c.o
                0x0800185c                disableTimerClock
 .text.getTimerUpIrq
                0x08001980       0xc4 C:\msys64\opt\arduino-1.8.13\portable\sketchbook\arduino\F427ZIT6_SerLed\build\libraries\SrcWrapper\stm32\timer.c.o
                0x08001980                getTimerUpIrq
 .text.getTimerCCIrq
                0x08001a44       0xcc C:\msys64\opt\arduino-1.8.13\portable\sketchbook\arduino\F427ZIT6_SerLed\build\libraries\SrcWrapper\stm32\timer.c.o
                0x08001a44                getTimerCCIrq
 .text.HAL_TIM_Base_MspInit
                0x08001b10       0x50 C:\msys64\opt\arduino-1.8.13\portable\sketchbook\arduino\F427ZIT6_SerLed\build\libraries\SrcWrapper\stm32\timer.c.o
                0x08001b10                HAL_TIM_Base_MspInit
 .text.uart_init.part.0
                0x08001b60      0x288 C:\msys64\opt\arduino-1.8.13\portable\sketchbook\arduino\F427ZIT6_SerLed\build\libraries\SrcWrapper\stm32\uart.c.o
 .text.uart_init
                0x08001de8        0x8 C:\msys64\opt\arduino-1.8.13\portable\sketchbook\arduino\F427ZIT6_SerLed\build\libraries\SrcWrapper\stm32\uart.c.o
                0x08001de8                uart_init
 .text.serial_rx_active
                0x08001df0       0x24 C:\msys64\opt\arduino-1.8.13\portable\sketchbook\arduino\F427ZIT6_SerLed\build\libraries\SrcWrapper\stm32\uart.c.o
                0x08001df0                serial_rx_active
 .text.serial_tx_active
                0x08001e14       0x24 C:\msys64\opt\arduino-1.8.13\portable\sketchbook\arduino\F427ZIT6_SerLed\build\libraries\SrcWrapper\stm32\uart.c.o
                0x08001e14                serial_tx_active
 .text.uart_getc
                0x08001e38       0x38 C:\msys64\opt\arduino-1.8.13\portable\sketchbook\arduino\F427ZIT6_SerLed\build\libraries\SrcWrapper\stm32\uart.c.o
                0x08001e38                uart_getc
 .text.uart_attach_rx_callback
                0x08001e70       0x4c C:\msys64\opt\arduino-1.8.13\portable\sketchbook\arduino\F427ZIT6_SerLed\build\libraries\SrcWrapper\stm32\uart.c.o
                0x08001e70                uart_attach_rx_callback
 .text.uart_attach_tx_callback
                0x08001ebc       0x48 C:\msys64\opt\arduino-1.8.13\portable\sketchbook\arduino\F427ZIT6_SerLed\build\libraries\SrcWrapper\stm32\uart.c.o
                0x08001ebc                uart_attach_tx_callback
 .text.uart_enable_tx
                0x08001f04       0x20 C:\msys64\opt\arduino-1.8.13\portable\sketchbook\arduino\F427ZIT6_SerLed\build\libraries\SrcWrapper\stm32\uart.c.o
                0x08001f04                uart_enable_tx
 .text.uart_enable_rx
                0x08001f24       0x20 C:\msys64\opt\arduino-1.8.13\portable\sketchbook\arduino\F427ZIT6_SerLed\build\libraries\SrcWrapper\stm32\uart.c.o
                0x08001f24                uart_enable_rx
 .text.HAL_UART_RxCpltCallback
                0x08001f44        0x6 C:\msys64\opt\arduino-1.8.13\portable\sketchbook\arduino\F427ZIT6_SerLed\build\libraries\SrcWrapper\stm32\uart.c.o
                0x08001f44                HAL_UART_RxCpltCallback
 .text.HAL_UART_TxCpltCallback
                0x08001f4a       0x26 C:\msys64\opt\arduino-1.8.13\portable\sketchbook\arduino\F427ZIT6_SerLed\build\libraries\SrcWrapper\stm32\uart.c.o
                0x08001f4a                HAL_UART_TxCpltCallback
 .text.HAL_UART_ErrorCallback
                0x08001f70       0x7a C:\msys64\opt\arduino-1.8.13\portable\sketchbook\arduino\F427ZIT6_SerLed\build\libraries\SrcWrapper\stm32\uart.c.o
                0x08001f70                HAL_UART_ErrorCallback
 *fill*         0x08001fea        0x2 
 .text.USART1_IRQHandler
                0x08001fec       0x18 C:\msys64\opt\arduino-1.8.13\portable\sketchbook\arduino\F427ZIT6_SerLed\build\libraries\SrcWrapper\stm32\uart.c.o
                0x08001fec                USART1_IRQHandler
 .text.USART2_IRQHandler
                0x08002004       0x18 C:\msys64\opt\arduino-1.8.13\portable\sketchbook\arduino\F427ZIT6_SerLed\build\libraries\SrcWrapper\stm32\uart.c.o
                0x08002004                USART2_IRQHandler
 .text.USART3_IRQHandler
                0x0800201c       0x1c C:\msys64\opt\arduino-1.8.13\portable\sketchbook\arduino\F427ZIT6_SerLed\build\libraries\SrcWrapper\stm32\uart.c.o
                0x0800201c                USART3_IRQHandler
 .text.UART4_IRQHandler
                0x08002038       0x18 C:\msys64\opt\arduino-1.8.13\portable\sketchbook\arduino\F427ZIT6_SerLed\build\libraries\SrcWrapper\stm32\uart.c.o
                0x08002038                UART4_IRQHandler
 .text.UART5_IRQHandler
                0x08002050       0x18 C:\msys64\opt\arduino-1.8.13\portable\sketchbook\arduino\F427ZIT6_SerLed\build\libraries\SrcWrapper\stm32\uart.c.o
                0x08002050                UART5_IRQHandler
 .text.USART6_IRQHandler
                0x08002068       0x18 C:\msys64\opt\arduino-1.8.13\portable\sketchbook\arduino\F427ZIT6_SerLed\build\libraries\SrcWrapper\stm32\uart.c.o
                0x08002068                USART6_IRQHandler
 .text.UART7_IRQHandler
                0x08002080       0x18 C:\msys64\opt\arduino-1.8.13\portable\sketchbook\arduino\F427ZIT6_SerLed\build\libraries\SrcWrapper\stm32\uart.c.o
                0x08002080                UART7_IRQHandler
 .text.UART8_IRQHandler
                0x08002098       0x18 C:\msys64\opt\arduino-1.8.13\portable\sketchbook\arduino\F427ZIT6_SerLed\build\libraries\SrcWrapper\stm32\uart.c.o
                0x08002098                UART8_IRQHandler
 .text.HAL_DAC_MspDeInit
                0x080020b0       0x2c C:\msys64\opt\arduino-1.8.13\portable\sketchbook\arduino\F427ZIT6_SerLed\build\libraries\SrcWrapper\stm32\analog.cpp.o
                0x080020b0                HAL_DAC_MspDeInit
 .text.dac_stop
                0x080020dc       0x38 C:\msys64\opt\arduino-1.8.13\portable\sketchbook\arduino\F427ZIT6_SerLed\build\libraries\SrcWrapper\stm32\analog.cpp.o
                0x080020dc                dac_stop
 .text.pwm_stop
                0x08002114       0x60 C:\msys64\opt\arduino-1.8.13\portable\sketchbook\arduino\F427ZIT6_SerLed\build\libraries\SrcWrapper\stm32\analog.cpp.o
                0x08002114                pwm_stop
 .text._ZNSt14_Function_baseD2Ev
                0x08002174       0x12 C:\msys64\opt\arduino-1.8.13\portable\sketchbook\arduino\F427ZIT6_SerLed\build\libraries\SrcWrapper\stm32\interrupt.cpp.o
                0x08002174                std::_Function_base::~_Function_base()
                0x08002174                std::_Function_base::~_Function_base()
 *fill*         0x08002186        0x2 
 .text.HAL_GPIO_EXTI_Callback
                0x08002188       0x2c C:\msys64\opt\arduino-1.8.13\portable\sketchbook\arduino\F427ZIT6_SerLed\build\libraries\SrcWrapper\stm32\interrupt.cpp.o
                0x08002188                HAL_GPIO_EXTI_Callback
 .text.EXTI0_IRQHandler
                0x080021b4        0x6 C:\msys64\opt\arduino-1.8.13\portable\sketchbook\arduino\F427ZIT6_SerLed\build\libraries\SrcWrapper\stm32\interrupt.cpp.o
                0x080021b4                EXTI0_IRQHandler
 .text.EXTI1_IRQHandler
                0x080021ba        0x6 C:\msys64\opt\arduino-1.8.13\portable\sketchbook\arduino\F427ZIT6_SerLed\build\libraries\SrcWrapper\stm32\interrupt.cpp.o
                0x080021ba                EXTI1_IRQHandler
 .text.EXTI2_IRQHandler
                0x080021c0        0x6 C:\msys64\opt\arduino-1.8.13\portable\sketchbook\arduino\F427ZIT6_SerLed\build\libraries\SrcWrapper\stm32\interrupt.cpp.o
                0x080021c0                EXTI2_IRQHandler
 .text.EXTI3_IRQHandler
                0x080021c6        0x6 C:\msys64\opt\arduino-1.8.13\portable\sketchbook\arduino\F427ZIT6_SerLed\build\libraries\SrcWrapper\stm32\interrupt.cpp.o
                0x080021c6                EXTI3_IRQHandler
 .text.EXTI4_IRQHandler
                0x080021cc        0x6 C:\msys64\opt\arduino-1.8.13\portable\sketchbook\arduino\F427ZIT6_SerLed\build\libraries\SrcWrapper\stm32\interrupt.cpp.o
                0x080021cc                EXTI4_IRQHandler
 .text.EXTI9_5_IRQHandler
                0x080021d2       0x16 C:\msys64\opt\arduino-1.8.13\portable\sketchbook\arduino\F427ZIT6_SerLed\build\libraries\SrcWrapper\stm32\interrupt.cpp.o
                0x080021d2                EXTI9_5_IRQHandler
 .text.EXTI15_10_IRQHandler
                0x080021e8       0x18 C:\msys64\opt\arduino-1.8.13\portable\sketchbook\arduino\F427ZIT6_SerLed\build\libraries\SrcWrapper\stm32\interrupt.cpp.o
                0x080021e8                EXTI15_10_IRQHandler
 .text.startup._GLOBAL__sub_I__Z22stm32_interrupt_enableP12GPIO_TypeDeftSt8functionIFvvEEm
                0x08002200       0x88 C:\msys64\opt\arduino-1.8.13\portable\sketchbook\arduino\F427ZIT6_SerLed\build\libraries\SrcWrapper\stm32\interrupt.cpp.o
 .text.exit._GLOBAL__sub_D__Z22stm32_interrupt_enableP12GPIO_TypeDeftSt8functionIFvvEEm
                0x08002288       0x1c C:\msys64\opt\arduino-1.8.13\portable\sketchbook\arduino\F427ZIT6_SerLed\build\libraries\SrcWrapper\stm32\interrupt.cpp.o
 .text.SystemClock_Config
                0x080022a4       0x88 C:\msys64\opt\arduino-1.8.13\portable\sketchbook\arduino\F427ZIT6_SerLed\build\core\variant.cpp.o
                0x080022a4                SystemClock_Config
 .text.Reset_Handler
                0x0800232c       0x50 C:\msys64\opt\arduino-1.8.13\portable\sketchbook\arduino\F427ZIT6_SerLed\build\core\core.a(startup_stm32yyxx.S.o)
                0x0800232c                Reset_Handler
 .text.Default_Handler
                0x0800237c        0x2 C:\msys64\opt\arduino-1.8.13\portable\sketchbook\arduino\F427ZIT6_SerLed\build\core\core.a(startup_stm32yyxx.S.o)
                0x0800237c                HASH_RNG_IRQHandler
                0x0800237c                DebugMon_Handler
                0x0800237c                SPI4_IRQHandler
                0x0800237c                DMA2_Stream5_IRQHandler
                0x0800237c                HardFault_Handler
                0x0800237c                DMA1_Stream5_IRQHandler
                0x0800237c                PVD_IRQHandler
                0x0800237c                SDIO_IRQHandler
                0x0800237c                TAMP_STAMP_IRQHandler
                0x0800237c                PendSV_Handler
                0x0800237c                NMI_Handler
                0x0800237c                CAN2_RX1_IRQHandler
                0x0800237c                I2C3_ER_IRQHandler
                0x0800237c                I2C2_EV_IRQHandler
                0x0800237c                DMA1_Stream2_IRQHandler
                0x0800237c                CAN1_RX0_IRQHandler
                0x0800237c                FPU_IRQHandler
                0x0800237c                OTG_HS_WKUP_IRQHandler
                0x0800237c                UsageFault_Handler
                0x0800237c                CAN2_SCE_IRQHandler
                0x0800237c                DMA2_Stream2_IRQHandler
                0x0800237c                SPI1_IRQHandler
                0x0800237c                DCMI_IRQHandler
                0x0800237c                CAN2_RX0_IRQHandler
                0x0800237c                DMA2_Stream3_IRQHandler
                0x0800237c                CAN1_RX1_IRQHandler
                0x0800237c                DMA2_Stream0_IRQHandler
                0x0800237c                I2C1_EV_IRQHandler
                0x0800237c                DMA1_Stream6_IRQHandler
                0x0800237c                DMA1_Stream1_IRQHandler
                0x0800237c                RCC_IRQHandler
                0x0800237c                Default_Handler
                0x0800237c                ADC_IRQHandler
                0x0800237c                DMA1_Stream7_IRQHandler
                0x0800237c                SPI5_IRQHandler
                0x0800237c                CAN2_TX_IRQHandler
                0x0800237c                DMA2_Stream7_IRQHandler
                0x0800237c                I2C3_EV_IRQHandler
                0x0800237c                RTC_WKUP_IRQHandler
                0x0800237c                ETH_WKUP_IRQHandler
                0x0800237c                SPI2_IRQHandler
                0x0800237c                OTG_HS_EP1_IN_IRQHandler
                0x0800237c                MemManage_Handler
                0x0800237c                DMA1_Stream0_IRQHandler
                0x0800237c                CAN1_TX_IRQHandler
                0x0800237c                SVC_Handler
                0x0800237c                ETH_IRQHandler
                0x0800237c                OTG_HS_EP1_OUT_IRQHandler
                0x0800237c                WWDG_IRQHandler
                0x0800237c                SPI6_IRQHandler
                0x0800237c                OTG_FS_WKUP_IRQHandler
                0x0800237c                OTG_HS_IRQHandler
                0x0800237c                DMA2D_IRQHandler
                0x0800237c                I2C2_ER_IRQHandler
                0x0800237c                DMA2_Stream1_IRQHandler
                0x0800237c                CAN1_SCE_IRQHandler
                0x0800237c                FLASH_IRQHandler
                0x0800237c                DMA2_Stream4_IRQHandler
                0x0800237c                BusFault_Handler
                0x0800237c                OTG_FS_IRQHandler
                0x0800237c                SPI3_IRQHandler
                0x0800237c                DMA1_Stream4_IRQHandler
                0x0800237c                I2C1_ER_IRQHandler
                0x0800237c                FMC_IRQHandler
                0x0800237c                DMA2_Stream6_IRQHandler
                0x0800237c                SAI1_IRQHandler
                0x0800237c                DMA1_Stream3_IRQHandler
 *fill*         0x0800237e        0x2 
 .text.pinMode  0x08002380       0xb4 C:\msys64\opt\arduino-1.8.13\portable\sketchbook\arduino\F427ZIT6_SerLed\build\core\core.a(wiring_digital.c.o)
                0x08002380                pinMode
 .text.digitalWrite
                0x08002434       0x44 C:\msys64\opt\arduino-1.8.13\portable\sketchbook\arduino\F427ZIT6_SerLed\build\core\core.a(wiring_digital.c.o)
                0x08002434                digitalWrite
 .text.millis   0x08002478        0x4 C:\msys64\opt\arduino-1.8.13\portable\sketchbook\arduino\F427ZIT6_SerLed\build\core\core.a(wiring_time.c.o)
                0x08002478                millis
 .text.delay    0x0800247c       0x1c C:\msys64\opt\arduino-1.8.13\portable\sketchbook\arduino\F427ZIT6_SerLed\build\core\core.a(wiring_time.c.o)
                0x0800247c                delay
 .text._ZN14HardwareSerial16_tx_complete_irqEP8serial_s
                0x08002498       0x24 C:\msys64\opt\arduino-1.8.13\portable\sketchbook\arduino\F427ZIT6_SerLed\build\core\core.a(HardwareSerial.cpp.o)
                0x08002498                HardwareSerial::_tx_complete_irq(serial_s*)
 .text._ZN14HardwareSerial9availableEv
                0x080024bc       0x10 C:\msys64\opt\arduino-1.8.13\portable\sketchbook\arduino\F427ZIT6_SerLed\build\core\core.a(HardwareSerial.cpp.o)
                0x080024bc                HardwareSerial::available()
 .text._ZN14HardwareSerial4peekEv
                0x080024cc       0x1a C:\msys64\opt\arduino-1.8.13\portable\sketchbook\arduino\F427ZIT6_SerLed\build\core\core.a(HardwareSerial.cpp.o)
                0x080024cc                HardwareSerial::peek()
 .text._ZN14HardwareSerial16_rx_complete_irqEP8serial_s
                0x080024e6       0x38 C:\msys64\opt\arduino-1.8.13\portable\sketchbook\arduino\F427ZIT6_SerLed\build\core\core.a(HardwareSerial.cpp.o)
                0x080024e6                HardwareSerial::_rx_complete_irq(serial_s*)
 *fill*         0x0800251e        0x2 
 .text._ZN14HardwareSerial5writeEh
                0x08002520       0x60 C:\msys64\opt\arduino-1.8.13\portable\sketchbook\arduino\F427ZIT6_SerLed\build\core\core.a(HardwareSerial.cpp.o)
                0x08002520                HardwareSerial::write(unsigned char)
 .text._ZN14HardwareSerial5flushEv
                0x08002580       0x14 C:\msys64\opt\arduino-1.8.13\portable\sketchbook\arduino\F427ZIT6_SerLed\build\core\core.a(HardwareSerial.cpp.o)
                0x08002580                HardwareSerial::flush()
 .text._ZN14HardwareSerial4initE7PinNameS0_
                0x08002594       0x2c C:\msys64\opt\arduino-1.8.13\portable\sketchbook\arduino\F427ZIT6_SerLed\build\core\core.a(HardwareSerial.cpp.o)
                0x08002594                HardwareSerial::init(PinName, PinName)
 .text._ZN14HardwareSerialC2EPv16HalfDuplexMode_t
                0x080025c0       0x80 C:\msys64\opt\arduino-1.8.13\portable\sketchbook\arduino\F427ZIT6_SerLed\build\core\core.a(HardwareSerial.cpp.o)
                0x080025c0                HardwareSerial::HardwareSerial(void*, HalfDuplexMode_t)
                0x080025c0                HardwareSerial::HardwareSerial(void*, HalfDuplexMode_t)
 .text._ZN14HardwareSerial18enableHalfDuplexRxEv
                0x08002640       0x2c C:\msys64\opt\arduino-1.8.13\portable\sketchbook\arduino\F427ZIT6_SerLed\build\core\core.a(HardwareSerial.cpp.o)
                0x08002640                HardwareSerial::enableHalfDuplexRx()
 .text._ZN14HardwareSerial5beginEmh
                0x0800266c       0xa0 C:\msys64\opt\arduino-1.8.13\portable\sketchbook\arduino\F427ZIT6_SerLed\build\core\core.a(HardwareSerial.cpp.o)
                0x0800266c                HardwareSerial::begin(unsigned long, unsigned char)
 .text._ZN14HardwareSerial4readEv
                0x0800270c       0x2e C:\msys64\opt\arduino-1.8.13\portable\sketchbook\arduino\F427ZIT6_SerLed\build\core\core.a(HardwareSerial.cpp.o)
                0x0800270c                HardwareSerial::read()
 *fill*         0x0800273a        0x2 
 .text.startup._GLOBAL__sub_I_Serial3
                0x0800273c       0x14 C:\msys64\opt\arduino-1.8.13\portable\sketchbook\arduino\F427ZIT6_SerLed\build\core\core.a(HardwareSerial.cpp.o)
 .text._ZNSt8functionIFvvEEaSEDn.isra.0
                0x08002750       0x18 C:\msys64\opt\arduino-1.8.13\portable\sketchbook\arduino\F427ZIT6_SerLed\build\core\core.a(HardwareTimer.cpp.o)
 .text._Z15get_timer_indexP11TIM_TypeDef
                0x08002768       0xc0 C:\msys64\opt\arduino-1.8.13\portable\sketchbook\arduino\F427ZIT6_SerLed\build\core\core.a(HardwareTimer.cpp.o)
                0x08002768                get_timer_index(TIM_TypeDef*)
 .text._ZN13HardwareTimerD2Ev
                0x08002828       0x40 C:\msys64\opt\arduino-1.8.13\portable\sketchbook\arduino\F427ZIT6_SerLed\build\core\core.a(HardwareTimer.cpp.o)
                0x08002828                HardwareTimer::~HardwareTimer()
                0x08002828                HardwareTimer::~HardwareTimer()
 .text._ZN13HardwareTimerC2EP11TIM_TypeDef
                0x08002868       0xac C:\msys64\opt\arduino-1.8.13\portable\sketchbook\arduino\F427ZIT6_SerLed\build\core\core.a(HardwareTimer.cpp.o)
                0x08002868                HardwareTimer::HardwareTimer(TIM_TypeDef*)
                0x08002868                HardwareTimer::HardwareTimer(TIM_TypeDef*)
 .text.TIM1_UP_TIM10_IRQHandler
                0x08002914       0x24 C:\msys64\opt\arduino-1.8.13\portable\sketchbook\arduino\F427ZIT6_SerLed\build\core\core.a(HardwareTimer.cpp.o)
                0x08002914                TIM1_UP_TIM10_IRQHandler
 .text.TIM1_CC_IRQHandler
                0x08002938       0x14 C:\msys64\opt\arduino-1.8.13\portable\sketchbook\arduino\F427ZIT6_SerLed\build\core\core.a(HardwareTimer.cpp.o)
                0x08002938                TIM1_CC_IRQHandler
 .text.TIM2_IRQHandler
                0x0800294c       0x14 C:\msys64\opt\arduino-1.8.13\portable\sketchbook\arduino\F427ZIT6_SerLed\build\core\core.a(HardwareTimer.cpp.o)
                0x0800294c                TIM2_IRQHandler
 .text.TIM3_IRQHandler
                0x08002960       0x14 C:\msys64\opt\arduino-1.8.13\portable\sketchbook\arduino\F427ZIT6_SerLed\build\core\core.a(HardwareTimer.cpp.o)
                0x08002960                TIM3_IRQHandler
 .text.TIM4_IRQHandler
                0x08002974       0x14 C:\msys64\opt\arduino-1.8.13\portable\sketchbook\arduino\F427ZIT6_SerLed\build\core\core.a(HardwareTimer.cpp.o)
                0x08002974                TIM4_IRQHandler
 .text.TIM5_IRQHandler
                0x08002988       0x14 C:\msys64\opt\arduino-1.8.13\portable\sketchbook\arduino\F427ZIT6_SerLed\build\core\core.a(HardwareTimer.cpp.o)
                0x08002988                TIM5_IRQHandler
 .text.TIM6_DAC_IRQHandler
                0x0800299c       0x14 C:\msys64\opt\arduino-1.8.13\portable\sketchbook\arduino\F427ZIT6_SerLed\build\core\core.a(HardwareTimer.cpp.o)
                0x0800299c                TIM6_DAC_IRQHandler
 .text.TIM7_IRQHandler
                0x080029b0       0x14 C:\msys64\opt\arduino-1.8.13\portable\sketchbook\arduino\F427ZIT6_SerLed\build\core\core.a(HardwareTimer.cpp.o)
                0x080029b0                TIM7_IRQHandler
 .text.TIM8_UP_TIM13_IRQHandler
                0x080029c4       0x14 C:\msys64\opt\arduino-1.8.13\portable\sketchbook\arduino\F427ZIT6_SerLed\build\core\core.a(HardwareTimer.cpp.o)
                0x080029c4                TIM8_UP_TIM13_IRQHandler
 .text.TIM8_CC_IRQHandler
                0x080029d8        0x4 C:\msys64\opt\arduino-1.8.13\portable\sketchbook\arduino\F427ZIT6_SerLed\build\core\core.a(HardwareTimer.cpp.o)
                0x080029d8                TIM8_CC_IRQHandler
 .text.TIM1_BRK_TIM9_IRQHandler
                0x080029dc       0x14 C:\msys64\opt\arduino-1.8.13\portable\sketchbook\arduino\F427ZIT6_SerLed\build\core\core.a(HardwareTimer.cpp.o)
                0x080029dc                TIM1_BRK_TIM9_IRQHandler
 .text.TIM1_TRG_COM_TIM11_IRQHandler
                0x080029f0       0x14 C:\msys64\opt\arduino-1.8.13\portable\sketchbook\arduino\F427ZIT6_SerLed\build\core\core.a(HardwareTimer.cpp.o)
                0x080029f0                TIM1_TRG_COM_TIM11_IRQHandler
 .text.TIM8_BRK_TIM12_IRQHandler
                0x08002a04       0x14 C:\msys64\opt\arduino-1.8.13\portable\sketchbook\arduino\F427ZIT6_SerLed\build\core\core.a(HardwareTimer.cpp.o)
                0x08002a04                TIM8_BRK_TIM12_IRQHandler
 .text.TIM8_TRG_COM_TIM14_IRQHandler
                0x08002a18       0x14 C:\msys64\opt\arduino-1.8.13\portable\sketchbook\arduino\F427ZIT6_SerLed\build\core\core.a(HardwareTimer.cpp.o)
                0x08002a18                TIM8_TRG_COM_TIM14_IRQHandler
 .text._ZNKSt8functionIFvvEEclEv
                0x08002a2c       0x12 C:\msys64\opt\arduino-1.8.13\portable\sketchbook\arduino\F427ZIT6_SerLed\build\core\core.a(HardwareTimer.cpp.o)
                0x08002a2c                std::function<void ()>::operator()() const
 *fill*         0x08002a3e        0x2 
 .text._ZN13HardwareTimer14updateCallbackEP17TIM_HandleTypeDef
                0x08002a40       0x28 C:\msys64\opt\arduino-1.8.13\portable\sketchbook\arduino\F427ZIT6_SerLed\build\core\core.a(HardwareTimer.cpp.o)
                0x08002a40                HardwareTimer::updateCallback(TIM_HandleTypeDef*)
 .text.HAL_TIM_PeriodElapsedCallback
                0x08002a68        0x4 C:\msys64\opt\arduino-1.8.13\portable\sketchbook\arduino\F427ZIT6_SerLed\build\core\core.a(HardwareTimer.cpp.o)
                0x08002a68                HAL_TIM_PeriodElapsedCallback
 .text._ZN13HardwareTimer22captureCompareCallbackEP17TIM_HandleTypeDef
                0x08002a6c       0x50 C:\msys64\opt\arduino-1.8.13\portable\sketchbook\arduino\F427ZIT6_SerLed\build\core\core.a(HardwareTimer.cpp.o)
                0x08002a6c                HardwareTimer::captureCompareCallback(TIM_HandleTypeDef*)
 .text.HAL_TIM_OC_DelayElapsedCallback
                0x08002abc        0x4 C:\msys64\opt\arduino-1.8.13\portable\sketchbook\arduino\F427ZIT6_SerLed\build\core\core.a(HardwareTimer.cpp.o)
                0x08002abc                HAL_TIM_OC_DelayElapsedCallback
 .text.HAL_TIM_IC_CaptureCallback
                0x08002ac0        0x4 C:\msys64\opt\arduino-1.8.13\portable\sketchbook\arduino\F427ZIT6_SerLed\build\core\core.a(HardwareTimer.cpp.o)
                0x08002ac0                HAL_TIM_IC_CaptureCallback
 .text._ZN5Print5writeEPKhj
                0x08002ac4       0x22 C:\msys64\opt\arduino-1.8.13\portable\sketchbook\arduino\F427ZIT6_SerLed\build\core\core.a(Print.cpp.o)
                0x08002ac4                Print::write(unsigned char const*, unsigned int)
 .text._ZN5Print5writeEPKc
                0x08002ae6       0x24 C:\msys64\opt\arduino-1.8.13\portable\sketchbook\arduino\F427ZIT6_SerLed\build\core\core.a(Print.cpp.o)
                0x08002ae6                Print::write(char const*)
 *fill*         0x08002b0a        0x2 
 .text._ZN5Print7printlnEv
                0x08002b0c       0x10 C:\msys64\opt\arduino-1.8.13\portable\sketchbook\arduino\F427ZIT6_SerLed\build\core\core.a(Print.cpp.o)
                0x08002b0c                Print::println()
 .text._ZN5Print7printlnEPKc
                0x08002b1c       0x14 C:\msys64\opt\arduino-1.8.13\portable\sketchbook\arduino\F427ZIT6_SerLed\build\core\core.a(Print.cpp.o)
                0x08002b1c                Print::println(char const*)
 .text._ZN6Stream9timedReadEv
                0x08002b30       0x2a C:\msys64\opt\arduino-1.8.13\portable\sketchbook\arduino\F427ZIT6_SerLed\build\core\core.a(Stream.cpp.o)
                0x08002b30                Stream::timedRead()
 .text._ZN6Stream9readBytesEPcj
                0x08002b5a       0x22 C:\msys64\opt\arduino-1.8.13\portable\sketchbook\arduino\F427ZIT6_SerLed\build\core\core.a(Stream.cpp.o)
                0x08002b5a                Stream::readBytes(char*, unsigned int)
 .text._ZN6Stream14readBytesUntilEcPcj
                0x08002b7c       0x30 C:\msys64\opt\arduino-1.8.13\portable\sketchbook\arduino\F427ZIT6_SerLed\build\core\core.a(Stream.cpp.o)
                0x08002b7c                Stream::readBytesUntil(char, char*, unsigned int)
 .text.startup._Z7premainv
                0x08002bac       0x10 C:\msys64\opt\arduino-1.8.13\portable\sketchbook\arduino\F427ZIT6_SerLed\build\core\core.a(main.cpp.o)
                0x08002bac                premain()
 .text.startup.main
                0x08002bbc       0x14 C:\msys64\opt\arduino-1.8.13\portable\sketchbook\arduino\F427ZIT6_SerLed\build\core\core.a(main.cpp.o)
                0x08002bbc                main
 .text._Znwj    0x08002bd0        0x4 C:\msys64\opt\arduino-1.8.13\portable\sketchbook\arduino\F427ZIT6_SerLed\build\core\core.a(new.cpp.o)
                0x08002bd0                operator new(unsigned int)
 .text._ZdlPvj  0x08002bd4        0x4 C:\msys64\opt\arduino-1.8.13\portable\sketchbook\arduino\F427ZIT6_SerLed\build\core\core.a(new.cpp.o)
                0x08002bd4                operator delete(void*, unsigned int)
 .text.init     0x08002bd8        0x4 C:\msys64\opt\arduino-1.8.13\portable\sketchbook\arduino\F427ZIT6_SerLed\build\core\core.a(board.c.o)
                0x08002bd8                init
 .text.__empty  0x08002bdc        0x2 C:\msys64\opt\arduino-1.8.13\portable\sketchbook\arduino\F427ZIT6_SerLed\build\core\core.a(hooks.c.o)
                0x08002bdc                yield
 *fill*         0x08002bde        0x2 
 .text._Z14serialEventRunv
                0x08002be0       0x1c C:\msys64\opt\arduino-1.8.13\portable\sketchbook\arduino\F427ZIT6_SerLed\build\core\core.a(WSerial.cpp.o)
                0x08002be0                serialEventRun()
 .text.__libc_init_array
                0x08002bfc       0x48 c:/msys64/opt/arduino-1.8.13/portable/packages/stm32/tools/xpack-arm-none-eabi-gcc/9.2.1-1.1/bin/../lib/gcc/arm-none-eabi/9.2.1/../../../../arm-none-eabi/lib/thumb/v7e-m+fp/hard\libc_nano.a(lib_a-init.o)
                0x08002bfc                __libc_init_array
 .text.malloc   0x08002c44       0x10 c:/msys64/opt/arduino-1.8.13/portable/packages/stm32/tools/xpack-arm-none-eabi-gcc/9.2.1-1.1/bin/../lib/gcc/arm-none-eabi/9.2.1/../../../../arm-none-eabi/lib/thumb/v7e-m+fp/hard\libc_nano.a(lib_a-malloc.o)
                0x08002c44                malloc
 .text.free     0x08002c54       0x10 c:/msys64/opt/arduino-1.8.13/portable/packages/stm32/tools/xpack-arm-none-eabi-gcc/9.2.1-1.1/bin/../lib/gcc/arm-none-eabi/9.2.1/../../../../arm-none-eabi/lib/thumb/v7e-m+fp/hard\libc_nano.a(lib_a-malloc.o)
                0x08002c54                free
 .text._free_r  0x08002c64       0xa0 c:/msys64/opt/arduino-1.8.13/portable/packages/stm32/tools/xpack-arm-none-eabi-gcc/9.2.1-1.1/bin/../lib/gcc/arm-none-eabi/9.2.1/../../../../arm-none-eabi/lib/thumb/v7e-m+fp/hard\libc_nano.a(lib_a-nano-freer.o)
                0x08002c64                _free_r
 .text._malloc_r
                0x08002d04       0xb4 c:/msys64/opt/arduino-1.8.13/portable/packages/stm32/tools/xpack-arm-none-eabi-gcc/9.2.1-1.1/bin/../lib/gcc/arm-none-eabi/9.2.1/../../../../arm-none-eabi/lib/thumb/v7e-m+fp/hard\libc_nano.a(lib_a-nano-mallocr.o)
                0x08002d04                _malloc_r
 .text._sbrk_r  0x08002db8       0x20 c:/msys64/opt/arduino-1.8.13/portable/packages/stm32/tools/xpack-arm-none-eabi-gcc/9.2.1-1.1/bin/../lib/gcc/arm-none-eabi/9.2.1/../../../../arm-none-eabi/lib/thumb/v7e-m+fp/hard\libc_nano.a(lib_a-sbrkr.o)
                0x08002db8                _sbrk_r
 .text.__retarget_lock_acquire_recursive
                0x08002dd8        0x2 c:/msys64/opt/arduino-1.8.13/portable/packages/stm32/tools/xpack-arm-none-eabi-gcc/9.2.1-1.1/bin/../lib/gcc/arm-none-eabi/9.2.1/../../../../arm-none-eabi/lib/thumb/v7e-m+fp/hard\libc_nano.a(lib_a-lock.o)
                0x08002dd8                __retarget_lock_acquire_recursive
 .text.__retarget_lock_release_recursive
                0x08002dda        0x2 c:/msys64/opt/arduino-1.8.13/portable/packages/stm32/tools/xpack-arm-none-eabi-gcc/9.2.1-1.1/bin/../lib/gcc/arm-none-eabi/9.2.1/../../../../arm-none-eabi/lib/thumb/v7e-m+fp/hard\libc_nano.a(lib_a-lock.o)
                0x08002dda                __retarget_lock_release_recursive
 .text.__malloc_lock
                0x08002ddc        0xc c:/msys64/opt/arduino-1.8.13/portable/packages/stm32/tools/xpack-arm-none-eabi-gcc/9.2.1-1.1/bin/../lib/gcc/arm-none-eabi/9.2.1/../../../../arm-none-eabi/lib/thumb/v7e-m+fp/hard\libc_nano.a(lib_a-mlock.o)
                0x08002ddc                __malloc_lock
 .text.__malloc_unlock
                0x08002de8        0xc c:/msys64/opt/arduino-1.8.13/portable/packages/stm32/tools/xpack-arm-none-eabi-gcc/9.2.1-1.1/bin/../lib/gcc/arm-none-eabi/9.2.1/../../../../arm-none-eabi/lib/thumb/v7e-m+fp/hard\libc_nano.a(lib_a-mlock.o)
                0x08002de8                __malloc_unlock
 .text.__udivmoddi4
                0x08002df4      0x2c4 c:/msys64/opt/arduino-1.8.13/portable/packages/stm32/tools/xpack-arm-none-eabi-gcc/9.2.1-1.1/bin/../lib/gcc/arm-none-eabi/9.2.1/thumb/v7e-m+fp/hard\libgcc.a(_udivmoddi4.o)
                0x08002df4                __udivmoddi4
 .text.unlikely._ZSt25__throw_bad_function_callv
                0x080030b8        0x6 c:/msys64/opt/arduino-1.8.13/portable/packages/stm32/tools/xpack-arm-none-eabi-gcc/9.2.1-1.1/bin/../lib/gcc/arm-none-eabi/9.2.1/../../../../arm-none-eabi/lib/thumb/v7e-m+fp/hard\libstdc++_nano.a(functional.o)
                0x080030b8                std::__throw_bad_function_call()
 .text.abort    0x080030be        0xe c:/msys64/opt/arduino-1.8.13/portable/packages/stm32/tools/xpack-arm-none-eabi-gcc/9.2.1-1.1/bin/../lib/gcc/arm-none-eabi/9.2.1/../../../../arm-none-eabi/lib/thumb/v7e-m+fp/hard\libc_nano.a(lib_a-abort.o)
                0x080030be                abort
 .text._raise_r
                0x080030cc       0x50 c:/msys64/opt/arduino-1.8.13/portable/packages/stm32/tools/xpack-arm-none-eabi-gcc/9.2.1-1.1/bin/../lib/gcc/arm-none-eabi/9.2.1/../../../../arm-none-eabi/lib/thumb/v7e-m+fp/hard\libc_nano.a(lib_a-signal.o)
                0x080030cc                _raise_r
 .text.raise    0x0800311c       0x10 c:/msys64/opt/arduino-1.8.13/portable/packages/stm32/tools/xpack-arm-none-eabi-gcc/9.2.1-1.1/bin/../lib/gcc/arm-none-eabi/9.2.1/../../../../arm-none-eabi/lib/thumb/v7e-m+fp/hard\libc_nano.a(lib_a-signal.o)
                0x0800311c                raise
 .text._kill_r  0x0800312c       0x24 c:/msys64/opt/arduino-1.8.13/portable/packages/stm32/tools/xpack-arm-none-eabi-gcc/9.2.1-1.1/bin/../lib/gcc/arm-none-eabi/9.2.1/../../../../arm-none-eabi/lib/thumb/v7e-m+fp/hard\libc_nano.a(lib_a-signalr.o)
                0x0800312c                _kill_r
 .text._getpid_r
                0x08003150        0x4 c:/msys64/opt/arduino-1.8.13/portable/packages/stm32/tools/xpack-arm-none-eabi-gcc/9.2.1-1.1/bin/../lib/gcc/arm-none-eabi/9.2.1/../../../../arm-none-eabi/lib/thumb/v7e-m+fp/hard\libc_nano.a(lib_a-signalr.o)
                0x08003150                _getpid_r
 *(.glue_7)
 .glue_7        0x08003154        0x0 linker stubs
 *(.glue_7t)
 .glue_7t       0x08003154        0x0 linker stubs
 *(.eh_frame)
 .eh_frame      0x08003154        0x0 c:/msys64/opt/arduino-1.8.13/portable/packages/stm32/tools/xpack-arm-none-eabi-gcc/9.2.1-1.1/bin/../lib/gcc/arm-none-eabi/9.2.1/thumb/v7e-m+fp/hard/crtbegin.o
 *(.init)
 .init          0x08003154        0x4 c:/msys64/opt/arduino-1.8.13/portable/packages/stm32/tools/xpack-arm-none-eabi-gcc/9.2.1-1.1/bin/../lib/gcc/arm-none-eabi/9.2.1/thumb/v7e-m+fp/hard/crti.o
                0x08003154                _init
 .init          0x08003158        0x8 c:/msys64/opt/arduino-1.8.13/portable/packages/stm32/tools/xpack-arm-none-eabi-gcc/9.2.1-1.1/bin/../lib/gcc/arm-none-eabi/9.2.1/thumb/v7e-m+fp/hard/crtn.o
 *(.fini)
 .fini          0x08003160        0x4 c:/msys64/opt/arduino-1.8.13/portable/packages/stm32/tools/xpack-arm-none-eabi-gcc/9.2.1-1.1/bin/../lib/gcc/arm-none-eabi/9.2.1/thumb/v7e-m+fp/hard/crti.o
                0x08003160                _fini
 .fini          0x08003164        0x8 c:/msys64/opt/arduino-1.8.13/portable/packages/stm32/tools/xpack-arm-none-eabi-gcc/9.2.1-1.1/bin/../lib/gcc/arm-none-eabi/9.2.1/thumb/v7e-m+fp/hard/crtn.o
                0x0800316c                . = ALIGN (0x4)
                0x0800316c                _etext = .

.vfp11_veneer   0x0800316c        0x0
 .vfp11_veneer  0x0800316c        0x0 linker stubs

.v4_bx          0x0800316c        0x0
 .v4_bx         0x0800316c        0x0 linker stubs

.iplt           0x0800316c        0x0
 .iplt          0x0800316c        0x0 c:/msys64/opt/arduino-1.8.13/portable/packages/stm32/tools/xpack-arm-none-eabi-gcc/9.2.1-1.1/bin/../lib/gcc/arm-none-eabi/9.2.1/thumb/v7e-m+fp/hard/crtbegin.o

.rodata         0x0800316c      0x6a8
                0x0800316c                . = ALIGN (0x4)
 *(.rodata)
 *(.rodata*)
 .rodata.loop.str1.1
                0x0800316c       0x10 C:\msys64\opt\arduino-1.8.13\portable\sketchbook\arduino\F427ZIT6_SerLed\build\sketch\F427ZIT6_SerLed.ino.cpp.o
 .rodata.pin_function.str1.1
                0x0800317c       0x72 C:\msys64\opt\arduino-1.8.13\portable\sketchbook\arduino\F427ZIT6_SerLed\build\libraries\SrcWrapper\stm32\pinmap.c.o
 *fill*         0x080031ee        0x2 
 .rodata.pin_map_ll
                0x080031f0       0x40 C:\msys64\opt\arduino-1.8.13\portable\sketchbook\arduino\F427ZIT6_SerLed\build\libraries\SrcWrapper\stm32\pinmap.c.o
                0x080031f0                pin_map_ll
 .rodata.AHBPrescTable
                0x08003230       0x10 C:\msys64\opt\arduino-1.8.13\portable\sketchbook\arduino\F427ZIT6_SerLed\build\libraries\SrcWrapper\stm32\system_stm32yyxx.c.o
                0x08003230                AHBPrescTable
 .rodata.APBPrescTable
                0x08003240        0x8 C:\msys64\opt\arduino-1.8.13\portable\sketchbook\arduino\F427ZIT6_SerLed\build\libraries\SrcWrapper\stm32\system_stm32yyxx.c.o
                0x08003240                APBPrescTable
 .rodata.getTimerUpIrq.str1.1
                0x08003248       0x18 C:\msys64\opt\arduino-1.8.13\portable\sketchbook\arduino\F427ZIT6_SerLed\build\libraries\SrcWrapper\stm32\timer.c.o
 .rodata.PinMap_DAC
                0x08003260       0x24 C:\msys64\opt\arduino-1.8.13\portable\sketchbook\arduino\F427ZIT6_SerLed\build\core\PeripheralPins.c.o
                0x08003260                PinMap_DAC
 .rodata.PinMap_PWM
                0x08003284      0x1d4 C:\msys64\opt\arduino-1.8.13\portable\sketchbook\arduino\F427ZIT6_SerLed\build\core\PeripheralPins.c.o
                0x08003284                PinMap_PWM
 .rodata.PinMap_UART_RX
                0x08003458       0x90 C:\msys64\opt\arduino-1.8.13\portable\sketchbook\arduino\F427ZIT6_SerLed\build\core\PeripheralPins.c.o
                0x08003458                PinMap_UART_RX
 .rodata.PinMap_UART_TX
                0x080034e8       0x9c C:\msys64\opt\arduino-1.8.13\portable\sketchbook\arduino\F427ZIT6_SerLed\build\core\PeripheralPins.c.o
                0x080034e8                PinMap_UART_TX
 .rodata.digitalPin
                0x08003584       0xc0 C:\msys64\opt\arduino-1.8.13\portable\sketchbook\arduino\F427ZIT6_SerLed\build\core\variant.cpp.o
                0x08003584                digitalPin
 .rodata.pinMode.str1.1
                0x08003644       0x69 C:\msys64\opt\arduino-1.8.13\portable\sketchbook\arduino\F427ZIT6_SerLed\build\core\core.a(wiring_digital.c.o)
 .rodata._ZN14HardwareSerial5beginEmh.str1.1
                0x080036ad       0x6b C:\msys64\opt\arduino-1.8.13\portable\sketchbook\arduino\F427ZIT6_SerLed\build\core\core.a(HardwareSerial.cpp.o)
 .rodata.CSWTCH.41
                0x08003718        0x5 C:\msys64\opt\arduino-1.8.13\portable\sketchbook\arduino\F427ZIT6_SerLed\build\core\core.a(HardwareSerial.cpp.o)
 *fill*         0x0800371d        0x3 
 .rodata._ZTV14HardwareSerial
                0x08003720       0x28 C:\msys64\opt\arduino-1.8.13\portable\sketchbook\arduino\F427ZIT6_SerLed\build\core\core.a(HardwareSerial.cpp.o)
                0x08003720                vtable for HardwareSerial
 .rodata._ZN13HardwareTimer12pauseChannelEm.str1.1
                0x08003748       0x6a C:\msys64\opt\arduino-1.8.13\portable\sketchbook\arduino\F427ZIT6_SerLed\build\core\core.a(HardwareTimer.cpp.o)
 .rodata._ZN5Print7printlnEv.str1.1
                0x080037b2       0x6a C:\msys64\opt\arduino-1.8.13\portable\sketchbook\arduino\F427ZIT6_SerLed\build\core\core.a(Print.cpp.o)
                                  0x3 (size before relaxing)
 *fill*         0x080037b2        0x2 
 .rodata.__sf_fake_stderr
                0x080037b4       0x20 c:/msys64/opt/arduino-1.8.13/portable/packages/stm32/tools/xpack-arm-none-eabi-gcc/9.2.1-1.1/bin/../lib/gcc/arm-none-eabi/9.2.1/../../../../arm-none-eabi/lib/thumb/v7e-m+fp/hard\libc_nano.a(lib_a-findfp.o)
                0x080037b4                __sf_fake_stderr
 .rodata.__sf_fake_stdin
                0x080037d4       0x20 c:/msys64/opt/arduino-1.8.13/portable/packages/stm32/tools/xpack-arm-none-eabi-gcc/9.2.1-1.1/bin/../lib/gcc/arm-none-eabi/9.2.1/../../../../arm-none-eabi/lib/thumb/v7e-m+fp/hard\libc_nano.a(lib_a-findfp.o)
                0x080037d4                __sf_fake_stdin
 .rodata.__sf_fake_stdout
                0x080037f4       0x20 c:/msys64/opt/arduino-1.8.13/portable/packages/stm32/tools/xpack-arm-none-eabi-gcc/9.2.1-1.1/bin/../lib/gcc/arm-none-eabi/9.2.1/../../../../arm-none-eabi/lib/thumb/v7e-m+fp/hard\libc_nano.a(lib_a-findfp.o)
                0x080037f4                __sf_fake_stdout
                0x08003814                . = ALIGN (0x4)

.ARM.extab
 *(.ARM.extab* .gnu.linkonce.armextab.*)

.ARM            0x08003814        0x8
                0x08003814                __exidx_start = .
 *(.ARM.exidx*)
 .ARM.exidx.text.__udivmoddi4
                0x08003814        0x8 c:/msys64/opt/arduino-1.8.13/portable/packages/stm32/tools/xpack-arm-none-eabi-gcc/9.2.1-1.1/bin/../lib/gcc/arm-none-eabi/9.2.1/thumb/v7e-m+fp/hard\libgcc.a(_udivmoddi4.o)
                0x0800381c                __exidx_end = .

.rel.dyn        0x0800381c        0x0
 .rel.iplt      0x0800381c        0x0 c:/msys64/opt/arduino-1.8.13/portable/packages/stm32/tools/xpack-arm-none-eabi-gcc/9.2.1-1.1/bin/../lib/gcc/arm-none-eabi/9.2.1/thumb/v7e-m+fp/hard/crtbegin.o

.preinit_array  0x0800381c        0x0
                0x0800381c                PROVIDE (__preinit_array_start = .)
 *(.preinit_array*)
                0x0800381c                PROVIDE (__preinit_array_end = .)

.init_array     0x0800381c       0x10
                0x0800381c                PROVIDE (__init_array_start = .)
 *(SORT_BY_NAME(.init_array.*))
 .init_array.00101
                0x0800381c        0x4 C:\msys64\opt\arduino-1.8.13\portable\sketchbook\arduino\F427ZIT6_SerLed\build\core\core.a(main.cpp.o)
 *(.init_array*)
 .init_array    0x08003820        0x4 c:/msys64/opt/arduino-1.8.13/portable/packages/stm32/tools/xpack-arm-none-eabi-gcc/9.2.1-1.1/bin/../lib/gcc/arm-none-eabi/9.2.1/thumb/v7e-m+fp/hard/crtbegin.o
 .init_array    0x08003824        0x4 C:\msys64\opt\arduino-1.8.13\portable\sketchbook\arduino\F427ZIT6_SerLed\build\libraries\SrcWrapper\stm32\interrupt.cpp.o
 .init_array    0x08003828        0x4 C:\msys64\opt\arduino-1.8.13\portable\sketchbook\arduino\F427ZIT6_SerLed\build\core\core.a(HardwareSerial.cpp.o)
                0x0800382c                PROVIDE (__init_array_end = .)

.fini_array     0x0800382c        0x8
                [!provide]                PROVIDE (__fini_array_start = .)
 *(SORT_BY_NAME(.fini_array.*))
 *(.fini_array*)
 .fini_array    0x0800382c        0x4 c:/msys64/opt/arduino-1.8.13/portable/packages/stm32/tools/xpack-arm-none-eabi-gcc/9.2.1-1.1/bin/../lib/gcc/arm-none-eabi/9.2.1/thumb/v7e-m+fp/hard/crtbegin.o
 .fini_array    0x08003830        0x4 C:\msys64\opt\arduino-1.8.13\portable\sketchbook\arduino\F427ZIT6_SerLed\build\libraries\SrcWrapper\stm32\interrupt.cpp.o
                [!provide]                PROVIDE (__fini_array_end = .)
                0x08003834                _sidata = LOADADDR (.data)

.data           0x20000000       0xa0 load address 0x08003834
                0x20000000                . = ALIGN (0x4)
                0x20000000                _sdata = .
 *(.data)
 *(.data*)
 .data.heap_end.9615
                0x20000000        0x4 C:\msys64\opt\arduino-1.8.13\portable\sketchbook\arduino\F427ZIT6_SerLed\build\libraries\SrcWrapper\syscalls.c.o
 .data.uwTickFreq
                0x20000004        0x1 C:\msys64\opt\arduino-1.8.13\portable\sketchbook\arduino\F427ZIT6_SerLed\build\libraries\SrcWrapper\HAL\stm32yyxx_hal.c.o
                0x20000004                uwTickFreq
 *fill*         0x20000005        0x3 
 .data.uwTickPrio
                0x20000008        0x4 C:\msys64\opt\arduino-1.8.13\portable\sketchbook\arduino\F427ZIT6_SerLed\build\libraries\SrcWrapper\HAL\stm32yyxx_hal.c.o
                0x20000008                uwTickPrio
 .data.GPIOPort
                0x2000000c       0x2c C:\msys64\opt\arduino-1.8.13\portable\sketchbook\arduino\F427ZIT6_SerLed\build\libraries\SrcWrapper\stm32\PortNames.c.o
                0x2000000c                GPIOPort
 .data.SystemCoreClock
                0x20000038        0x4 C:\msys64\opt\arduino-1.8.13\portable\sketchbook\arduino\F427ZIT6_SerLed\build\libraries\SrcWrapper\stm32\system_stm32yyxx.c.o
                0x20000038                SystemCoreClock
 .data._impure_ptr
                0x2000003c        0x4 c:/msys64/opt/arduino-1.8.13/portable/packages/stm32/tools/xpack-arm-none-eabi-gcc/9.2.1-1.1/bin/../lib/gcc/arm-none-eabi/9.2.1/../../../../arm-none-eabi/lib/thumb/v7e-m+fp/hard\libc_nano.a(lib_a-impure.o)
                0x2000003c                _impure_ptr
 .data.impure_data
                0x20000040       0x60 c:/msys64/opt/arduino-1.8.13/portable/packages/stm32/tools/xpack-arm-none-eabi-gcc/9.2.1-1.1/bin/../lib/gcc/arm-none-eabi/9.2.1/../../../../arm-none-eabi/lib/thumb/v7e-m+fp/hard\libc_nano.a(lib_a-impure.o)
                0x200000a0                . = ALIGN (0x4)
                0x200000a0                _edata = .
                0x080038d4                _siccmram = LOADADDR (.ccmram)

.igot.plt       0x200000a0        0x0 load address 0x080038d4
 .igot.plt      0x200000a0        0x0 c:/msys64/opt/arduino-1.8.13/portable/packages/stm32/tools/xpack-arm-none-eabi-gcc/9.2.1-1.1/bin/../lib/gcc/arm-none-eabi/9.2.1/thumb/v7e-m+fp/hard/crtbegin.o

.ccmram         0x10000000        0x0 load address 0x080038d4
                0x10000000                . = ALIGN (0x4)
                0x10000000                _sccmram = .
 *(.ccmram)
 *(.ccmram*)
                0x10000000                . = ALIGN (0x4)
                0x10000000                _eccmram = .
                0x10000000                . = ALIGN (0x4)

.bss            0x200000a0      0x324
                0x200000a0                _sbss = .
                0x200000a0                __bss_start__ = _sbss
 *(.bss)
 *(.bss*)
 .bss.completed.10274
                0x200000a0        0x1 c:/msys64/opt/arduino-1.8.13/portable/packages/stm32/tools/xpack-arm-none-eabi-gcc/9.2.1-1.1/bin/../lib/gcc/arm-none-eabi/9.2.1/thumb/v7e-m+fp/hard/crtbegin.o
 *fill*         0x200000a1        0x3 
 .bss.object.10279
                0x200000a4       0x18 c:/msys64/opt/arduino-1.8.13/portable/packages/stm32/tools/xpack-arm-none-eabi-gcc/9.2.1-1.1/bin/../lib/gcc/arm-none-eabi/9.2.1/thumb/v7e-m+fp/hard/crtbegin.o
 .bss.RTCUserCallback
                0x200000bc        0x4 C:\msys64\opt\arduino-1.8.13\portable\sketchbook\arduino\F427ZIT6_SerLed\build\libraries\SrcWrapper\stm32\rtc.c.o
 .bss.RtcHandle
                0x200000c0       0x20 C:\msys64\opt\arduino-1.8.13\portable\sketchbook\arduino\F427ZIT6_SerLed\build\libraries\SrcWrapper\stm32\rtc.c.o
 .bss.callbackUserData
                0x200000e0        0x4 C:\msys64\opt\arduino-1.8.13\portable\sketchbook\arduino\F427ZIT6_SerLed\build\libraries\SrcWrapper\stm32\rtc.c.o
 .bss.uart_handlers
                0x200000e4       0x20 C:\msys64\opt\arduino-1.8.13\portable\sketchbook\arduino\F427ZIT6_SerLed\build\libraries\SrcWrapper\stm32\uart.c.o
 .bss._ZL13gpio_irq_conf
                0x20000104      0x140 C:\msys64\opt\arduino-1.8.13\portable\sketchbook\arduino\F427ZIT6_SerLed\build\libraries\SrcWrapper\stm32\interrupt.cpp.o
 .bss.Serial3   0x20000244      0x100 C:\msys64\opt\arduino-1.8.13\portable\sketchbook\arduino\F427ZIT6_SerLed\build\core\core.a(HardwareSerial.cpp.o)
                0x20000244                Serial3
 .bss.HardwareTimer_Handle
                0x20000344       0x38 C:\msys64\opt\arduino-1.8.13\portable\sketchbook\arduino\F427ZIT6_SerLed\build\core\core.a(HardwareTimer.cpp.o)
                0x20000344                HardwareTimer_Handle
 .bss.g_anOutputPinConfigured
                0x2000037c       0x2c C:\msys64\opt\arduino-1.8.13\portable\sketchbook\arduino\F427ZIT6_SerLed\build\core\core.a(wiring_analog.c.o)
                0x2000037c                g_anOutputPinConfigured
 .bss.__malloc_free_list
                0x200003a8        0x4 c:/msys64/opt/arduino-1.8.13/portable/packages/stm32/tools/xpack-arm-none-eabi-gcc/9.2.1-1.1/bin/../lib/gcc/arm-none-eabi/9.2.1/../../../../arm-none-eabi/lib/thumb/v7e-m+fp/hard\libc_nano.a(lib_a-nano-mallocr.o)
                0x200003a8                __malloc_free_list
 .bss.__malloc_sbrk_start
                0x200003ac        0x4 c:/msys64/opt/arduino-1.8.13/portable/packages/stm32/tools/xpack-arm-none-eabi-gcc/9.2.1-1.1/bin/../lib/gcc/arm-none-eabi/9.2.1/../../../../arm-none-eabi/lib/thumb/v7e-m+fp/hard\libc_nano.a(lib_a-nano-mallocr.o)
                0x200003ac                __malloc_sbrk_start
 *(COMMON)
 COMMON         0x200003b0        0x4 C:\msys64\opt\arduino-1.8.13\portable\sketchbook\arduino\F427ZIT6_SerLed\build\libraries\SrcWrapper\HAL\stm32yyxx_hal.c.o
                0x200003b0                uwTick
 COMMON         0x200003b4        0x4 c:/msys64/opt/arduino-1.8.13/portable/packages/stm32/tools/xpack-arm-none-eabi-gcc/9.2.1-1.1/bin/../lib/gcc/arm-none-eabi/9.2.1/../../../../arm-none-eabi/lib/thumb/v7e-m+fp/hard\libc_nano.a(lib_a-reent.o)
                0x200003b4                errno
 COMMON         0x200003b8        0x9 c:/msys64/opt/arduino-1.8.13/portable/packages/stm32/tools/xpack-arm-none-eabi-gcc/9.2.1-1.1/bin/../lib/gcc/arm-none-eabi/9.2.1/../../../../arm-none-eabi/lib/thumb/v7e-m+fp/hard\libc_nano.a(lib_a-lock.o)
                0x200003b8                __lock___atexit_recursive_mutex
                0x200003b9                __lock___arc4random_mutex
                0x200003ba                __lock___env_recursive_mutex
                0x200003bb                __lock___sinit_recursive_mutex
                0x200003bc                __lock___malloc_recursive_mutex
                0x200003bd                __lock___at_quick_exit_mutex
                0x200003be                __lock___dd_hash_mutex
                0x200003bf                __lock___tz_mutex
                0x200003c0                __lock___sfp_recursive_mutex
                0x200003c4                . = ALIGN (0x4)
 *fill*         0x200003c1        0x3 
                0x200003c4                _ebss = .
                0x200003c4                __bss_end__ = _ebss

._user_heap_stack
                0x200003c4     0x2404
                0x200003c8                . = ALIGN (0x8)
 *fill*         0x200003c4        0x4 
                [!provide]                PROVIDE (end = .)
                0x200003c8                PROVIDE (_end = .)
                0x200023c8                . = (. + _Min_Heap_Size)
 *fill*         0x200003c8     0x2000 
                0x200027c8                . = (. + _Min_Stack_Size)
 *fill*         0x200023c8      0x400 
                0x200027c8                . = ALIGN (0x8)

/DISCARD/
 libc.a(*)
 libm.a(*)
 libgcc.a(*)

.ARM.attributes
                0x00000000       0x30
 *(.ARM.attributes)
 .ARM.attributes
                0x00000000       0x1e c:/msys64/opt/arduino-1.8.13/portable/packages/stm32/tools/xpack-arm-none-eabi-gcc/9.2.1-1.1/bin/../lib/gcc/arm-none-eabi/9.2.1/thumb/v7e-m+fp/hard/crti.o
 .ARM.attributes
                0x0000001e       0x34 c:/msys64/opt/arduino-1.8.13/portable/packages/stm32/tools/xpack-arm-none-eabi-gcc/9.2.1-1.1/bin/../lib/gcc/arm-none-eabi/9.2.1/thumb/v7e-m+fp/hard/crtbegin.o
 .ARM.attributes
                0x00000052       0x34 C:\msys64\opt\arduino-1.8.13\portable\sketchbook\arduino\F427ZIT6_SerLed\build\sketch\F427ZIT6_SerLed.ino.cpp.o
 .ARM.attributes
                0x00000086       0x34 C:\msys64\opt\arduino-1.8.13\portable\sketchbook\arduino\F427ZIT6_SerLed\build\libraries\SrcWrapper\syscalls.c.o
 .ARM.attributes
                0x000000ba       0x34 C:\msys64\opt\arduino-1.8.13\portable\sketchbook\arduino\F427ZIT6_SerLed\build\libraries\SrcWrapper\HAL\stm32yyxx_hal.c.o
 .ARM.attributes
                0x000000ee       0x34 C:\msys64\opt\arduino-1.8.13\portable\sketchbook\arduino\F427ZIT6_SerLed\build\libraries\SrcWrapper\HAL\stm32yyxx_hal_cortex.c.o
 .ARM.attributes
                0x00000122       0x34 C:\msys64\opt\arduino-1.8.13\portable\sketchbook\arduino\F427ZIT6_SerLed\build\libraries\SrcWrapper\HAL\stm32yyxx_hal_dac.c.o
 .ARM.attributes
                0x00000156       0x34 C:\msys64\opt\arduino-1.8.13\portable\sketchbook\arduino\F427ZIT6_SerLed\build\libraries\SrcWrapper\HAL\stm32yyxx_hal_dma.c.o
 .ARM.attributes
                0x0000018a       0x34 C:\msys64\opt\arduino-1.8.13\portable\sketchbook\arduino\F427ZIT6_SerLed\build\libraries\SrcWrapper\HAL\stm32yyxx_hal_gpio.c.o
 .ARM.attributes
                0x000001be       0x34 C:\msys64\opt\arduino-1.8.13\portable\sketchbook\arduino\F427ZIT6_SerLed\build\libraries\SrcWrapper\HAL\stm32yyxx_hal_pwr_ex.c.o
 .ARM.attributes
                0x000001f2       0x34 C:\msys64\opt\arduino-1.8.13\portable\sketchbook\arduino\F427ZIT6_SerLed\build\libraries\SrcWrapper\HAL\stm32yyxx_hal_rcc.c.o
 .ARM.attributes
                0x00000226       0x34 C:\msys64\opt\arduino-1.8.13\portable\sketchbook\arduino\F427ZIT6_SerLed\build\libraries\SrcWrapper\HAL\stm32yyxx_hal_rtc.c.o
 .ARM.attributes
                0x0000025a       0x34 C:\msys64\opt\arduino-1.8.13\portable\sketchbook\arduino\F427ZIT6_SerLed\build\libraries\SrcWrapper\HAL\stm32yyxx_hal_rtc_ex.c.o
 .ARM.attributes
                0x0000028e       0x34 C:\msys64\opt\arduino-1.8.13\portable\sketchbook\arduino\F427ZIT6_SerLed\build\libraries\SrcWrapper\HAL\stm32yyxx_hal_tim.c.o
 .ARM.attributes
                0x000002c2       0x34 C:\msys64\opt\arduino-1.8.13\portable\sketchbook\arduino\F427ZIT6_SerLed\build\libraries\SrcWrapper\HAL\stm32yyxx_hal_tim_ex.c.o
 .ARM.attributes
                0x000002f6       0x34 C:\msys64\opt\arduino-1.8.13\portable\sketchbook\arduino\F427ZIT6_SerLed\build\libraries\SrcWrapper\HAL\stm32yyxx_hal_uart.c.o
 .ARM.attributes
                0x0000032a       0x34 C:\msys64\opt\arduino-1.8.13\portable\sketchbook\arduino\F427ZIT6_SerLed\build\libraries\SrcWrapper\stm32\PortNames.c.o
 .ARM.attributes
                0x0000035e       0x34 C:\msys64\opt\arduino-1.8.13\portable\sketchbook\arduino\F427ZIT6_SerLed\build\libraries\SrcWrapper\stm32\clock.c.o
 .ARM.attributes
                0x00000392       0x34 C:\msys64\opt\arduino-1.8.13\portable\sketchbook\arduino\F427ZIT6_SerLed\build\libraries\SrcWrapper\stm32\dwt.c.o
 .ARM.attributes
                0x000003c6       0x34 C:\msys64\opt\arduino-1.8.13\portable\sketchbook\arduino\F427ZIT6_SerLed\build\libraries\SrcWrapper\stm32\hw_config.c.o
 .ARM.attributes
                0x000003fa       0x34 C:\msys64\opt\arduino-1.8.13\portable\sketchbook\arduino\F427ZIT6_SerLed\build\libraries\SrcWrapper\stm32\pinmap.c.o
 .ARM.attributes
                0x0000042e       0x34 C:\msys64\opt\arduino-1.8.13\portable\sketchbook\arduino\F427ZIT6_SerLed\build\libraries\SrcWrapper\stm32\rtc.c.o
 .ARM.attributes
                0x00000462       0x34 C:\msys64\opt\arduino-1.8.13\portable\sketchbook\arduino\F427ZIT6_SerLed\build\libraries\SrcWrapper\stm32\stm32_def.c.o
 .ARM.attributes
                0x00000496       0x34 C:\msys64\opt\arduino-1.8.13\portable\sketchbook\arduino\F427ZIT6_SerLed\build\libraries\SrcWrapper\stm32\system_stm32yyxx.c.o
 .ARM.attributes
                0x000004ca       0x34 C:\msys64\opt\arduino-1.8.13\portable\sketchbook\arduino\F427ZIT6_SerLed\build\libraries\SrcWrapper\stm32\timer.c.o
 .ARM.attributes
                0x000004fe       0x34 C:\msys64\opt\arduino-1.8.13\portable\sketchbook\arduino\F427ZIT6_SerLed\build\libraries\SrcWrapper\stm32\uart.c.o
 .ARM.attributes
                0x00000532       0x34 C:\msys64\opt\arduino-1.8.13\portable\sketchbook\arduino\F427ZIT6_SerLed\build\libraries\SrcWrapper\stm32\analog.cpp.o
 .ARM.attributes
                0x00000566       0x34 C:\msys64\opt\arduino-1.8.13\portable\sketchbook\arduino\F427ZIT6_SerLed\build\libraries\SrcWrapper\stm32\interrupt.cpp.o
 .ARM.attributes
                0x0000059a       0x39 C:\msys64\opt\arduino-1.8.13\portable\sketchbook\arduino\F427ZIT6_SerLed\build\core\PeripheralPins.c.o
 .ARM.attributes
                0x000005d3       0x34 C:\msys64\opt\arduino-1.8.13\portable\sketchbook\arduino\F427ZIT6_SerLed\build\core\variant.cpp.o
 .ARM.attributes
                0x00000607       0x21 C:\msys64\opt\arduino-1.8.13\portable\sketchbook\arduino\F427ZIT6_SerLed\build\core\core.a(startup_stm32yyxx.S.o)
 .ARM.attributes
                0x00000628       0x34 C:\msys64\opt\arduino-1.8.13\portable\sketchbook\arduino\F427ZIT6_SerLed\build\core\core.a(wiring_digital.c.o)
 .ARM.attributes
                0x0000065c       0x34 C:\msys64\opt\arduino-1.8.13\portable\sketchbook\arduino\F427ZIT6_SerLed\build\core\core.a(wiring_time.c.o)
 .ARM.attributes
                0x00000690       0x34 C:\msys64\opt\arduino-1.8.13\portable\sketchbook\arduino\F427ZIT6_SerLed\build\core\core.a(HardwareSerial.cpp.o)
 .ARM.attributes
                0x000006c4       0x34 C:\msys64\opt\arduino-1.8.13\portable\sketchbook\arduino\F427ZIT6_SerLed\build\core\core.a(HardwareTimer.cpp.o)
 .ARM.attributes
                0x000006f8       0x34 C:\msys64\opt\arduino-1.8.13\portable\sketchbook\arduino\F427ZIT6_SerLed\build\core\core.a(Print.cpp.o)
 .ARM.attributes
                0x0000072c       0x34 C:\msys64\opt\arduino-1.8.13\portable\sketchbook\arduino\F427ZIT6_SerLed\build\core\core.a(Stream.cpp.o)
 .ARM.attributes
                0x00000760       0x34 C:\msys64\opt\arduino-1.8.13\portable\sketchbook\arduino\F427ZIT6_SerLed\build\core\core.a(main.cpp.o)
 .ARM.attributes
                0x00000794       0x34 C:\msys64\opt\arduino-1.8.13\portable\sketchbook\arduino\F427ZIT6_SerLed\build\core\core.a(new.cpp.o)
 .ARM.attributes
                0x000007c8       0x34 C:\msys64\opt\arduino-1.8.13\portable\sketchbook\arduino\F427ZIT6_SerLed\build\core\core.a(board.c.o)
 .ARM.attributes
                0x000007fc       0x34 C:\msys64\opt\arduino-1.8.13\portable\sketchbook\arduino\F427ZIT6_SerLed\build\core\core.a(hooks.c.o)
 .ARM.attributes
                0x00000830       0x34 C:\msys64\opt\arduino-1.8.13\portable\sketchbook\arduino\F427ZIT6_SerLed\build\core\core.a(wiring_analog.c.o)
 .ARM.attributes
                0x00000864       0x34 C:\msys64\opt\arduino-1.8.13\portable\sketchbook\arduino\F427ZIT6_SerLed\build\core\core.a(WSerial.cpp.o)
 .ARM.attributes
                0x00000898       0x32 c:/msys64/opt/arduino-1.8.13/portable/packages/stm32/tools/xpack-arm-none-eabi-gcc/9.2.1-1.1/bin/../lib/gcc/arm-none-eabi/9.2.1/../../../../arm-none-eabi/lib/thumb/v7e-m+fp/hard\libc_nano.a(lib_a-impure.o)
 .ARM.attributes
                0x000008ca       0x34 c:/msys64/opt/arduino-1.8.13/portable/packages/stm32/tools/xpack-arm-none-eabi-gcc/9.2.1-1.1/bin/../lib/gcc/arm-none-eabi/9.2.1/../../../../arm-none-eabi/lib/thumb/v7e-m+fp/hard\libc_nano.a(lib_a-init.o)
 .ARM.attributes
                0x000008fe       0x34 c:/msys64/opt/arduino-1.8.13/portable/packages/stm32/tools/xpack-arm-none-eabi-gcc/9.2.1-1.1/bin/../lib/gcc/arm-none-eabi/9.2.1/../../../../arm-none-eabi/lib/thumb/v7e-m+fp/hard\libc_nano.a(lib_a-malloc.o)
 .ARM.attributes
                0x00000932       0x34 c:/msys64/opt/arduino-1.8.13/portable/packages/stm32/tools/xpack-arm-none-eabi-gcc/9.2.1-1.1/bin/../lib/gcc/arm-none-eabi/9.2.1/../../../../arm-none-eabi/lib/thumb/v7e-m+fp/hard\libc_nano.a(lib_a-nano-freer.o)
 .ARM.attributes
                0x00000966       0x34 c:/msys64/opt/arduino-1.8.13/portable/packages/stm32/tools/xpack-arm-none-eabi-gcc/9.2.1-1.1/bin/../lib/gcc/arm-none-eabi/9.2.1/../../../../arm-none-eabi/lib/thumb/v7e-m+fp/hard\libc_nano.a(lib_a-nano-mallocr.o)
 .ARM.attributes
                0x0000099a       0x34 c:/msys64/opt/arduino-1.8.13/portable/packages/stm32/tools/xpack-arm-none-eabi-gcc/9.2.1-1.1/bin/../lib/gcc/arm-none-eabi/9.2.1/../../../../arm-none-eabi/lib/thumb/v7e-m+fp/hard\libc_nano.a(lib_a-reent.o)
 .ARM.attributes
                0x000009ce       0x34 c:/msys64/opt/arduino-1.8.13/portable/packages/stm32/tools/xpack-arm-none-eabi-gcc/9.2.1-1.1/bin/../lib/gcc/arm-none-eabi/9.2.1/../../../../arm-none-eabi/lib/thumb/v7e-m+fp/hard\libc_nano.a(lib_a-sbrkr.o)
 .ARM.attributes
                0x00000a02       0x17 c:/msys64/opt/arduino-1.8.13/portable/packages/stm32/tools/xpack-arm-none-eabi-gcc/9.2.1-1.1/bin/../lib/gcc/arm-none-eabi/9.2.1/../../../../arm-none-eabi/lib/thumb/v7e-m+fp/hard\libc_nano.a(lib_a-strlen.o)
 .ARM.attributes
                0x00000a19       0x34 c:/msys64/opt/arduino-1.8.13/portable/packages/stm32/tools/xpack-arm-none-eabi-gcc/9.2.1-1.1/bin/../lib/gcc/arm-none-eabi/9.2.1/../../../../arm-none-eabi/lib/thumb/v7e-m+fp/hard\libc_nano.a(lib_a-findfp.o)
 .ARM.attributes
                0x00000a4d       0x34 c:/msys64/opt/arduino-1.8.13/portable/packages/stm32/tools/xpack-arm-none-eabi-gcc/9.2.1-1.1/bin/../lib/gcc/arm-none-eabi/9.2.1/../../../../arm-none-eabi/lib/thumb/v7e-m+fp/hard\libc_nano.a(lib_a-lock.o)
 .ARM.attributes
                0x00000a81       0x34 c:/msys64/opt/arduino-1.8.13/portable/packages/stm32/tools/xpack-arm-none-eabi-gcc/9.2.1-1.1/bin/../lib/gcc/arm-none-eabi/9.2.1/../../../../arm-none-eabi/lib/thumb/v7e-m+fp/hard\libc_nano.a(lib_a-mlock.o)
 .ARM.attributes
                0x00000ab5       0x1e c:/msys64/opt/arduino-1.8.13/portable/packages/stm32/tools/xpack-arm-none-eabi-gcc/9.2.1-1.1/bin/../lib/gcc/arm-none-eabi/9.2.1/thumb/v7e-m+fp/hard\libgcc.a(_aeabi_uldivmod.o)
 .ARM.attributes
                0x00000ad3       0x34 c:/msys64/opt/arduino-1.8.13/portable/packages/stm32/tools/xpack-arm-none-eabi-gcc/9.2.1-1.1/bin/../lib/gcc/arm-none-eabi/9.2.1/thumb/v7e-m+fp/hard\libgcc.a(_udivmoddi4.o)
 .ARM.attributes
                0x00000b07       0x1e c:/msys64/opt/arduino-1.8.13/portable/packages/stm32/tools/xpack-arm-none-eabi-gcc/9.2.1-1.1/bin/../lib/gcc/arm-none-eabi/9.2.1/thumb/v7e-m+fp/hard\libgcc.a(_dvmd_tls.o)
 .ARM.attributes
                0x00000b25       0x34 c:/msys64/opt/arduino-1.8.13/portable/packages/stm32/tools/xpack-arm-none-eabi-gcc/9.2.1-1.1/bin/../lib/gcc/arm-none-eabi/9.2.1/../../../../arm-none-eabi/lib/thumb/v7e-m+fp/hard\libstdc++_nano.a(functional.o)
 .ARM.attributes
                0x00000b59       0x34 c:/msys64/opt/arduino-1.8.13/portable/packages/stm32/tools/xpack-arm-none-eabi-gcc/9.2.1-1.1/bin/../lib/gcc/arm-none-eabi/9.2.1/../../../../arm-none-eabi/lib/thumb/v7e-m+fp/hard\libc_nano.a(lib_a-abort.o)
 .ARM.attributes
                0x00000b8d       0x34 c:/msys64/opt/arduino-1.8.13/portable/packages/stm32/tools/xpack-arm-none-eabi-gcc/9.2.1-1.1/bin/../lib/gcc/arm-none-eabi/9.2.1/../../../../arm-none-eabi/lib/thumb/v7e-m+fp/hard\libc_nano.a(lib_a-signal.o)
 .ARM.attributes
                0x00000bc1       0x34 c:/msys64/opt/arduino-1.8.13/portable/packages/stm32/tools/xpack-arm-none-eabi-gcc/9.2.1-1.1/bin/../lib/gcc/arm-none-eabi/9.2.1/../../../../arm-none-eabi/lib/thumb/v7e-m+fp/hard\libc_nano.a(lib_a-signalr.o)
 .ARM.attributes
                0x00000bf5       0x1e c:/msys64/opt/arduino-1.8.13/portable/packages/stm32/tools/xpack-arm-none-eabi-gcc/9.2.1-1.1/bin/../lib/gcc/arm-none-eabi/9.2.1/thumb/v7e-m+fp/hard/crtn.o

ExtRAMData
 *(.ExtRAMData)
OUTPUT(C:\msys64\opt\arduino-1.8.13\portable\sketchbook\arduino\F427ZIT6_SerLed\build/F427ZIT6_SerLed.ino.elf elf32-littlearm)

.comment        0x00000000       0x66
 .comment       0x00000000       0x66 C:\msys64\opt\arduino-1.8.13\portable\sketchbook\arduino\F427ZIT6_SerLed\build\sketch\F427ZIT6_SerLed.ino.cpp.o
                                 0x67 (size before relaxing)
 .comment       0x00000066       0x67 C:\msys64\opt\arduino-1.8.13\portable\sketchbook\arduino\F427ZIT6_SerLed\build\libraries\SrcWrapper\syscalls.c.o
 .comment       0x00000066       0x67 C:\msys64\opt\arduino-1.8.13\portable\sketchbook\arduino\F427ZIT6_SerLed\build\libraries\SrcWrapper\HAL\stm32yyxx_hal.c.o
 .comment       0x00000066       0x67 C:\msys64\opt\arduino-1.8.13\portable\sketchbook\arduino\F427ZIT6_SerLed\build\libraries\SrcWrapper\HAL\stm32yyxx_hal_cortex.c.o
 .comment       0x00000066       0x67 C:\msys64\opt\arduino-1.8.13\portable\sketchbook\arduino\F427ZIT6_SerLed\build\libraries\SrcWrapper\HAL\stm32yyxx_hal_dac.c.o
 .comment       0x00000066       0x67 C:\msys64\opt\arduino-1.8.13\portable\sketchbook\arduino\F427ZIT6_SerLed\build\libraries\SrcWrapper\HAL\stm32yyxx_hal_dma.c.o
 .comment       0x00000066       0x67 C:\msys64\opt\arduino-1.8.13\portable\sketchbook\arduino\F427ZIT6_SerLed\build\libraries\SrcWrapper\HAL\stm32yyxx_hal_gpio.c.o
 .comment       0x00000066       0x67 C:\msys64\opt\arduino-1.8.13\portable\sketchbook\arduino\F427ZIT6_SerLed\build\libraries\SrcWrapper\HAL\stm32yyxx_hal_pwr_ex.c.o
 .comment       0x00000066       0x67 C:\msys64\opt\arduino-1.8.13\portable\sketchbook\arduino\F427ZIT6_SerLed\build\libraries\SrcWrapper\HAL\stm32yyxx_hal_rcc.c.o
 .comment       0x00000066       0x67 C:\msys64\opt\arduino-1.8.13\portable\sketchbook\arduino\F427ZIT6_SerLed\build\libraries\SrcWrapper\HAL\stm32yyxx_hal_rtc.c.o
 .comment       0x00000066       0x67 C:\msys64\opt\arduino-1.8.13\portable\sketchbook\arduino\F427ZIT6_SerLed\build\libraries\SrcWrapper\HAL\stm32yyxx_hal_rtc_ex.c.o
 .comment       0x00000066       0x67 C:\msys64\opt\arduino-1.8.13\portable\sketchbook\arduino\F427ZIT6_SerLed\build\libraries\SrcWrapper\HAL\stm32yyxx_hal_tim.c.o
 .comment       0x00000066       0x67 C:\msys64\opt\arduino-1.8.13\portable\sketchbook\arduino\F427ZIT6_SerLed\build\libraries\SrcWrapper\HAL\stm32yyxx_hal_tim_ex.c.o
 .comment       0x00000066       0x67 C:\msys64\opt\arduino-1.8.13\portable\sketchbook\arduino\F427ZIT6_SerLed\build\libraries\SrcWrapper\HAL\stm32yyxx_hal_uart.c.o
 .comment       0x00000066       0x67 C:\msys64\opt\arduino-1.8.13\portable\sketchbook\arduino\F427ZIT6_SerLed\build\libraries\SrcWrapper\stm32\PortNames.c.o
 .comment       0x00000066       0x67 C:\msys64\opt\arduino-1.8.13\portable\sketchbook\arduino\F427ZIT6_SerLed\build\libraries\SrcWrapper\stm32\clock.c.o
 .comment       0x00000066       0x67 C:\msys64\opt\arduino-1.8.13\portable\sketchbook\arduino\F427ZIT6_SerLed\build\libraries\SrcWrapper\stm32\dwt.c.o
 .comment       0x00000066       0x67 C:\msys64\opt\arduino-1.8.13\portable\sketchbook\arduino\F427ZIT6_SerLed\build\libraries\SrcWrapper\stm32\hw_config.c.o
 .comment       0x00000066       0x67 C:\msys64\opt\arduino-1.8.13\portable\sketchbook\arduino\F427ZIT6_SerLed\build\libraries\SrcWrapper\stm32\pinmap.c.o
 .comment       0x00000066       0x67 C:\msys64\opt\arduino-1.8.13\portable\sketchbook\arduino\F427ZIT6_SerLed\build\libraries\SrcWrapper\stm32\rtc.c.o
 .comment       0x00000066       0x67 C:\msys64\opt\arduino-1.8.13\portable\sketchbook\arduino\F427ZIT6_SerLed\build\libraries\SrcWrapper\stm32\stm32_def.c.o
 .comment       0x00000066       0x67 C:\msys64\opt\arduino-1.8.13\portable\sketchbook\arduino\F427ZIT6_SerLed\build\libraries\SrcWrapper\stm32\system_stm32yyxx.c.o
 .comment       0x00000066       0x67 C:\msys64\opt\arduino-1.8.13\portable\sketchbook\arduino\F427ZIT6_SerLed\build\libraries\SrcWrapper\stm32\timer.c.o
 .comment       0x00000066       0x67 C:\msys64\opt\arduino-1.8.13\portable\sketchbook\arduino\F427ZIT6_SerLed\build\libraries\SrcWrapper\stm32\uart.c.o
 .comment       0x00000066       0x67 C:\msys64\opt\arduino-1.8.13\portable\sketchbook\arduino\F427ZIT6_SerLed\build\libraries\SrcWrapper\stm32\analog.cpp.o
 .comment       0x00000066       0x67 C:\msys64\opt\arduino-1.8.13\portable\sketchbook\arduino\F427ZIT6_SerLed\build\libraries\SrcWrapper\stm32\interrupt.cpp.o
 .comment       0x00000066       0x67 C:\msys64\opt\arduino-1.8.13\portable\sketchbook\arduino\F427ZIT6_SerLed\build\core\PeripheralPins.c.o
 .comment       0x00000066       0x67 C:\msys64\opt\arduino-1.8.13\portable\sketchbook\arduino\F427ZIT6_SerLed\build\core\variant.cpp.o
 .comment       0x00000066       0x67 C:\msys64\opt\arduino-1.8.13\portable\sketchbook\arduino\F427ZIT6_SerLed\build\core\core.a(wiring_digital.c.o)
 .comment       0x00000066       0x67 C:\msys64\opt\arduino-1.8.13\portable\sketchbook\arduino\F427ZIT6_SerLed\build\core\core.a(wiring_time.c.o)
 .comment       0x00000066       0x67 C:\msys64\opt\arduino-1.8.13\portable\sketchbook\arduino\F427ZIT6_SerLed\build\core\core.a(HardwareSerial.cpp.o)
 .comment       0x00000066       0x67 C:\msys64\opt\arduino-1.8.13\portable\sketchbook\arduino\F427ZIT6_SerLed\build\core\core.a(HardwareTimer.cpp.o)
 .comment       0x00000066       0x67 C:\msys64\opt\arduino-1.8.13\portable\sketchbook\arduino\F427ZIT6_SerLed\build\core\core.a(Print.cpp.o)
 .comment       0x00000066       0x67 C:\msys64\opt\arduino-1.8.13\portable\sketchbook\arduino\F427ZIT6_SerLed\build\core\core.a(Stream.cpp.o)
 .comment       0x00000066       0x67 C:\msys64\opt\arduino-1.8.13\portable\sketchbook\arduino\F427ZIT6_SerLed\build\core\core.a(main.cpp.o)
 .comment       0x00000066       0x67 C:\msys64\opt\arduino-1.8.13\portable\sketchbook\arduino\F427ZIT6_SerLed\build\core\core.a(new.cpp.o)
 .comment       0x00000066       0x67 C:\msys64\opt\arduino-1.8.13\portable\sketchbook\arduino\F427ZIT6_SerLed\build\core\core.a(board.c.o)
 .comment       0x00000066       0x67 C:\msys64\opt\arduino-1.8.13\portable\sketchbook\arduino\F427ZIT6_SerLed\build\core\core.a(hooks.c.o)
 .comment       0x00000066       0x67 C:\msys64\opt\arduino-1.8.13\portable\sketchbook\arduino\F427ZIT6_SerLed\build\core\core.a(wiring_analog.c.o)
 .comment       0x00000066       0x67 C:\msys64\opt\arduino-1.8.13\portable\sketchbook\arduino\F427ZIT6_SerLed\build\core\core.a(WSerial.cpp.o)

.debug_frame    0x00000000      0x508
 .debug_frame   0x00000000       0x2c c:/msys64/opt/arduino-1.8.13/portable/packages/stm32/tools/xpack-arm-none-eabi-gcc/9.2.1-1.1/bin/../lib/gcc/arm-none-eabi/9.2.1/../../../../arm-none-eabi/lib/thumb/v7e-m+fp/hard\libc_nano.a(lib_a-init.o)
 .debug_frame   0x0000002c       0x30 c:/msys64/opt/arduino-1.8.13/portable/packages/stm32/tools/xpack-arm-none-eabi-gcc/9.2.1-1.1/bin/../lib/gcc/arm-none-eabi/9.2.1/../../../../arm-none-eabi/lib/thumb/v7e-m+fp/hard\libc_nano.a(lib_a-malloc.o)
 .debug_frame   0x0000005c       0x38 c:/msys64/opt/arduino-1.8.13/portable/packages/stm32/tools/xpack-arm-none-eabi-gcc/9.2.1-1.1/bin/../lib/gcc/arm-none-eabi/9.2.1/../../../../arm-none-eabi/lib/thumb/v7e-m+fp/hard\libc_nano.a(lib_a-nano-freer.o)
 .debug_frame   0x00000094       0x30 c:/msys64/opt/arduino-1.8.13/portable/packages/stm32/tools/xpack-arm-none-eabi-gcc/9.2.1-1.1/bin/../lib/gcc/arm-none-eabi/9.2.1/../../../../arm-none-eabi/lib/thumb/v7e-m+fp/hard\libc_nano.a(lib_a-nano-mallocr.o)
 .debug_frame   0x000000c4       0x5c c:/msys64/opt/arduino-1.8.13/portable/packages/stm32/tools/xpack-arm-none-eabi-gcc/9.2.1-1.1/bin/../lib/gcc/arm-none-eabi/9.2.1/../../../../arm-none-eabi/lib/thumb/v7e-m+fp/hard\libc_nano.a(lib_a-reent.o)
 .debug_frame   0x00000120       0x2c c:/msys64/opt/arduino-1.8.13/portable/packages/stm32/tools/xpack-arm-none-eabi-gcc/9.2.1-1.1/bin/../lib/gcc/arm-none-eabi/9.2.1/../../../../arm-none-eabi/lib/thumb/v7e-m+fp/hard\libc_nano.a(lib_a-sbrkr.o)
 .debug_frame   0x0000014c      0x14c c:/msys64/opt/arduino-1.8.13/portable/packages/stm32/tools/xpack-arm-none-eabi-gcc/9.2.1-1.1/bin/../lib/gcc/arm-none-eabi/9.2.1/../../../../arm-none-eabi/lib/thumb/v7e-m+fp/hard\libc_nano.a(lib_a-findfp.o)
 .debug_frame   0x00000298       0xb0 c:/msys64/opt/arduino-1.8.13/portable/packages/stm32/tools/xpack-arm-none-eabi-gcc/9.2.1-1.1/bin/../lib/gcc/arm-none-eabi/9.2.1/../../../../arm-none-eabi/lib/thumb/v7e-m+fp/hard\libc_nano.a(lib_a-lock.o)
 .debug_frame   0x00000348       0x30 c:/msys64/opt/arduino-1.8.13/portable/packages/stm32/tools/xpack-arm-none-eabi-gcc/9.2.1-1.1/bin/../lib/gcc/arm-none-eabi/9.2.1/../../../../arm-none-eabi/lib/thumb/v7e-m+fp/hard\libc_nano.a(lib_a-mlock.o)
 .debug_frame   0x00000378       0x2c c:/msys64/opt/arduino-1.8.13/portable/packages/stm32/tools/xpack-arm-none-eabi-gcc/9.2.1-1.1/bin/../lib/gcc/arm-none-eabi/9.2.1/thumb/v7e-m+fp/hard\libgcc.a(_aeabi_uldivmod.o)
 .debug_frame   0x000003a4       0x34 c:/msys64/opt/arduino-1.8.13/portable/packages/stm32/tools/xpack-arm-none-eabi-gcc/9.2.1-1.1/bin/../lib/gcc/arm-none-eabi/9.2.1/thumb/v7e-m+fp/hard\libgcc.a(_udivmoddi4.o)
 .debug_frame   0x000003d8       0x28 c:/msys64/opt/arduino-1.8.13/portable/packages/stm32/tools/xpack-arm-none-eabi-gcc/9.2.1-1.1/bin/../lib/gcc/arm-none-eabi/9.2.1/../../../../arm-none-eabi/lib/thumb/v7e-m+fp/hard\libc_nano.a(lib_a-abort.o)
 .debug_frame   0x00000400       0xcc c:/msys64/opt/arduino-1.8.13/portable/packages/stm32/tools/xpack-arm-none-eabi-gcc/9.2.1-1.1/bin/../lib/gcc/arm-none-eabi/9.2.1/../../../../arm-none-eabi/lib/thumb/v7e-m+fp/hard\libc_nano.a(lib_a-signal.o)
 .debug_frame   0x000004cc       0x3c c:/msys64/opt/arduino-1.8.13/portable/packages/stm32/tools/xpack-arm-none-eabi-gcc/9.2.1-1.1/bin/../lib/gcc/arm-none-eabi/9.2.1/../../../../arm-none-eabi/lib/thumb/v7e-m+fp/hard\libc_nano.a(lib_a-signalr.o)

Cross Reference Table

Symbol                                            File
ADC_IRQHandler                                    C:\msys64\opt\arduino-1.8.13\portable\sketchbook\arduino\F427ZIT6_SerLed\build\core\core.a(startup_stm32yyxx.S.o)
AHBPrescTable                                     C:\msys64\opt\arduino-1.8.13\portable\sketchbook\arduino\F427ZIT6_SerLed\build\libraries\SrcWrapper\stm32\system_stm32yyxx.c.o
                                                  C:\msys64\opt\arduino-1.8.13\portable\sketchbook\arduino\F427ZIT6_SerLed\build\libraries\SrcWrapper\LL\stm32yyxx_ll_utils.c.o
                                                  C:\msys64\opt\arduino-1.8.13\portable\sketchbook\arduino\F427ZIT6_SerLed\build\libraries\SrcWrapper\HAL\stm32yyxx_hal_rcc.c.o
APBPrescTable                                     C:\msys64\opt\arduino-1.8.13\portable\sketchbook\arduino\F427ZIT6_SerLed\build\libraries\SrcWrapper\stm32\system_stm32yyxx.c.o
                                                  C:\msys64\opt\arduino-1.8.13\portable\sketchbook\arduino\F427ZIT6_SerLed\build\libraries\SrcWrapper\HAL\stm32yyxx_hal_rcc.c.o
BusFault_Handler                                  C:\msys64\opt\arduino-1.8.13\portable\sketchbook\arduino\F427ZIT6_SerLed\build\core\core.a(startup_stm32yyxx.S.o)
CAN1_RX0_IRQHandler                               C:\msys64\opt\arduino-1.8.13\portable\sketchbook\arduino\F427ZIT6_SerLed\build\core\core.a(startup_stm32yyxx.S.o)
CAN1_RX1_IRQHandler                               C:\msys64\opt\arduino-1.8.13\portable\sketchbook\arduino\F427ZIT6_SerLed\build\core\core.a(startup_stm32yyxx.S.o)
CAN1_SCE_IRQHandler                               C:\msys64\opt\arduino-1.8.13\portable\sketchbook\arduino\F427ZIT6_SerLed\build\core\core.a(startup_stm32yyxx.S.o)
CAN1_TX_IRQHandler                                C:\msys64\opt\arduino-1.8.13\portable\sketchbook\arduino\F427ZIT6_SerLed\build\core\core.a(startup_stm32yyxx.S.o)
CAN2_RX0_IRQHandler                               C:\msys64\opt\arduino-1.8.13\portable\sketchbook\arduino\F427ZIT6_SerLed\build\core\core.a(startup_stm32yyxx.S.o)
CAN2_RX1_IRQHandler                               C:\msys64\opt\arduino-1.8.13\portable\sketchbook\arduino\F427ZIT6_SerLed\build\core\core.a(startup_stm32yyxx.S.o)
CAN2_SCE_IRQHandler                               C:\msys64\opt\arduino-1.8.13\portable\sketchbook\arduino\F427ZIT6_SerLed\build\core\core.a(startup_stm32yyxx.S.o)
CAN2_TX_IRQHandler                                C:\msys64\opt\arduino-1.8.13\portable\sketchbook\arduino\F427ZIT6_SerLed\build\core\core.a(startup_stm32yyxx.S.o)
DAC_DMAConvCpltCh2                                C:\msys64\opt\arduino-1.8.13\portable\sketchbook\arduino\F427ZIT6_SerLed\build\libraries\SrcWrapper\HAL\stm32yyxx_hal_dac_ex.c.o
                                                  C:\msys64\opt\arduino-1.8.13\portable\sketchbook\arduino\F427ZIT6_SerLed\build\libraries\SrcWrapper\HAL\stm32yyxx_hal_dac.c.o
DAC_DMAErrorCh2                                   C:\msys64\opt\arduino-1.8.13\portable\sketchbook\arduino\F427ZIT6_SerLed\build\libraries\SrcWrapper\HAL\stm32yyxx_hal_dac_ex.c.o
                                                  C:\msys64\opt\arduino-1.8.13\portable\sketchbook\arduino\F427ZIT6_SerLed\build\libraries\SrcWrapper\HAL\stm32yyxx_hal_dac.c.o
DAC_DMAHalfConvCpltCh2                            C:\msys64\opt\arduino-1.8.13\portable\sketchbook\arduino\F427ZIT6_SerLed\build\libraries\SrcWrapper\HAL\stm32yyxx_hal_dac_ex.c.o
                                                  C:\msys64\opt\arduino-1.8.13\portable\sketchbook\arduino\F427ZIT6_SerLed\build\libraries\SrcWrapper\HAL\stm32yyxx_hal_dac.c.o
DCMI_IRQHandler                                   C:\msys64\opt\arduino-1.8.13\portable\sketchbook\arduino\F427ZIT6_SerLed\build\core\core.a(startup_stm32yyxx.S.o)
DMA1_Stream0_IRQHandler                           C:\msys64\opt\arduino-1.8.13\portable\sketchbook\arduino\F427ZIT6_SerLed\build\core\core.a(startup_stm32yyxx.S.o)
DMA1_Stream1_IRQHandler                           C:\msys64\opt\arduino-1.8.13\portable\sketchbook\arduino\F427ZIT6_SerLed\build\core\core.a(startup_stm32yyxx.S.o)
DMA1_Stream2_IRQHandler                           C:\msys64\opt\arduino-1.8.13\portable\sketchbook\arduino\F427ZIT6_SerLed\build\core\core.a(startup_stm32yyxx.S.o)
DMA1_Stream3_IRQHandler                           C:\msys64\opt\arduino-1.8.13\portable\sketchbook\arduino\F427ZIT6_SerLed\build\core\core.a(startup_stm32yyxx.S.o)
DMA1_Stream4_IRQHandler                           C:\msys64\opt\arduino-1.8.13\portable\sketchbook\arduino\F427ZIT6_SerLed\build\core\core.a(startup_stm32yyxx.S.o)
DMA1_Stream5_IRQHandler                           C:\msys64\opt\arduino-1.8.13\portable\sketchbook\arduino\F427ZIT6_SerLed\build\core\core.a(startup_stm32yyxx.S.o)
DMA1_Stream6_IRQHandler                           C:\msys64\opt\arduino-1.8.13\portable\sketchbook\arduino\F427ZIT6_SerLed\build\core\core.a(startup_stm32yyxx.S.o)
DMA1_Stream7_IRQHandler                           C:\msys64\opt\arduino-1.8.13\portable\sketchbook\arduino\F427ZIT6_SerLed\build\core\core.a(startup_stm32yyxx.S.o)
DMA2D_IRQHandler                                  C:\msys64\opt\arduino-1.8.13\portable\sketchbook\arduino\F427ZIT6_SerLed\build\core\core.a(startup_stm32yyxx.S.o)
DMA2_Stream0_IRQHandler                           C:\msys64\opt\arduino-1.8.13\portable\sketchbook\arduino\F427ZIT6_SerLed\build\core\core.a(startup_stm32yyxx.S.o)
DMA2_Stream1_IRQHandler                           C:\msys64\opt\arduino-1.8.13\portable\sketchbook\arduino\F427ZIT6_SerLed\build\core\core.a(startup_stm32yyxx.S.o)
DMA2_Stream2_IRQHandler                           C:\msys64\opt\arduino-1.8.13\portable\sketchbook\arduino\F427ZIT6_SerLed\build\core\core.a(startup_stm32yyxx.S.o)
DMA2_Stream3_IRQHandler                           C:\msys64\opt\arduino-1.8.13\portable\sketchbook\arduino\F427ZIT6_SerLed\build\core\core.a(startup_stm32yyxx.S.o)
DMA2_Stream4_IRQHandler                           C:\msys64\opt\arduino-1.8.13\portable\sketchbook\arduino\F427ZIT6_SerLed\build\core\core.a(startup_stm32yyxx.S.o)
DMA2_Stream5_IRQHandler                           C:\msys64\opt\arduino-1.8.13\portable\sketchbook\arduino\F427ZIT6_SerLed\build\core\core.a(startup_stm32yyxx.S.o)
DMA2_Stream6_IRQHandler                           C:\msys64\opt\arduino-1.8.13\portable\sketchbook\arduino\F427ZIT6_SerLed\build\core\core.a(startup_stm32yyxx.S.o)
DMA2_Stream7_IRQHandler                           C:\msys64\opt\arduino-1.8.13\portable\sketchbook\arduino\F427ZIT6_SerLed\build\core\core.a(startup_stm32yyxx.S.o)
DebugMon_Handler                                  C:\msys64\opt\arduino-1.8.13\portable\sketchbook\arduino\F427ZIT6_SerLed\build\core\core.a(startup_stm32yyxx.S.o)
Default_Handler                                   C:\msys64\opt\arduino-1.8.13\portable\sketchbook\arduino\F427ZIT6_SerLed\build\core\core.a(startup_stm32yyxx.S.o)
ETH_IRQHandler                                    C:\msys64\opt\arduino-1.8.13\portable\sketchbook\arduino\F427ZIT6_SerLed\build\core\core.a(startup_stm32yyxx.S.o)
ETH_WKUP_IRQHandler                               C:\msys64\opt\arduino-1.8.13\portable\sketchbook\arduino\F427ZIT6_SerLed\build\core\core.a(startup_stm32yyxx.S.o)
EXTI0_IRQHandler                                  C:\msys64\opt\arduino-1.8.13\portable\sketchbook\arduino\F427ZIT6_SerLed\build\libraries\SrcWrapper\stm32\interrupt.cpp.o
EXTI15_10_IRQHandler                              C:\msys64\opt\arduino-1.8.13\portable\sketchbook\arduino\F427ZIT6_SerLed\build\libraries\SrcWrapper\stm32\interrupt.cpp.o
EXTI1_IRQHandler                                  C:\msys64\opt\arduino-1.8.13\portable\sketchbook\arduino\F427ZIT6_SerLed\build\libraries\SrcWrapper\stm32\interrupt.cpp.o
EXTI2_IRQHandler                                  C:\msys64\opt\arduino-1.8.13\portable\sketchbook\arduino\F427ZIT6_SerLed\build\libraries\SrcWrapper\stm32\interrupt.cpp.o
EXTI3_IRQHandler                                  C:\msys64\opt\arduino-1.8.13\portable\sketchbook\arduino\F427ZIT6_SerLed\build\libraries\SrcWrapper\stm32\interrupt.cpp.o
EXTI4_IRQHandler                                  C:\msys64\opt\arduino-1.8.13\portable\sketchbook\arduino\F427ZIT6_SerLed\build\libraries\SrcWrapper\stm32\interrupt.cpp.o
EXTI9_5_IRQHandler                                C:\msys64\opt\arduino-1.8.13\portable\sketchbook\arduino\F427ZIT6_SerLed\build\libraries\SrcWrapper\stm32\interrupt.cpp.o
FLASH_Erase_Sector                                C:\msys64\opt\arduino-1.8.13\portable\sketchbook\arduino\F427ZIT6_SerLed\build\libraries\SrcWrapper\HAL\stm32yyxx_hal_flash_ex.c.o
                                                  C:\msys64\opt\arduino-1.8.13\portable\sketchbook\arduino\F427ZIT6_SerLed\build\libraries\SrcWrapper\HAL\stm32yyxx_hal_flash.c.o
FLASH_FlushCaches                                 C:\msys64\opt\arduino-1.8.13\portable\sketchbook\arduino\F427ZIT6_SerLed\build\libraries\SrcWrapper\HAL\stm32yyxx_hal_flash_ex.c.o
                                                  C:\msys64\opt\arduino-1.8.13\portable\sketchbook\arduino\F427ZIT6_SerLed\build\libraries\SrcWrapper\HAL\stm32yyxx_hal_flash.c.o
FLASH_IRQHandler                                  C:\msys64\opt\arduino-1.8.13\portable\sketchbook\arduino\F427ZIT6_SerLed\build\core\core.a(startup_stm32yyxx.S.o)
FLASH_WaitForLastOperation                        C:\msys64\opt\arduino-1.8.13\portable\sketchbook\arduino\F427ZIT6_SerLed\build\libraries\SrcWrapper\HAL\stm32yyxx_hal_flash.c.o
                                                  C:\msys64\opt\arduino-1.8.13\portable\sketchbook\arduino\F427ZIT6_SerLed\build\libraries\SrcWrapper\HAL\stm32yyxx_hal_flash_ex.c.o
FMC_IRQHandler                                    C:\msys64\opt\arduino-1.8.13\portable\sketchbook\arduino\F427ZIT6_SerLed\build\core\core.a(startup_stm32yyxx.S.o)
FPU_IRQHandler                                    C:\msys64\opt\arduino-1.8.13\portable\sketchbook\arduino\F427ZIT6_SerLed\build\core\core.a(startup_stm32yyxx.S.o)
GPIOPort                                          C:\msys64\opt\arduino-1.8.13\portable\sketchbook\arduino\F427ZIT6_SerLed\build\libraries\SrcWrapper\stm32\PortNames.c.o
                                                  C:\msys64\opt\arduino-1.8.13\portable\sketchbook\arduino\F427ZIT6_SerLed\build\core\core.a(wiring_digital.c.o)
HAL_ADCEx_InjectedConfigChannel                   C:\msys64\opt\arduino-1.8.13\portable\sketchbook\arduino\F427ZIT6_SerLed\build\libraries\SrcWrapper\HAL\stm32yyxx_hal_adc_ex.c.o
HAL_ADCEx_InjectedConvCpltCallback                C:\msys64\opt\arduino-1.8.13\portable\sketchbook\arduino\F427ZIT6_SerLed\build\libraries\SrcWrapper\HAL\stm32yyxx_hal_adc_ex.c.o
                                                  C:\msys64\opt\arduino-1.8.13\portable\sketchbook\arduino\F427ZIT6_SerLed\build\libraries\SrcWrapper\HAL\stm32yyxx_hal_adc.c.o
HAL_ADCEx_InjectedGetValue                        C:\msys64\opt\arduino-1.8.13\portable\sketchbook\arduino\F427ZIT6_SerLed\build\libraries\SrcWrapper\HAL\stm32yyxx_hal_adc_ex.c.o
HAL_ADCEx_InjectedPollForConversion               C:\msys64\opt\arduino-1.8.13\portable\sketchbook\arduino\F427ZIT6_SerLed\build\libraries\SrcWrapper\HAL\stm32yyxx_hal_adc_ex.c.o
HAL_ADCEx_InjectedStart                           C:\msys64\opt\arduino-1.8.13\portable\sketchbook\arduino\F427ZIT6_SerLed\build\libraries\SrcWrapper\HAL\stm32yyxx_hal_adc_ex.c.o
HAL_ADCEx_InjectedStart_IT                        C:\msys64\opt\arduino-1.8.13\portable\sketchbook\arduino\F427ZIT6_SerLed\build\libraries\SrcWrapper\HAL\stm32yyxx_hal_adc_ex.c.o
HAL_ADCEx_InjectedStop                            C:\msys64\opt\arduino-1.8.13\portable\sketchbook\arduino\F427ZIT6_SerLed\build\libraries\SrcWrapper\HAL\stm32yyxx_hal_adc_ex.c.o
HAL_ADCEx_InjectedStop_IT                         C:\msys64\opt\arduino-1.8.13\portable\sketchbook\arduino\F427ZIT6_SerLed\build\libraries\SrcWrapper\HAL\stm32yyxx_hal_adc_ex.c.o
HAL_ADCEx_MultiModeConfigChannel                  C:\msys64\opt\arduino-1.8.13\portable\sketchbook\arduino\F427ZIT6_SerLed\build\libraries\SrcWrapper\HAL\stm32yyxx_hal_adc_ex.c.o
HAL_ADCEx_MultiModeGetValue                       C:\msys64\opt\arduino-1.8.13\portable\sketchbook\arduino\F427ZIT6_SerLed\build\libraries\SrcWrapper\HAL\stm32yyxx_hal_adc_ex.c.o
HAL_ADCEx_MultiModeStart_DMA                      C:\msys64\opt\arduino-1.8.13\portable\sketchbook\arduino\F427ZIT6_SerLed\build\libraries\SrcWrapper\HAL\stm32yyxx_hal_adc_ex.c.o
HAL_ADCEx_MultiModeStop_DMA                       C:\msys64\opt\arduino-1.8.13\portable\sketchbook\arduino\F427ZIT6_SerLed\build\libraries\SrcWrapper\HAL\stm32yyxx_hal_adc_ex.c.o
HAL_ADC_AnalogWDGConfig                           C:\msys64\opt\arduino-1.8.13\portable\sketchbook\arduino\F427ZIT6_SerLed\build\libraries\SrcWrapper\HAL\stm32yyxx_hal_adc.c.o
HAL_ADC_ConfigChannel                             C:\msys64\opt\arduino-1.8.13\portable\sketchbook\arduino\F427ZIT6_SerLed\build\libraries\SrcWrapper\HAL\stm32yyxx_hal_adc.c.o
                                                  C:\msys64\opt\arduino-1.8.13\portable\sketchbook\arduino\F427ZIT6_SerLed\build\libraries\SrcWrapper\stm32\analog.cpp.o
HAL_ADC_ConvCpltCallback                          C:\msys64\opt\arduino-1.8.13\portable\sketchbook\arduino\F427ZIT6_SerLed\build\libraries\SrcWrapper\HAL\stm32yyxx_hal_adc.c.o
                                                  C:\msys64\opt\arduino-1.8.13\portable\sketchbook\arduino\F427ZIT6_SerLed\build\libraries\SrcWrapper\HAL\stm32yyxx_hal_adc_ex.c.o
HAL_ADC_ConvHalfCpltCallback                      C:\msys64\opt\arduino-1.8.13\portable\sketchbook\arduino\F427ZIT6_SerLed\build\libraries\SrcWrapper\HAL\stm32yyxx_hal_adc.c.o
                                                  C:\msys64\opt\arduino-1.8.13\portable\sketchbook\arduino\F427ZIT6_SerLed\build\libraries\SrcWrapper\HAL\stm32yyxx_hal_adc_ex.c.o
HAL_ADC_DeInit                                    C:\msys64\opt\arduino-1.8.13\portable\sketchbook\arduino\F427ZIT6_SerLed\build\libraries\SrcWrapper\HAL\stm32yyxx_hal_adc.c.o
                                                  C:\msys64\opt\arduino-1.8.13\portable\sketchbook\arduino\F427ZIT6_SerLed\build\libraries\SrcWrapper\stm32\analog.cpp.o
HAL_ADC_ErrorCallback                             C:\msys64\opt\arduino-1.8.13\portable\sketchbook\arduino\F427ZIT6_SerLed\build\libraries\SrcWrapper\HAL\stm32yyxx_hal_adc.c.o
                                                  C:\msys64\opt\arduino-1.8.13\portable\sketchbook\arduino\F427ZIT6_SerLed\build\libraries\SrcWrapper\HAL\stm32yyxx_hal_adc_ex.c.o
HAL_ADC_GetError                                  C:\msys64\opt\arduino-1.8.13\portable\sketchbook\arduino\F427ZIT6_SerLed\build\libraries\SrcWrapper\HAL\stm32yyxx_hal_adc.c.o
HAL_ADC_GetState                                  C:\msys64\opt\arduino-1.8.13\portable\sketchbook\arduino\F427ZIT6_SerLed\build\libraries\SrcWrapper\HAL\stm32yyxx_hal_adc.c.o
                                                  C:\msys64\opt\arduino-1.8.13\portable\sketchbook\arduino\F427ZIT6_SerLed\build\libraries\SrcWrapper\stm32\analog.cpp.o
HAL_ADC_GetValue                                  C:\msys64\opt\arduino-1.8.13\portable\sketchbook\arduino\F427ZIT6_SerLed\build\libraries\SrcWrapper\HAL\stm32yyxx_hal_adc.c.o
                                                  C:\msys64\opt\arduino-1.8.13\portable\sketchbook\arduino\F427ZIT6_SerLed\build\libraries\SrcWrapper\stm32\analog.cpp.o
HAL_ADC_IRQHandler                                C:\msys64\opt\arduino-1.8.13\portable\sketchbook\arduino\F427ZIT6_SerLed\build\libraries\SrcWrapper\HAL\stm32yyxx_hal_adc.c.o
HAL_ADC_Init                                      C:\msys64\opt\arduino-1.8.13\portable\sketchbook\arduino\F427ZIT6_SerLed\build\libraries\SrcWrapper\HAL\stm32yyxx_hal_adc.c.o
                                                  C:\msys64\opt\arduino-1.8.13\portable\sketchbook\arduino\F427ZIT6_SerLed\build\libraries\SrcWrapper\stm32\analog.cpp.o
HAL_ADC_LevelOutOfWindowCallback                  C:\msys64\opt\arduino-1.8.13\portable\sketchbook\arduino\F427ZIT6_SerLed\build\libraries\SrcWrapper\HAL\stm32yyxx_hal_adc.c.o
HAL_ADC_MspDeInit                                 C:\msys64\opt\arduino-1.8.13\portable\sketchbook\arduino\F427ZIT6_SerLed\build\libraries\SrcWrapper\stm32\analog.cpp.o
                                                  C:\msys64\opt\arduino-1.8.13\portable\sketchbook\arduino\F427ZIT6_SerLed\build\libraries\SrcWrapper\HAL\stm32yyxx_hal_adc.c.o
HAL_ADC_MspInit                                   C:\msys64\opt\arduino-1.8.13\portable\sketchbook\arduino\F427ZIT6_SerLed\build\libraries\SrcWrapper\stm32\analog.cpp.o
                                                  C:\msys64\opt\arduino-1.8.13\portable\sketchbook\arduino\F427ZIT6_SerLed\build\libraries\SrcWrapper\HAL\stm32yyxx_hal_adc.c.o
HAL_ADC_PollForConversion                         C:\msys64\opt\arduino-1.8.13\portable\sketchbook\arduino\F427ZIT6_SerLed\build\libraries\SrcWrapper\HAL\stm32yyxx_hal_adc.c.o
                                                  C:\msys64\opt\arduino-1.8.13\portable\sketchbook\arduino\F427ZIT6_SerLed\build\libraries\SrcWrapper\stm32\analog.cpp.o
HAL_ADC_PollForEvent                              C:\msys64\opt\arduino-1.8.13\portable\sketchbook\arduino\F427ZIT6_SerLed\build\libraries\SrcWrapper\HAL\stm32yyxx_hal_adc.c.o
HAL_ADC_Start                                     C:\msys64\opt\arduino-1.8.13\portable\sketchbook\arduino\F427ZIT6_SerLed\build\libraries\SrcWrapper\HAL\stm32yyxx_hal_adc.c.o
                                                  C:\msys64\opt\arduino-1.8.13\portable\sketchbook\arduino\F427ZIT6_SerLed\build\libraries\SrcWrapper\stm32\analog.cpp.o
HAL_ADC_Start_DMA                                 C:\msys64\opt\arduino-1.8.13\portable\sketchbook\arduino\F427ZIT6_SerLed\build\libraries\SrcWrapper\HAL\stm32yyxx_hal_adc.c.o
HAL_ADC_Start_IT                                  C:\msys64\opt\arduino-1.8.13\portable\sketchbook\arduino\F427ZIT6_SerLed\build\libraries\SrcWrapper\HAL\stm32yyxx_hal_adc.c.o
HAL_ADC_Stop                                      C:\msys64\opt\arduino-1.8.13\portable\sketchbook\arduino\F427ZIT6_SerLed\build\libraries\SrcWrapper\HAL\stm32yyxx_hal_adc.c.o
                                                  C:\msys64\opt\arduino-1.8.13\portable\sketchbook\arduino\F427ZIT6_SerLed\build\libraries\SrcWrapper\stm32\analog.cpp.o
HAL_ADC_Stop_DMA                                  C:\msys64\opt\arduino-1.8.13\portable\sketchbook\arduino\F427ZIT6_SerLed\build\libraries\SrcWrapper\HAL\stm32yyxx_hal_adc.c.o
HAL_ADC_Stop_IT                                   C:\msys64\opt\arduino-1.8.13\portable\sketchbook\arduino\F427ZIT6_SerLed\build\libraries\SrcWrapper\HAL\stm32yyxx_hal_adc.c.o
HAL_DACEx_ConvCpltCallbackCh2                     C:\msys64\opt\arduino-1.8.13\portable\sketchbook\arduino\F427ZIT6_SerLed\build\libraries\SrcWrapper\HAL\stm32yyxx_hal_dac_ex.c.o
HAL_DACEx_ConvHalfCpltCallbackCh2                 C:\msys64\opt\arduino-1.8.13\portable\sketchbook\arduino\F427ZIT6_SerLed\build\libraries\SrcWrapper\HAL\stm32yyxx_hal_dac_ex.c.o
HAL_DACEx_DMAUnderrunCallbackCh2                  C:\msys64\opt\arduino-1.8.13\portable\sketchbook\arduino\F427ZIT6_SerLed\build\libraries\SrcWrapper\HAL\stm32yyxx_hal_dac_ex.c.o
                                                  C:\msys64\opt\arduino-1.8.13\portable\sketchbook\arduino\F427ZIT6_SerLed\build\libraries\SrcWrapper\HAL\stm32yyxx_hal_dac.c.o
HAL_DACEx_DualGetValue                            C:\msys64\opt\arduino-1.8.13\portable\sketchbook\arduino\F427ZIT6_SerLed\build\libraries\SrcWrapper\HAL\stm32yyxx_hal_dac_ex.c.o
HAL_DACEx_DualSetValue                            C:\msys64\opt\arduino-1.8.13\portable\sketchbook\arduino\F427ZIT6_SerLed\build\libraries\SrcWrapper\HAL\stm32yyxx_hal_dac_ex.c.o
HAL_DACEx_ErrorCallbackCh2                        C:\msys64\opt\arduino-1.8.13\portable\sketchbook\arduino\F427ZIT6_SerLed\build\libraries\SrcWrapper\HAL\stm32yyxx_hal_dac_ex.c.o
HAL_DACEx_NoiseWaveGenerate                       C:\msys64\opt\arduino-1.8.13\portable\sketchbook\arduino\F427ZIT6_SerLed\build\libraries\SrcWrapper\HAL\stm32yyxx_hal_dac_ex.c.o
HAL_DACEx_TriangleWaveGenerate                    C:\msys64\opt\arduino-1.8.13\portable\sketchbook\arduino\F427ZIT6_SerLed\build\libraries\SrcWrapper\HAL\stm32yyxx_hal_dac_ex.c.o
HAL_DAC_ConfigChannel                             C:\msys64\opt\arduino-1.8.13\portable\sketchbook\arduino\F427ZIT6_SerLed\build\libraries\SrcWrapper\HAL\stm32yyxx_hal_dac.c.o
                                                  C:\msys64\opt\arduino-1.8.13\portable\sketchbook\arduino\F427ZIT6_SerLed\build\libraries\SrcWrapper\stm32\analog.cpp.o
HAL_DAC_ConvCpltCallbackCh1                       C:\msys64\opt\arduino-1.8.13\portable\sketchbook\arduino\F427ZIT6_SerLed\build\libraries\SrcWrapper\HAL\stm32yyxx_hal_dac.c.o
HAL_DAC_ConvHalfCpltCallbackCh1                   C:\msys64\opt\arduino-1.8.13\portable\sketchbook\arduino\F427ZIT6_SerLed\build\libraries\SrcWrapper\HAL\stm32yyxx_hal_dac.c.o
HAL_DAC_DMAUnderrunCallbackCh1                    C:\msys64\opt\arduino-1.8.13\portable\sketchbook\arduino\F427ZIT6_SerLed\build\libraries\SrcWrapper\HAL\stm32yyxx_hal_dac.c.o
HAL_DAC_DeInit                                    C:\msys64\opt\arduino-1.8.13\portable\sketchbook\arduino\F427ZIT6_SerLed\build\libraries\SrcWrapper\HAL\stm32yyxx_hal_dac.c.o
                                                  C:\msys64\opt\arduino-1.8.13\portable\sketchbook\arduino\F427ZIT6_SerLed\build\libraries\SrcWrapper\stm32\analog.cpp.o
HAL_DAC_ErrorCallbackCh1                          C:\msys64\opt\arduino-1.8.13\portable\sketchbook\arduino\F427ZIT6_SerLed\build\libraries\SrcWrapper\HAL\stm32yyxx_hal_dac.c.o
HAL_DAC_GetError                                  C:\msys64\opt\arduino-1.8.13\portable\sketchbook\arduino\F427ZIT6_SerLed\build\libraries\SrcWrapper\HAL\stm32yyxx_hal_dac.c.o
HAL_DAC_GetState                                  C:\msys64\opt\arduino-1.8.13\portable\sketchbook\arduino\F427ZIT6_SerLed\build\libraries\SrcWrapper\HAL\stm32yyxx_hal_dac.c.o
HAL_DAC_GetValue                                  C:\msys64\opt\arduino-1.8.13\portable\sketchbook\arduino\F427ZIT6_SerLed\build\libraries\SrcWrapper\HAL\stm32yyxx_hal_dac.c.o
HAL_DAC_IRQHandler                                C:\msys64\opt\arduino-1.8.13\portable\sketchbook\arduino\F427ZIT6_SerLed\build\libraries\SrcWrapper\HAL\stm32yyxx_hal_dac.c.o
HAL_DAC_Init                                      C:\msys64\opt\arduino-1.8.13\portable\sketchbook\arduino\F427ZIT6_SerLed\build\libraries\SrcWrapper\HAL\stm32yyxx_hal_dac.c.o
                                                  C:\msys64\opt\arduino-1.8.13\portable\sketchbook\arduino\F427ZIT6_SerLed\build\libraries\SrcWrapper\stm32\analog.cpp.o
HAL_DAC_MspDeInit                                 C:\msys64\opt\arduino-1.8.13\portable\sketchbook\arduino\F427ZIT6_SerLed\build\libraries\SrcWrapper\stm32\analog.cpp.o
                                                  C:\msys64\opt\arduino-1.8.13\portable\sketchbook\arduino\F427ZIT6_SerLed\build\libraries\SrcWrapper\HAL\stm32yyxx_hal_dac.c.o
HAL_DAC_MspInit                                   C:\msys64\opt\arduino-1.8.13\portable\sketchbook\arduino\F427ZIT6_SerLed\build\libraries\SrcWrapper\stm32\analog.cpp.o
                                                  C:\msys64\opt\arduino-1.8.13\portable\sketchbook\arduino\F427ZIT6_SerLed\build\libraries\SrcWrapper\HAL\stm32yyxx_hal_dac.c.o
HAL_DAC_SetValue                                  C:\msys64\opt\arduino-1.8.13\portable\sketchbook\arduino\F427ZIT6_SerLed\build\libraries\SrcWrapper\HAL\stm32yyxx_hal_dac.c.o
                                                  C:\msys64\opt\arduino-1.8.13\portable\sketchbook\arduino\F427ZIT6_SerLed\build\libraries\SrcWrapper\stm32\analog.cpp.o
HAL_DAC_Start                                     C:\msys64\opt\arduino-1.8.13\portable\sketchbook\arduino\F427ZIT6_SerLed\build\libraries\SrcWrapper\HAL\stm32yyxx_hal_dac.c.o
                                                  C:\msys64\opt\arduino-1.8.13\portable\sketchbook\arduino\F427ZIT6_SerLed\build\libraries\SrcWrapper\stm32\analog.cpp.o
HAL_DAC_Start_DMA                                 C:\msys64\opt\arduino-1.8.13\portable\sketchbook\arduino\F427ZIT6_SerLed\build\libraries\SrcWrapper\HAL\stm32yyxx_hal_dac.c.o
HAL_DAC_Stop                                      C:\msys64\opt\arduino-1.8.13\portable\sketchbook\arduino\F427ZIT6_SerLed\build\libraries\SrcWrapper\HAL\stm32yyxx_hal_dac.c.o
                                                  C:\msys64\opt\arduino-1.8.13\portable\sketchbook\arduino\F427ZIT6_SerLed\build\libraries\SrcWrapper\stm32\analog.cpp.o
HAL_DAC_Stop_DMA                                  C:\msys64\opt\arduino-1.8.13\portable\sketchbook\arduino\F427ZIT6_SerLed\build\libraries\SrcWrapper\HAL\stm32yyxx_hal_dac.c.o
HAL_DBGMCU_DisableDBGSleepMode                    C:\msys64\opt\arduino-1.8.13\portable\sketchbook\arduino\F427ZIT6_SerLed\build\libraries\SrcWrapper\HAL\stm32yyxx_hal.c.o
HAL_DBGMCU_DisableDBGStandbyMode                  C:\msys64\opt\arduino-1.8.13\portable\sketchbook\arduino\F427ZIT6_SerLed\build\libraries\SrcWrapper\HAL\stm32yyxx_hal.c.o
HAL_DBGMCU_DisableDBGStopMode                     C:\msys64\opt\arduino-1.8.13\portable\sketchbook\arduino\F427ZIT6_SerLed\build\libraries\SrcWrapper\HAL\stm32yyxx_hal.c.o
HAL_DBGMCU_EnableDBGSleepMode                     C:\msys64\opt\arduino-1.8.13\portable\sketchbook\arduino\F427ZIT6_SerLed\build\libraries\SrcWrapper\HAL\stm32yyxx_hal.c.o
HAL_DBGMCU_EnableDBGStandbyMode                   C:\msys64\opt\arduino-1.8.13\portable\sketchbook\arduino\F427ZIT6_SerLed\build\libraries\SrcWrapper\HAL\stm32yyxx_hal.c.o
HAL_DBGMCU_EnableDBGStopMode                      C:\msys64\opt\arduino-1.8.13\portable\sketchbook\arduino\F427ZIT6_SerLed\build\libraries\SrcWrapper\HAL\stm32yyxx_hal.c.o
HAL_DMAEx_ChangeMemory                            C:\msys64\opt\arduino-1.8.13\portable\sketchbook\arduino\F427ZIT6_SerLed\build\libraries\SrcWrapper\HAL\stm32yyxx_hal_dma_ex.c.o
HAL_DMAEx_MultiBufferStart                        C:\msys64\opt\arduino-1.8.13\portable\sketchbook\arduino\F427ZIT6_SerLed\build\libraries\SrcWrapper\HAL\stm32yyxx_hal_dma_ex.c.o
HAL_DMAEx_MultiBufferStart_IT                     C:\msys64\opt\arduino-1.8.13\portable\sketchbook\arduino\F427ZIT6_SerLed\build\libraries\SrcWrapper\HAL\stm32yyxx_hal_dma_ex.c.o
HAL_DMA_Abort                                     C:\msys64\opt\arduino-1.8.13\portable\sketchbook\arduino\F427ZIT6_SerLed\build\libraries\SrcWrapper\HAL\stm32yyxx_hal_dma.c.o
                                                  C:\msys64\opt\arduino-1.8.13\portable\sketchbook\arduino\F427ZIT6_SerLed\build\libraries\SrcWrapper\HAL\stm32yyxx_hal_uart.c.o
                                                  C:\msys64\opt\arduino-1.8.13\portable\sketchbook\arduino\F427ZIT6_SerLed\build\libraries\SrcWrapper\HAL\stm32yyxx_hal_spi.c.o
                                                  C:\msys64\opt\arduino-1.8.13\portable\sketchbook\arduino\F427ZIT6_SerLed\build\libraries\SrcWrapper\HAL\stm32yyxx_hal_dac.c.o
                                                  C:\msys64\opt\arduino-1.8.13\portable\sketchbook\arduino\F427ZIT6_SerLed\build\libraries\SrcWrapper\HAL\stm32yyxx_hal_adc_ex.c.o
                                                  C:\msys64\opt\arduino-1.8.13\portable\sketchbook\arduino\F427ZIT6_SerLed\build\libraries\SrcWrapper\HAL\stm32yyxx_hal_adc.c.o
HAL_DMA_Abort_IT                                  C:\msys64\opt\arduino-1.8.13\portable\sketchbook\arduino\F427ZIT6_SerLed\build\libraries\SrcWrapper\HAL\stm32yyxx_hal_dma.c.o
                                                  C:\msys64\opt\arduino-1.8.13\portable\sketchbook\arduino\F427ZIT6_SerLed\build\libraries\SrcWrapper\HAL\stm32yyxx_hal_uart.c.o
                                                  C:\msys64\opt\arduino-1.8.13\portable\sketchbook\arduino\F427ZIT6_SerLed\build\libraries\SrcWrapper\HAL\stm32yyxx_hal_tim_ex.c.o
                                                  C:\msys64\opt\arduino-1.8.13\portable\sketchbook\arduino\F427ZIT6_SerLed\build\libraries\SrcWrapper\HAL\stm32yyxx_hal_tim.c.o
                                                  C:\msys64\opt\arduino-1.8.13\portable\sketchbook\arduino\F427ZIT6_SerLed\build\libraries\SrcWrapper\HAL\stm32yyxx_hal_spi.c.o
                                                  C:\msys64\opt\arduino-1.8.13\portable\sketchbook\arduino\F427ZIT6_SerLed\build\libraries\SrcWrapper\HAL\stm32yyxx_hal_i2c.c.o
HAL_DMA_DeInit                                    C:\msys64\opt\arduino-1.8.13\portable\sketchbook\arduino\F427ZIT6_SerLed\build\libraries\SrcWrapper\HAL\stm32yyxx_hal_dma.c.o
HAL_DMA_GetError                                  C:\msys64\opt\arduino-1.8.13\portable\sketchbook\arduino\F427ZIT6_SerLed\build\libraries\SrcWrapper\HAL\stm32yyxx_hal_dma.c.o
                                                  C:\msys64\opt\arduino-1.8.13\portable\sketchbook\arduino\F427ZIT6_SerLed\build\libraries\SrcWrapper\HAL\stm32yyxx_hal_uart.c.o
                                                  C:\msys64\opt\arduino-1.8.13\portable\sketchbook\arduino\F427ZIT6_SerLed\build\libraries\SrcWrapper\HAL\stm32yyxx_hal_i2c.c.o
HAL_DMA_GetState                                  C:\msys64\opt\arduino-1.8.13\portable\sketchbook\arduino\F427ZIT6_SerLed\build\libraries\SrcWrapper\HAL\stm32yyxx_hal_dma.c.o
                                                  C:\msys64\opt\arduino-1.8.13\portable\sketchbook\arduino\F427ZIT6_SerLed\build\libraries\SrcWrapper\HAL\stm32yyxx_hal_i2c.c.o
HAL_DMA_IRQHandler                                C:\msys64\opt\arduino-1.8.13\portable\sketchbook\arduino\F427ZIT6_SerLed\build\libraries\SrcWrapper\HAL\stm32yyxx_hal_dma.c.o
HAL_DMA_Init                                      C:\msys64\opt\arduino-1.8.13\portable\sketchbook\arduino\F427ZIT6_SerLed\build\libraries\SrcWrapper\HAL\stm32yyxx_hal_dma.c.o
HAL_DMA_PollForTransfer                           C:\msys64\opt\arduino-1.8.13\portable\sketchbook\arduino\F427ZIT6_SerLed\build\libraries\SrcWrapper\HAL\stm32yyxx_hal_dma.c.o
HAL_DMA_RegisterCallback                          C:\msys64\opt\arduino-1.8.13\portable\sketchbook\arduino\F427ZIT6_SerLed\build\libraries\SrcWrapper\HAL\stm32yyxx_hal_dma.c.o
HAL_DMA_Start                                     C:\msys64\opt\arduino-1.8.13\portable\sketchbook\arduino\F427ZIT6_SerLed\build\libraries\SrcWrapper\HAL\stm32yyxx_hal_dma.c.o
HAL_DMA_Start_IT                                  C:\msys64\opt\arduino-1.8.13\portable\sketchbook\arduino\F427ZIT6_SerLed\build\libraries\SrcWrapper\HAL\stm32yyxx_hal_dma.c.o
                                                  C:\msys64\opt\arduino-1.8.13\portable\sketchbook\arduino\F427ZIT6_SerLed\build\libraries\SrcWrapper\HAL\stm32yyxx_hal_uart.c.o
                                                  C:\msys64\opt\arduino-1.8.13\portable\sketchbook\arduino\F427ZIT6_SerLed\build\libraries\SrcWrapper\HAL\stm32yyxx_hal_tim_ex.c.o
                                                  C:\msys64\opt\arduino-1.8.13\portable\sketchbook\arduino\F427ZIT6_SerLed\build\libraries\SrcWrapper\HAL\stm32yyxx_hal_tim.c.o
                                                  C:\msys64\opt\arduino-1.8.13\portable\sketchbook\arduino\F427ZIT6_SerLed\build\libraries\SrcWrapper\HAL\stm32yyxx_hal_spi.c.o
                                                  C:\msys64\opt\arduino-1.8.13\portable\sketchbook\arduino\F427ZIT6_SerLed\build\libraries\SrcWrapper\HAL\stm32yyxx_hal_i2c.c.o
                                                  C:\msys64\opt\arduino-1.8.13\portable\sketchbook\arduino\F427ZIT6_SerLed\build\libraries\SrcWrapper\HAL\stm32yyxx_hal_dac.c.o
                                                  C:\msys64\opt\arduino-1.8.13\portable\sketchbook\arduino\F427ZIT6_SerLed\build\libraries\SrcWrapper\HAL\stm32yyxx_hal_adc_ex.c.o
                                                  C:\msys64\opt\arduino-1.8.13\portable\sketchbook\arduino\F427ZIT6_SerLed\build\libraries\SrcWrapper\HAL\stm32yyxx_hal_adc.c.o
HAL_DMA_UnRegisterCallback                        C:\msys64\opt\arduino-1.8.13\portable\sketchbook\arduino\F427ZIT6_SerLed\build\libraries\SrcWrapper\HAL\stm32yyxx_hal_dma.c.o
HAL_DeInit                                        C:\msys64\opt\arduino-1.8.13\portable\sketchbook\arduino\F427ZIT6_SerLed\build\libraries\SrcWrapper\HAL\stm32yyxx_hal.c.o
HAL_Delay                                         C:\msys64\opt\arduino-1.8.13\portable\sketchbook\arduino\F427ZIT6_SerLed\build\libraries\SrcWrapper\HAL\stm32yyxx_hal.c.o
                                                  C:\msys64\opt\arduino-1.8.13\portable\sketchbook\arduino\F427ZIT6_SerLed\build\libraries\SrcWrapper\stm32\low_power.c.o
                                                  C:\msys64\opt\arduino-1.8.13\portable\sketchbook\arduino\F427ZIT6_SerLed\build\libraries\SrcWrapper\HAL\stm32yyxx_hal_eth.c.o
HAL_DisableCompensationCell                       C:\msys64\opt\arduino-1.8.13\portable\sketchbook\arduino\F427ZIT6_SerLed\build\libraries\SrcWrapper\HAL\stm32yyxx_hal.c.o
HAL_DisableMemorySwappingBank                     C:\msys64\opt\arduino-1.8.13\portable\sketchbook\arduino\F427ZIT6_SerLed\build\libraries\SrcWrapper\HAL\stm32yyxx_hal.c.o
HAL_ETH_ConfigDMA                                 C:\msys64\opt\arduino-1.8.13\portable\sketchbook\arduino\F427ZIT6_SerLed\build\libraries\SrcWrapper\HAL\stm32yyxx_hal_eth.c.o
HAL_ETH_ConfigMAC                                 C:\msys64\opt\arduino-1.8.13\portable\sketchbook\arduino\F427ZIT6_SerLed\build\libraries\SrcWrapper\HAL\stm32yyxx_hal_eth.c.o
HAL_ETH_DMARxDescListInit                         C:\msys64\opt\arduino-1.8.13\portable\sketchbook\arduino\F427ZIT6_SerLed\build\libraries\SrcWrapper\HAL\stm32yyxx_hal_eth.c.o
HAL_ETH_DMATxDescListInit                         C:\msys64\opt\arduino-1.8.13\portable\sketchbook\arduino\F427ZIT6_SerLed\build\libraries\SrcWrapper\HAL\stm32yyxx_hal_eth.c.o
HAL_ETH_DeInit                                    C:\msys64\opt\arduino-1.8.13\portable\sketchbook\arduino\F427ZIT6_SerLed\build\libraries\SrcWrapper\HAL\stm32yyxx_hal_eth.c.o
HAL_ETH_ErrorCallback                             C:\msys64\opt\arduino-1.8.13\portable\sketchbook\arduino\F427ZIT6_SerLed\build\libraries\SrcWrapper\HAL\stm32yyxx_hal_eth.c.o
HAL_ETH_GetReceivedFrame                          C:\msys64\opt\arduino-1.8.13\portable\sketchbook\arduino\F427ZIT6_SerLed\build\libraries\SrcWrapper\HAL\stm32yyxx_hal_eth.c.o
HAL_ETH_GetReceivedFrame_IT                       C:\msys64\opt\arduino-1.8.13\portable\sketchbook\arduino\F427ZIT6_SerLed\build\libraries\SrcWrapper\HAL\stm32yyxx_hal_eth.c.o
HAL_ETH_GetState                                  C:\msys64\opt\arduino-1.8.13\portable\sketchbook\arduino\F427ZIT6_SerLed\build\libraries\SrcWrapper\HAL\stm32yyxx_hal_eth.c.o
HAL_ETH_IRQHandler                                C:\msys64\opt\arduino-1.8.13\portable\sketchbook\arduino\F427ZIT6_SerLed\build\libraries\SrcWrapper\HAL\stm32yyxx_hal_eth.c.o
HAL_ETH_Init                                      C:\msys64\opt\arduino-1.8.13\portable\sketchbook\arduino\F427ZIT6_SerLed\build\libraries\SrcWrapper\HAL\stm32yyxx_hal_eth.c.o
HAL_ETH_MspDeInit                                 C:\msys64\opt\arduino-1.8.13\portable\sketchbook\arduino\F427ZIT6_SerLed\build\libraries\SrcWrapper\HAL\stm32yyxx_hal_eth.c.o
HAL_ETH_MspInit                                   C:\msys64\opt\arduino-1.8.13\portable\sketchbook\arduino\F427ZIT6_SerLed\build\libraries\SrcWrapper\HAL\stm32yyxx_hal_eth.c.o
HAL_ETH_ReadPHYRegister                           C:\msys64\opt\arduino-1.8.13\portable\sketchbook\arduino\F427ZIT6_SerLed\build\libraries\SrcWrapper\HAL\stm32yyxx_hal_eth.c.o
HAL_ETH_RxCpltCallback                            C:\msys64\opt\arduino-1.8.13\portable\sketchbook\arduino\F427ZIT6_SerLed\build\libraries\SrcWrapper\HAL\stm32yyxx_hal_eth.c.o
HAL_ETH_Start                                     C:\msys64\opt\arduino-1.8.13\portable\sketchbook\arduino\F427ZIT6_SerLed\build\libraries\SrcWrapper\HAL\stm32yyxx_hal_eth.c.o
HAL_ETH_Stop                                      C:\msys64\opt\arduino-1.8.13\portable\sketchbook\arduino\F427ZIT6_SerLed\build\libraries\SrcWrapper\HAL\stm32yyxx_hal_eth.c.o
HAL_ETH_TransmitFrame                             C:\msys64\opt\arduino-1.8.13\portable\sketchbook\arduino\F427ZIT6_SerLed\build\libraries\SrcWrapper\HAL\stm32yyxx_hal_eth.c.o
HAL_ETH_TxCpltCallback                            C:\msys64\opt\arduino-1.8.13\portable\sketchbook\arduino\F427ZIT6_SerLed\build\libraries\SrcWrapper\HAL\stm32yyxx_hal_eth.c.o
HAL_ETH_WritePHYRegister                          C:\msys64\opt\arduino-1.8.13\portable\sketchbook\arduino\F427ZIT6_SerLed\build\libraries\SrcWrapper\HAL\stm32yyxx_hal_eth.c.o
HAL_EnableCompensationCell                        C:\msys64\opt\arduino-1.8.13\portable\sketchbook\arduino\F427ZIT6_SerLed\build\libraries\SrcWrapper\HAL\stm32yyxx_hal.c.o
HAL_EnableMemorySwappingBank                      C:\msys64\opt\arduino-1.8.13\portable\sketchbook\arduino\F427ZIT6_SerLed\build\libraries\SrcWrapper\HAL\stm32yyxx_hal.c.o
HAL_FLASHEx_AdvOBGetConfig                        C:\msys64\opt\arduino-1.8.13\portable\sketchbook\arduino\F427ZIT6_SerLed\build\libraries\SrcWrapper\HAL\stm32yyxx_hal_flash_ex.c.o
HAL_FLASHEx_AdvOBProgram                          C:\msys64\opt\arduino-1.8.13\portable\sketchbook\arduino\F427ZIT6_SerLed\build\libraries\SrcWrapper\HAL\stm32yyxx_hal_flash_ex.c.o
HAL_FLASHEx_Erase                                 C:\msys64\opt\arduino-1.8.13\portable\sketchbook\arduino\F427ZIT6_SerLed\build\libraries\SrcWrapper\HAL\stm32yyxx_hal_flash_ex.c.o
                                                  C:\msys64\opt\arduino-1.8.13\portable\sketchbook\arduino\F427ZIT6_SerLed\build\libraries\SrcWrapper\stm32\stm32_eeprom.c.o
HAL_FLASHEx_Erase_IT                              C:\msys64\opt\arduino-1.8.13\portable\sketchbook\arduino\F427ZIT6_SerLed\build\libraries\SrcWrapper\HAL\stm32yyxx_hal_flash_ex.c.o
